S01300004C515F4F4C45445F4B36302E73726563E1
S1130000F8FF002011040000EF1D0000EF1D0000A8
S1130010EF1D0000EF1D0000EF1D0000EF1D0000AC
S1130020EF1D0000EF1D0000EF1D0000EF1D00009C
S1130030EF1D0000EF1D0000EF1D0000EF1D00008C
S1130040EF1D0000EF1D0000EF1D0000EF1D00007C
S1130400FFFFFFFFFFFFFFFFFFFFFFFFFEFFFFFFF9
S11304104FF000004FF000014FF000024FF00003D6
S11304204FF000044FF000054FF000064FF00007B6
S11304304FF000084FF000094FF0000A4FF0000B96
S11304404FF0000C62B601F00BFCFEE70821DFF868
S11304502C26126852F40032DFF820361A6000BFEE
S1130460DFF81826126832F48042DFF810361A607A
S113047000BF19E0DFF80426126832F40042DFF806
S1130480FC351A60DFF8F425126852F48042DFF874
S1130490EC351A6000BFDFF8E425126832F48042BC
S11304A0DFF8D8351A6040000A00511ED2B2002A83
S11304B00AD00206DED5DFF8C425126852F40042E1
S11304C0DFF8B8351A60DDE7704700000821DFF86F
S11304D0AC25126832F40032DFF8A0351A60DFF878
S11304E09C25126832F48042DFF890351A6019E0D6
S11304F0DFF88825126832F40042DFF880351A608C
S1130500DFF87825126852F48042DFF870351A60FB
S113051000BFDFF86825126832F48042DFF85C35EA
S11305201A6040000A00511ED2B2002A0AD0020604
S1130530DED5DFF84825126852F40042DFF83C3576
S11305401A60DDE7704710B50400B1F15000C0B285
S1130550FFF7BCFFE4B2200950F01000C0B2FFF76F
S1130560B5FF14F00F0050F00100C0B2FFF7AEFF6A
S113057010BD70B50400002508E02000C0B2FFF7EC
S113058065FF761CF6B2802EF7D36D1CEDB2082DF4
S11305900CD2B5F15000C0B2FFF798FF0120FFF76D
S11305A095FF1020FFF792FF0026EBE770BD38B5EA
S11305B0002407E00020FFF749FF6D1CEDB2802DF9
S11305C0F8D3641CE4B2082C0CD2B4F15000C0B2CD
S11305D0FFF77CFF0120FFF779FF1020FFF776FF7C
S11305E00025EBE731BD07E043F226410A00511E26
S11305F092B2002AFAD1401E80B20028F4D170478A
S113060080B5DFF87C044FF480710160DFF8740476
S11306104FF480710160DFF870044FF48071016061
S1130620DFF868044FF480710160DFF864045FF45C
S113063070310160DFF84404006850F48040DFF852
S11306403C140860DFF83404006830F48030DFF8CC
S11306502C1408603220FFF7C6FFDFF8200400687E
S113066050F48030DFF814140860AE20FFF72EFF3A
S11306700020FFF72BFF1020FFF728FF4020FFF793
S113068025FF8120FFF722FFCF20FFF71FFFA120C6
S1130690FFF71CFFC820FFF719FFA620FFF716FF7E
S11306A0A820FFF713FF3F20FFF710FFD320FFF729
S11306B00DFF0020FFF70AFFD520FFF707FF80207A
S11306C0FFF704FFD920FFF701FFF120FFF7FEFE3B
S11306D0DA20FFF7FBFE1220FFF7F8FEDB20FFF71E
S11306E0F5FE4020FFF7F2FE2020FFF7EFFE022088
S11306F0FFF7ECFE8D20FFF7E9FE1420FFF7E6FE7E
S1130700A420FFF7E3FEA620FFF7E0FEAF20FFF7EB
S1130710DDFE0020FFF72DFF00210020FFF713FF6F
S113072001BD2DE9F84304000D00160000275FF019
S113073000085FF0000915E05FFA88F8FFB20620B0
S11307400FF2503100FB071018F80000FFF77EFE8F
S113075018F101085FFA88F8B8F1060FECD3A41D6C
S113076019F101095FFA89F919F80600002813D074
S11307705FFA89F919F80600B0F12007E4B27F2C7A
S113078001D300246D1C2900C9B22000C0B2FFF7B8
S1130790DAFE5FF00008DDE7BDE8F1832DE9F843F8
S11307A004000D00160000275FF000085FF0000948
S11307B013E0FFB2380150FA88F00FF2F0714018DC
S11307C0007AFFF743FE18F101085FFA88F8B8F1E0
S11307D0080FEED3083419F101095FFA89F919F801
S11307E0060000282CD05FFA89F919F80600B0F148
S11307F02007E4B2792C01D300246D1C2900C9B26E
S11308002000C0B2FFF79FFE5FF000080AE0FFB2CD
S1130810380150FA88F00FF29471405CFFF716FE2D
S113082018F101085FFA88F8B8F1080FEFD3691CD2
S1130830C9B22000C0B2FFF786FE5FF00008C4E72B
S1130840BDE8F1832DE9F84306000C0015005FF0C4
S1130850000900275FF001080BE00020FFF7F6FD18
S113086019F101095FFA89F9B9F1100FF5D30E36C0
S1130870BF1CFFB2785D002800F08B805FF0000998
S11308805FF0010801E019F102095FFA89F90FF23A
S11308902C4019F8000080281AD35FFA89F90FF266
S11308A01C4019F80000FFB2795D8842EBD15FFA71
S11308B089F90FF2084019EB00004078FFB279196A
S11308C049788842DFD15FFA89F90E2000FB09F8E4
S11308D0F6B2772E01D30026641C2100C9B2300081
S11308E0C0B2FFF730FE1FFA88F8B8F1010F33D019
S11308F02100C9B23000C0B2FFF725FE5FF0000945
S11309000BE01FFA88F80FF2E83018F80000FFF740
S11309109DFD18F1010819F101095FFA89F9B9F18E
S11309200E0FEED3611CC9B23000C0B2FFF70BFE4C
S11309305FF000095FFA89F9B9F10E0F97D21FFA37
S113094088F80FF2AC3018F80000FFF77FFD18F1BB
S1130950010819F10109EDE77F1C2100C9B230003B
S1130960C0B2FFF7F0FD5FF0000904E00020FFF7DC
S11309706DFD19F101095FFA89F9B9F1100FF5D389
S1130980611CC9B23000C0B2FFF7DDFD5FF00009A1
S113099068E7BDE8F183F8B504000D0016000027F0
S11309A014E0FFB2B85D8DF80000FFB2B8194078CA
S11309B08DF8010000208DF8020000AA2900C9B2B8
S11309C02000C0B2FFF73EFF0E34BF1CFFB2B85D7B
S11309D0002814D0FFB2B85D8028E2D2FFB2B85D1F
S11309E08DF8000000208DF8010000AA2900C9B28A
S11309F02000C0B2FFF7D2FE08347F1CE6E7F1BD49
S1130A002DE9F047040015001E00089F5FF0000860
S1130A10F6B2082096FBF0F202FB1062002A04D121
S1130A20F6B2082096FBF0FA05E0F6B2082096FB31
S1130A30F0F010F1010A8A4610E01FFA88F818F85D
S1130A400700FFF703FD18F1010819F101095FFA26
S1130A5089F9EDB2A945F0D31AF1010AF6B25FFAA9
S1130A608AFA564507D35146C9B22000C0B2FFF7EF
S1130A706AFDA146EBE7BDE8F087000000F00F40F7
S1130A80389004403C90044040900440449004401A
S1130A9014F00F400000000000000000002F0000D0
S1130AA000000700070000147F147F1400242A7F2D
S1130AB02A120062640813230036495522500000AC
S1130AC00503000000001C224100000041221C001C
S1130AD00014083E08140008083E0808000000A09E
S1130AE0600000080808080800006060000000209A
S1130AF010080402003E5149453E0000427F400078
S1130B00004261514946002141454B3100181412FD
S1130B107F10002745454539003C4A4949300001CA
S1130B207109050300364949493600064949291E19
S1130B30000036360000000056360000000814227B
S1130B40410000141414141400004122140800027B
S1130B500151090600324959513E007C1211127CA0
S1130B60007F49494936003E41414122007F4141CD
S1130B70221C007F49494941007F09090901003EBF
S1130B804149497A007F0808087F0000417F4100FD
S1130B90002040413F01007F08142241007F404073
S1130BA04040007F020C027F007F0408107F003E5B
S1130BB04141413E007F09090906003E4151215E41
S1130BC0007F091929460046494949310001017F3E
S1130BD00101003F4040403F001F2040201F003FD4
S1130BE04038403F00631408146300070870080786
S1130BF000615149454300007F41410000552A5599
S1130C002A55000041417F00000402010204004013
S1130C104040404000000102040000205454547835
S1130C20007F484444380038444444200038444455
S1130C30487F00385454541800087E0901020018F3
S1130C40A4A4A47C007F080404780000447D400030
S1130C50004080847D00007F102844000000417F14
S1130C604000007C04180478007C080404780038F0
S1130C704444443800FC242424180018242418FC78
S1130C80007C0804040800485454542000043F44E1
S1130C904020003C4040207C001C2040201C003CA4
S1130CA04030403C004428102844001CA0A0A07CF4
S1130CB0004464544C44141414141414B1B1BEA963
S1130CC0C1FAC7F0C7F1BFC6BCBCBFAAB7A2B0E5A2
S1130CD0D6C7C4DCB3B5CAD7D1A1D2BABEA7CAD2CB
S1130CE0CEC2B6C8B0B4BCFCB4CEB5E7D1B900002E
S1130CF020202020FF000000FF4020301810301872
S1130D0008047F0000003F40404040780404E4248D
S1130D10242526242424E40604002010190D4181EE
S1130D207F0101050D3810001010101010FF10F095
S1130D30121CD01010104020100C0310083F424128
S1130D40404040700000FE8484848482828282C099
S1130D50800020203F20202020203F202020302001
S1130D6000FC2424E2222200FE0222528E02101FE2
S1130D7010080F080800FF000808100F129272FEF6
S1130D8051910022CC0000FF0000020100FF00048A
S1130D900404020202FF01010888FF482800C84831
S1130DA0487F48C8480841807F00404020130C0C0D
S1130DB01221602042424242FE42424242FE4242EC
S1130DC042424020100C03000000007F000000009D
S1130DD0103E1010F09F909092941C101010201050
S1130DE0888741462810282740C0400010D0FF5073
S1130DF09000FE62A22221A1610003007F00110E77
S1130E004120110A0E3160201413927E3252920056
S1130E107C4444447C00010100FF49494949494953
S1130E20FF000000B897929094B810007F4848449F
S1130E307420FF0A0A4A8A7F00003F444442722019
S1130E400484C4A49C8784F4848484848400040477
S1130E500404040404FF0404040404040404E42552
S1130E6026342C242426E504040400007F252525AB
S1130E70252525257F0000004042CC00504EC8485F
S1130E807FC84848400040201F2048464140404712
S1130E9048484E406106E01884E41C8465BE24A4DE
S1130EA0640404FF000100FF4121120C1B61C040D7
S1130EB00000007E2A2A2A2A2A2A7E0000007F2592
S1130EC02525257F00007F252525257F102C24A49A
S1130ED06425262424A424342C044048494949493F
S1130EE07F4949494B484040218670007E4A4A4A1E
S1130EF04A4A7E000000FE01407F41417F41417F1C
S1130F0041417F4000FC042424FCA5A6A4FC242425
S1130F102404601F808042462A12122A2642C040BE
S1130F201010FF9050988888E98E888898884281AC
S1130F307F004040262518081631602030EF28280D
S1130F404464DC1054FF54547C10017F215122145A
S1130F500F14253F45454544021CC0304C300F0852
S1130F60F808082818085E43202010080403010626
S1130F700830602000F848484848FF48484848F886
S1130F800000000F040404043F444444444F4070F0
S1130F9000FE0242424242FA4242426242021827A0
S1130FA020202020203F20212E242020000000008B
S1130FB0000000000000000000000000000000F835
S1130FC000000000000000333000000000100C0698
S1130FD0100C0600000000000000000040C0784033
S1130FE0C0784000043F04043F040400007088FCFF
S1130FF008300000001820FF211E0000F008F00057
S1131000E018000000211C031E211E0000F00888C7
S1131010700000001E2123241927211010160E0031
S1131020000000000000000000000000000000E0DC
S113103018040200000000071820400000020418F1
S1131040E00000000040201807000000404080F04D
S1131050804040000202010F01020200000000F083
S1131060000000000101011F010101000000000057
S11310700000000080B070000000000000000000CC
S11310800000000000010101010101010000000055
S113109000000000003030000000000000000000EC
S11310A080601804006018060100000000E01008C9
S11310B00810E000000F102020100F00001010F89E
S11310C0000000000020203F2020000000700808DD
S11310D0088870000030282422213000003008885D
S11310E0884830000018202020110E000000C02085
S11310F010F8000000070424243F240000F80888A6
S1131100880808000019212020110E0000E0108832
S113111088180000000F112020110E000038080864
S1131120C83808000000003F000000000070880874
S113113008887000001C222121221C0000E01008F5
S11311400810E0000000312222110F00000000C04E
S1131150C0000000000000303000000000000080EB
S113116000000000000080600000000000008040DB
S113117020100800000102040810200040404040F4
S11311804040400004040404040404000008102047
S1131190408000000020100804020100007048088C
S11311A00808F0000000003036010000C030C828F4
S11311B0E810E0000718272423140B000000C038AF
S11311C0E0000000203C23020227382008F8888829
S11311D088700000203F202020110E00C030080835
S11311E008083800071820202010080008F808080C
S11311F00810E000203F202020100F0008F8888805
S1131200E8081000203F20202320180008F88888D0
S1131210E8081000203F200003000000C030080848
S11312200838000007182020221E020008F80800D1
S11312300008F808203F210101213F20000808F898
S1131240080800000020203F2020000000000808BB
S1131250F8080800C08080807F00000008F888C07B
S113126028180800203F20012638200008F808002C
S113127000000000203F20202020300008F8F80063
S1131280F8F80800203F003F003F200008F830C075
S11312900008F808203F200007183F00E010080865
S11312A00810E0000F10202020100F0008F8080894
S11312B00808F000203F210101010000E0100808A7
S11312C00810E0000F18242438504F0008F88888CC
S11312D088887000203F2000030C302000708808AC
S11312E0080838000038202121221C00180808F8BA
S11312F0080818000000203F2000000008F808003B
S11313000008F808001F202020201F00087888000B
S113131000C83808000007380E010000F80800F87B
S11313200008F800033C0700073C03000818688025
S11313308068180820302C03032C30200838C8009B
S1131340C83808000000203F2000000010080808EA
S1131350C83808002038262120201800000000FE8C
S1131360020202000000007F40404000000C30C038
S113137000000000000000010638C0000002020264
S1131380FE000000004040407F0000000000040216
S11313900202040000000000000000000000000041
S11313A00000000080808080808080800002020431
S11313B00000000000000000000000000000808029
S11313C0808000000019242222223F2008F8008097
S11313D080000000003F112020110E00000000805A
S11313E080800000000E11202020110000000080E9
S11313F08088F800000E112020103F20000080801B
S113140080800000001F222222221300008080F02E
S1131410888888180020203F202000000000808059
S113142080808000006B94949493600008F800809E
S113143080800000203F210000203F2000809898F9
S1131440000000000020203F202000000000008059
S11314509898000000C08080807F000008F8000099
S113146080808000203F24022D302000000808F8EE
S1131470000000000020203F2020000080808080A9
S113148080808000203F20003F20003F808000803B
S113149080800000203F210000203F200000808049
S11314A080800000001F202020201F0080800080FA
S11314B08000000080FFA12020110E0000000080A9
S11314C080808000000E112020A0FF80808080009A
S11314D08080800020203F212000010000008080C7
S11314E0808080000033242424241900008080E0BC
S11314F0808000000000001F202000008080000089
S113150000808000001F202020103F208080800069
S11315100080808000010E30080601008080008079
S1131520008080800F300C030C300F00008080009E
S1131530808080000020312E0E31200080808000C9
S11315400080808080818E70180601000080808079
S1131550808080000021302C222130000000000017
S1131560807C020200000000003F404000000000B8
S1131570FF00000000000000FF0000000002027CE9
S1131580800000000040403F000000000006010110
S1131590020204040000000000000000000000003B
S11315A00000000000000000000000000000808037
S11315B0C0C0C060606030303038181818180C0C87
S11315C00C0C0C0E0E0E060606060606060606068D
S11315D00606060E0E0C0C0C0C0C1C1818181830F1
S11315E03030706060E0C0C0808000000000000007
S11315F000000000000000000000000000000000E7
S113160000000080C0E07030381C0C0607030301A2
S113161001000000000000000000000000000000C5
S1131620000080808000000000008080F0F8F8F066
S113163080000080E0F0F8FC3C1C0C0C1CFCF8F072
S1131640E080000000C0C0C101030307060E0C18AF
S1131650387060C080800000000000000000C0F00E
S1131660781E0733313878FCFEF6C0800000000095
S1131670C0C08000F8FCDE0E0F1EBEFCF006FFFFAB
S1131680FFFF0307FFFFFE801E3FFFFFF9F9FFFF87
S11316907F1F0E7FFFFFFFC180CECEC6C0FFFFFFBE
S11316A0FF3F80FCFCFD7D01C0F8F8F07000C080B5
S11316B08080000001070E3CF8E0800000FEFF037C
S11316C00000000000000001030F1F7FFEFCF0F08B
S11316D0F07F7F3E1003030F1F1F0F0F0304070744
S11316E0070706000707070F1E3F7F7F7F79733FB9
S11316F03F1F0E000103030707060E0F0F1F3F3D98
S1131700080C1F1F1F193C7F7F7FF3F0FCFE3F1F57
S1131710070100000000000000CFFF7000031F7EDF
S1131720F0C00000000000000000000003030101FD
S113173000000000C0C040404040F87840C040581D
S113174058404040000000000080808000000000FD
S1131750000060F0E0202020203030381810000015
S11317600000000000000000000000010101000072
S113177000000000000080E0F83F0F0000000000BF
S11317800003070E1C383060E0C080000000000039
S113179000004060607030180C0711083F7D66E758
S11317A0E3C0C0C0E0600000000303030000606009
S11317B06060607F7F616161617F7F6161E1E0E022
S11317C0C0C0000000000000000000000080C0C095
S11317D0E07038180C07030100000000000000004E
S11317E00000000000000000000101030306060CD5
S11317F00C1818383030706060E0C0C0C0C0C080C1
S113180080808180808080800000000000000000D3
S113181080808080808080808080C0C0C0C0C060A4
S1131820606030303018181C0C0E060703030100EA
S113183000000000000000000000000000000000A4
S11318400000000000000000000000000000000094
S11318500000000000000000000000000000010182
S1131860010101010103030303030303030303034E
S11318700303030101010101010100000000000054
S11318800000000000000000000000000000000054
S1131890000000000000000000000000DFF800F07D
S11318A01107FF1F80B55A48006850F47850584912
S11318B008600321022000F02FF8564908605548BB
S11318C000684FF47A7148435349086052480068ED
S11318D052490968C1F30361491CB0FBF1F0504956
S11318E0086000F003F800F00CF801BD4D480068F2
S11318F050F480504B4908604B484FF4E06101605C
S113190070474A48006850F0010048490860484858
S11319104FF4A0610160704780B50A00C0B204288A
S113192001D3002072E0D2B2102A01D301206DE06D
S1131930404A00231370404A126852F080523E4BD2
S11319401A603E4A127852F080023C4B1A703C4AAC
S1131950982313703B4A1278D206FBD4394A127882
S1131960C2F38102D2B2022AF8D1374A1823137083
S1131970364A00231370C0B2002805D0022819D0BB
S11319800DD3032821D02AE00123002200210020C6
S1131990FFF784FF2D484121017032211FE003230A
S11319A0012201210020FFF779FF28485A21017004
S11319B0642114E00323012201210020FFF76EFFBC
S11319C0224858210170602109E0012300220021EE
S11319D00020FFF763FF1D484021017030211948A2
S11319E000788006FBD5174800784006FBD51448DC
S11319F0007810F03F00124A107012480078C0F3CB
S1131A008100C0B20328F8D10800C0B202BD0000B2
S1131A10388004406007FF1F5C07FF1F44800440B8
S1131A206407FF1F04800440189004404080044071
S1131A300CB00440014006403480044008C0074014
S1131A40004006400640064004400640054006406B
S1131A50012800DA0120002105E0521C41F2DD4397
S1131A609A42FADB491C814201DA0022F6E7704708
S1131A7010B582B072B6012211213C4800F0A0F8E2
S1131A8000220E21394800F09BF8FEF7B9FD17E05B
S1131A90FEF78DFD36480090072314F16002D2B2A0
S1131AA000212000C0B2FEF7ABFF4FF49670FFF7A1
S1131AB0CFFFA41E022CEBD24FF4FA70FFF7C8FF3D
S1131AC0FF20FEF756FD4FF47A70FFF7C1FF0020A8
S1131AD0FEF74FFD4FF47A70FFF7BAFF0FF294024E
S1131AE000210820FEF757FF0FF29C0202210F206D
S1131AF0FEF751FF0FF2A00204213020FEF74EFE44
S1131B000FF29C0206211020FEF70BFE0FF2A40236
S1131B1007212220FEF705FE4FF4FA60FFF798FF35
S1131B20FEF745FD12480090072370220021102083
S1131B30FEF766FF4FF4FA60FFF78AFF002411E016
S1131B40FEF735FD0A480090072314F16002D2B273
S1131B5000212000C0B2FEF753FF4FF49670FFF748
S1131B6077FFA41C202CEBD32024A3E700F00F4024
S1131B701004FF1FB1B1BEA9C1FAC7F0D6C7C4DCB7
S1131B80BFC6BCBC00000000D6C7C4DCB3B5CAD70E
S1131B90D1A1D2BABEA700004F4C454400000000BA
S1131BA063686975736972407961686F6F2E636EDB
S1131BB000000000323031312D30392D3033000037
S1131BC080B51300012200F001F801BD70B40500D6
S1131BD01D4EAD1B08D0403D08D0403D08D0403DCF
S1131BE008D0403D08D009E0184C07E0184C05E047
S1131BF0184C03E0184C01E0184CFFE74FF48075D3
S1131C0044F82150012A15D1426901248C40224311
S1131C104261012B06D10268012313FA01F1114339
S1131C2001600EE00268012313FA01F132EA0101B6
S1131C30016006E04269012313FA01F132EA01016D
S1131C40416170BC7047000000F00F4000900440F8
S1131C5000A0044000B0044000C0044000D0044090
S1131C6080B500F055F800F005F8FFF71BFEFFF70C
S1131C70FFFE01BD80B51C481C4988420BD00020E2
S1131C8006E01949194A52F8202041F82020401C46
S1131C90B0F5826FF5D3144800F056F81449154A8C
S1131CA01548801A03E013780B70521C491C03007A
S1131CB0581E002BF7D111491148401A02E00022A6
S1131CC00A70491C0200501E002AF8D10D490E4A20
S1131CD00E48801A03E013780B70521C491C030051
S1131CE0581E002BF7D101BD0000FF1F00000000AB
S1131CF01004FF1F9C1500009C1800005C07FF1FC8
S1131D006807FF1F1007FF1F541D0000A01D0000DF
S1131D1080B500F009F80A4800884FF6FE710840C3
S1131D200749088001BD000072B606484CF22051F4
S1131D30018004484DF62811018062B67047000006
S1131D40002005400E20054001490860704700004E
S1131D5008ED00E070B4104C24680F4D2D6855F464
S1131D607F050D4E3560090611F0706151EA00706F
S1131D70110511F470010843190411F4702108438A
S1131D8006490860002000E0401CC0B29842FBD322
S1131D900148046070BC704700F001404480044076
S1131DA010B5084979441C31074C7C441A34A142CB
S1131DB006D0081D0A68511888470146A142F8D187
S1131DC010BD00BF2C0000003800000050F8041BB8
S1131DD061B150F8042BD30744BFA9F101039A1849
S1131DE0002342F8043B091FFAD1EFE7704770471C
S1131DF0DDFFFFFF0C0000005C07FF1F0000000078
S1131E0000F009F8002801D0FFF7CAFF0020FFF70F
S1131E102FFE00F002F80120704780B500F002B8F0
S1131E2000BF00000746384600F002F8FBE7000058
S1131E3080B5C046C046024A11001820ABBEFBE77D
S1131E4026000200C046C046C046C046FFF7D8FF81
S9031E4599
