S0110000756172745F6C6F6F702E737265633E
S1130000F8FF0020110400002B0B00002B0B000054
S11300102B0B00002B0B00002B0B00002B0B000004
S11300202B0B00002B0B00002B0B00002B0B0000F4
S11300302B0B00002B0B00002B0B00002B0B0000E4
S11300402B0B00002B0B00002B0B00002B0B0000D4
S1130400FFFFFFFFFFFFFFFFFFFFFFFFFEFFFFFFF9
S11304104FF000004FF000014FF000024FF00003D6
S11304204FF000044FF000054FF000064FF00007B6
S11304304FF000084FF000094FF0000A4FF0000B96
S11304404FF0000C62B600F0FDF9FEE730B45C4BEF
S1130450984208D15B4B4FF440741C605A4B4FF4E4
S113046040741C603AE0594B984208D1584B4FF401
S113047040741C60574B4FF440741C602EE0564B84
S1130480984208D1554B4FF440741C60544B4FF4C0
S113049040741C6022E0534B984208D1524B4FF4F5
S11304A040741C60514B4FF440741C6016E0504B78
S11304B0984208D14F4B4FF440741C604E4B4FF49C
S11304C040741C600AE04D4B984207D14C4B4FF4EA
S11304D040741C604B4B4FF440741C60384B984282
S11304E006D1494B1B6853F48063474C23602DE0CD
S11304F0364B984206D1444B1B6853F40063424C7C
S1130500236023E0344B984206D13F4B1B6853F4DD
S113051080533D4C236019E0324B984206D13A4B4C
S11305201B6853F40053384C23600FE0304B98425F
S113053006D1364B1B6853F48063344C236005E0CA
S1130540324B1B6853F40063304C2360C37813F0C0
S1130550F303C37000238370194B984208D000231F
S11305601A4CA04204D053F00003DBB2002B00D09D
S113057049184FF47A7303FB01F31401B3FBF4F34A
S1130580047814F0E0049BB21D0A15F01F052C43F7
S1130590047043704FF4FA4461431201B1FBF2F169
S11305A09BB2B1EB4311827A12F0E00411F01F0107
S11305B021438172C17851F00C01C17030BC704785
S11305C000A0064018C004401CC0044000B006400F
S11305D010B004400CB0044000C006400CC00440FD
S11305E008C0044000D0064044B0044040B0044079
S11305F000A00E4060D0044064D0044000B00E401F
S113060020D0044024D00440348004402880044096
S1130610002200E0521C4FF6BB339A4206D2037903
S11306209B06F7D5C0790870012006E04FF6BB3071
S1130630824201D3002000E00020704702791206B4
S1130640FCD5C1717047F8B504000D0016000027F1
S113065000E07F1CBFB2B6B2B74208D2BFB279196C
S11306602000FFF7D5FF0028F3D1002000E001208F
S1130670F2BDF8B504000D001600002704E0795D12
S11306802000FFF7DBFF7F1CB6B2B742F7DBF1BDFA
S1130690DFF800F01104FF1F80B55A48006850F4D9
S11306A07850584908600321022000F02FF8564979
S11306B00860554800684FF47A714843534908600C
S11306C05248006852490968C1F30361491CB0FBF0
S11306D0F1F05049086000F003F800F00CF801BD97
S11306E04D48006850F480504B4908604B484FF423
S11306F0E061016070474A48006850F001004849D1
S1130700086048484FF4A0610160704780B50A0052
S1130710C0B2042801D3002072E0D2B2102A01D35F
S113072001206DE0404A00231370404A126852F0E1
S113073080523E4B1A603E4A127852F080023C4B83
S11307401A703C4A982313703B4A1278D206FBD4A1
S1130750394A1278C2F38102D2B2022AF8D1374A56
S113076018231370364A00231370C0B2002805D032
S1130770022819D00DD3032821D02AE00123002216
S113078000210020FFF784FF2D4841210170322110
S11307901FE00323012201210020FFF779FF2848ED
S11307A05A210170642114E0032301220121002055
S11307B0FFF76EFF224858210170602109E00123F0
S11307C0002200210020FFF763FF1D484021017033
S11307D03021194800788006FBD517480078400678
S11307E0FBD51448007810F03F00124A10701248EC
S11307F00078C0F38100C0B20328F8D10800C0B269
S113080002BD0000388004406004FF1F5C04FF1F29
S1130810448004406404FF1F048004401890044092
S1130820408004400CB00440014006403480044041
S113083008C0074000400640064006400440064009
S11308400540064080B500F055F800F005F8FFF7C4
S113085023FF00F06BF801BD80B51C481C49884299
S11308600BD0002006E01949194A52F8202041F81B
S11308702020401CB0F5826FF5D3144800F08EF8A8
S11308801449154A1548801A03E013780B70521C5A
S1130890491C0300581E002BF7D111491148401A76
S11308A002E000220A70491C0200501E002AF8D1FE
S11308B00D490E4A0E48801A03E013780B70521C3F
S11308C0491C0300581E002BF7D101BD0000FF1F77
S11308D00000000000000000000000000000000014
S11308E05C04FF1F6804FF1F1004FF1F800A000040
S11308F0CC0A000080B500F009F80A4800884FF6D9
S1130900FE7108400749088001BD000072B6064820
S11309104CF22051018004484DF62811018062B642
S113092070470000002005400E20054010B582B03D
S113093072B601220D21124800F036F84FF4165217
S1130940104801681048FFF781FD0C220FF23C01AA
S11309500D48FFF78EFE641C0A2C04D30D210848B1
S113096000F028F80024012200A90748FFF76BFED5
S11309700028F0D09DF800100348FFF75FFEEAE777
S113098080F00F406404FF1F00D0064048656C6C83
S11309906F20576F726C64210000000001490860E9
S11309A07047000008ED00E080B51300012200F05C
S11309B005F801BD80B500F04BF801BD70B4050029
S11309C01D4EAD1B08D0403D08D0403D08D0403DF1
S11309D008D0403D08D009E0184C07E0184C05E069
S11309E0184C03E0184C01E0184CFFE74FF48075F5
S11309F044F82150012A15D1426901248C40224334
S1130A004261012B06D10268012313FA01F111435B
S1130A1001600EE00268012313FA01F132EA0101D8
S1130A20016006E04269012313FA01F132EA01018F
S1130A30416170BC7047000000F00F40009004401A
S1130A4000A0044000B0044000C0044000D00440B2
S1130A500268012313FA01F151400160704750F814
S1130A60041B61B150F8042BD30744BFA9F101035F
S1130A709A18002342F8043B091FFAD1EFE77047A4
S1130A8070B4104C24680F4D2D6855F47F050D4E3D
S1130A903560090611F0706151EA0070110511F416
S1130AA070010843190411F47021084306490860D1
S1130AB0002000E0401CC0B29842FBD3014804600F
S1130AC070BC704700F001404480044010B50849F0
S1130AD079441C31074C7C441A34A14206D0081DC9
S1130AE00A68511888470146A142F8D110BD00BFD9
S1130AF0080000001400000067FFFFFF0C00000066
S1130B005C04FF1F0000000000F009F8002801D079
S1130B10FFF7DCFF0020FFF709FF00F002F80120D7
S1130B20704780B500F002B800BF704707463846EA
S1130B3000F002F8FBE7000080B5C046C046024A58
S1130B4011001820ABBEFBE726000200C046C046D9
S10B0B50C046C046FFF7D8FFC0
S9030B4DA4
