:10089A002D2D2D2D2D2D2D2D2D2D2D2D2D2D2D2D7E
:1008AA002D2D2D2D2D2D2D2D2D2D2D2D2D2D2D2D6E
:1008BA002D2D2D2D2D2D2D2D2D2D2D2D0A002D2DAE
:1008CA002D2D2D2D2D2DB9E3D6DDBAE3CCECB5A512
:1008DA00C6ACBBFAC9E4C6B5BFA8B2E2CAD4CAB5A7
:1008EA00D1E92D2D2D2D2D2D2D2D0A002D2D2D2D1E
:1008FA002D2D2D2D2D2D2D2D2D2D2D20202020C7B8
:10090A00EBCBA2BFA821202020202D2D2D2D2D2D6F
:0A091A002D2D2D2D2D2D2D2D0A0061
:04115800024101F45B
:1006D600D284D283D285D287E4F556F557000557E2
:1006E600E55770020556F4455670F2C287E4F55692
:1006F600F557000557E55770020556F4455670F252
:100706007F011210B8EF60047F0180027F008F55D1
:10071600EF60030080EA7D80E4FF12107EE4F55668
:10072600F5577F011210B8EF70047F0180027F0039
:100736008F55EF6006E4FDFF12107E0557E55770F2
:10074600020556C394FFE556940040D67D7F7F068A
:1007560012107E7D7F7F0712107E7D5B7F11121047
:100766007E7D017F1E12107E7D077F2112107EE4A2
:06077600FD7F3102107E40
:100F2000E4FDC284EF30E704D2858002C285EF255C
:100F3000E0FFD284EE25E0FE3083034306010DBDC1
:0A0F400008E0C2840000C285AF067D
:010F4A002284
:04107A007D0F7F2245
:10107E00AE07AC05C284EE25E0FEC28653067FAFF6
:0C108E0006120F20AF04120F20D28622A1
:1010B800C2840000C286EF25E0FF430780120F209C
:0710C800E4FF120F20D286A5
:0110CF0022FE
:100B3D008F227D587F1112107E7D5B7F1112107EEA
:100B4D007D077F0F12107E7F091210B88F555355F8
:100B5D00F7AD557F0912107E7D037F2212107E7B2B
:100B6D00007A00792275681E7F01120DBB8F55E545
:100B7D005570037F0122120D337B007A007922120A
:0E0B8D000F4B8F55E555B401037F00227F0109
:010B9B002237
:080DBB008F648B658A6689676D
:100DC300E4FD7F0112107E120E9AAB65AA66A96735
:100DD300AF64120EC8AD687F0112107EE4FBFA7F88
:100DE300011210B8EF70037F01220BBB00010AEB65
:060DF300F44A70EB7F00E2
:010DF90022D7
:100E9A007F091210B8A907430101AD017F09121099
:100EAA007EE4FBFA7F041210B8A907E970037F01F8
:0D0EBA00220BBB00010AEBF44A70E97F0037
:010EC7002208
:080EC8008F698B6A8A6B896C4B
:100ED000E4F56DE56DC395695019AB6AAA6BA96C11
:100EE000856D82758300120517FD7F0212107E0545
:030EF0006D80E032
:010EF30022DC
:060D33007B007A0079222A
:060D39008B5D8A5E895FFC
:100D3F007F041210B88F60E5607002FF22E560C378
:100D4F0094184003756018E4FCECC3956050177F4E
:100D5F00021210B8AB5DAA5EA95F8C82758300EF9B
:080D6F001205560C80E3AF6091
:010D77002259
:100F4B001204FEFF900001120517FEEF64026012FF
:100F5B00EF6404600DEF64056008EF64536003BF3A
:0A0F6B000306EE70037F01227F00F1
:010F75002259
:100B9C007522937523207D037F2212107E7B007AB1
:100BAC0000792275681E7F02120DBB8F58E55870B4
:100BBC00037F01227F041210B88F58E55870037F11
:100BCC000C22120D33E4FFEFC39558500F74222FF3
:100BDC00F8E6FE74452FF8A6060F80EB1210D08FA6
:0A0BEC0058E55870037F08227F00CF
:010BF60022DC
:1010D000E4FFFE74452EF8E662070EBE05F5EF70DC
:0610E000037F01227F00E6
:0110E60022E7
:100BF700752293752370E4FF74452FF8E6FE74247D
:100C07002FF8A6060FBF05F012107A7B007A00793D
:100C17002275681E7F07120DBB8F58E55870037F3A
:100C27000122120D33852258E55864186011E558E2
:100C37006408600BE55864286005E558B453037FE2
:040C470000227F16F2
:010C4B002286
:100E3700756700756800756958120AD97B007A00D2
:100E470079587568197F0C120DBBEF70037F132259
:100E57007F0A1210B8EF5440FFBF40037F04227F80
:010E6700008A
:010E68002267
:060AD9008B648A6589664A
:100ADF00E4FFFEFDAB64AA65A9668F8275830012E1
:100AEF000517FC540FFEECC4540FFDEEF4FCC45478
:100AFF00F04EFCAB67AA68A96975F002EFA4240158
:100B0F00F582E435F0F583EC120556EDF4FCC45490
:100B1F00F04DFCAB67AA68A96975F002EFA4F582E6
:0D0B2F0085F083EC1205560FBF06A97F006C
:010B3C002296
:060A0C008B588A59895A3B
:100A12007522608D23E4FFAB58AA59A95A8F8275BB
:100A22008300120517FE74242FF8A6060FBF04E7F1
:100A320012107A7B007A00792275680C7F06120DFB
:100A4200BB8F5BE55B70037F04227B007A00792217
:100A5200756814E4FF120DBB8F5BE55B70037F04C6
:100A6200227F091210B8530708BF08037F00227FB4
:010A7200047F
:010A73002260
:080C9D008B558A5689578D58CA
:100CA50012107AAB55AA56A9577430120544AB55A4
:100CB500AA56A957900001E55812055675681E7F7A
:100CC50002120DBBAC07EC70037F01227F041210EA
:100CD500B8AC07BC100CAB55AA56A957120D397FF5
:040CE50000227F0169
:010CE90022E8
:080603008B558A5689578D586A
:10060B007D637F2312107E7D3F7F1212107EE55794
:10061B002410F9E4355685555AF55B895C7D077FC7
:10062B002212107EAB5AAA5BA95C74A0120544ABD4
:10063B005AAA5BA95C900001E55812055675681E15
:10064B007F02120DBB8F59E55970037F01227F0486
:10065B001210B88F59E55970037F0C22AB5AAA5B65
:10066B00A95C120D39AB5AAA5BA95C1204FEF559B1
:10067B0014601524FD600E14601124FB6013240A12
:10068B00700C7F0A227F03227F02227F05227F0FBD
:10069B0022AB55AA56A95775681E7F10120DBB8F3A
:1006AB0059E559B401037F00227F0A1210B88F5904
:1006BB00E55930E1037F0522E55930E2037F14222F
:0A06CB00E55930E3037F02227F0FA0
:0106D5002202
:020DFA00AE0346
:100DFC00AB0BAA0CA90DEF120544AB0BAA0CA90D59
:100E0C00900001ED120556900002EE120556756821
:100E1C00037F03120DBB8F0EAB0BAA0CA90D120D89
:0A0E2C0039E50E60037F01227F000C
:010E36002299
:06077C008F0F8D108B11A0
:10078200E4F515E515C39511503AAF157E00AB128D
:10079200C3E5149FF9E5139EFA7C00E92511F9ECF3
:1007A2003AFA1204FEFDC005E5142511F9EC3513E1
:1007B200FAC3E99FF9EA9EFA900001D0E0120556C9
:1007C200051580BFAB12AA13A914E50F120544AB9D
:1007D20012AA13A914900001E510120556E511247E
:1007E20002FF756801120DBBAC07EC640160037F68
:1007F20000227F051210B8AC07530440BC400AE443
:0B080200FD7F0112107E7F01227F00AD
:01080D0022C8
:101127007F031211488F26E4FF7F07782774FFF6A5
:0311370008DFFCD2
:01113A002292
:081148007E0174042FFFDEFAA2
:01115000227C
:100FEE00758921759850758DFD758BFDE4F58CF521
:100FFE008AD28CD2A9D28ED299D2AFD2ACD29875D7
:03100E0080FF223E
:08109A00C292C2827F647E0055
:1010A200EF1FAA0670011E4A600BE4FDEDC3947D9A
:0510B20050EE0D80F777
:0110B7002216
:100F9F007F93121151AF45120D787F94121151AFFB
:100FAF0046120D787F95121151AF47120D787F962B
:080FBF00121151AF48020D7838
:10092400AB07AA067C277D101205788F407C277DB3
:1009340010AF03AE021205787E037FE8CFCDCFCE91
:10094400CCCE1205788F3F7C037DE8AF03AE021254
:1009540005787E007F64CFCDCFCECCCE1205788FC4
:100964003E7C007D64AF03AE021205787E007F0AF0
:10097400CFCDCFCECCCE1205788F3DAE02AF037C67
:10098400007D0A1205788D3CE53FC454F0F53F25FF
:0F0994003EF53FE53DC454F0F53D253CF53D22D1
:100C4C00120B9C8F55E55560037F0122120BF78F19
:100C5C0055E55560037F0122120A74120F9F121082
:100C6C009AD292D2821211277B007A007927120E27
:100C7C00378F55E55560037F01227B007A0079455B
:100C8C00AD26120A0C8F55E55560037F02227F00BA
:010C9C002235
:10035F00120FEE1210E71211127BFF7A08799A1220
:10036F0000657BFF7A08799A1200657BFF7A08791E
:10037F00C81200657BFF7A0879F61200657BFF7A59
:10038F0008799A1200657BFF7A08799A1200651234
:10039F0006D67F01121151120F76E4F54E12109E00
:1003AF00E54E700E1210117F26120B3D8F52E55243
:1003BF006042E54EB4010E1210347F26120B3D8FB2
:1003CF0052E552602FE54EB4020E1210577F2612DF
:1003DF000B3D8F52E552601CE54EB4030E1210FD1B
:1003EF007F26120B3D8F52E5526009054EE54EC335
:1003FF00940440A9E55270A2120C4C8F52E5526042
:10040F00156402708A120EF47F26120B3D8F52E58F
:10041F005260F502039E7F011211488F4D7B007AC7
:10042F00007922AD4D120C9D8F52E55260030203ED
:10043F009E852443852544753A0085433BE53B75EE
:10044F003B00F53AE544253BF53BE4353AF53AC335
:10045F00E53B9542F53BE53A9541F53AF54A853B43
:10046F004B853B25753B00F53B753A00853B247F5B
:10047F00011211488F4D7B007A007922AD4D120683
:10048F00038F52E552600302039EAF42AE41120941
:10049F002475588D75598F85405A853F5B853D5C16
:1004AF007B8E7D8C7F8B120CEAAF4BAE4A120924E8
:1004BF0075589D75599F85405A853F5B853D5C7B7F
:1004CF009E7D9C7F9B120CEA12109AD292D28212BE
:1004DF00109E12109AD292D2827F26120B3D8F520B
:0F04EF00E55260F57F01121151120F760203A939
:1009A300D0A3D4B0D2BBBFA8CDA8D1D0B7A200BF2B
:1009B300A8BAC53A00CFFBB7D13A00D3E0B6EE3AB6
:1009C300002E00D4AA002800290020202020202067
:1009D3002020202020202020202000B9E3D6DDBACB
:1009E300E3CCECBBB6D3ADC4FA00C7EBCBA2BFA834
:1009F30000C3DCC2EBB4ED2100C7EBBDD3C9E4C631
:090A0300B5BFA8C4A3BFE921009E
:100E6900C296D2978FA07F057E00120E7CC2977F13
:030E7900057E00F3
:100E7C00D3EF9400EE940040147D6E7C00ED1D7059
:0D0E8C00011CED4C70F7EF1F70E61E80E3B7
:010E99002236
:07115100C297C295020E696E
:06113B00EB9009C893FFD0
:07114100C297D295020E696E
:1010E700D2947F011211517F301211517F0C1211CE
:0610F700517F06021151B9
:100A74007F811211517B01EB9009A293FF12114166
:100A84000BBB0FF37F901211517B01EB9009B193D3
:100A9400FF1211410BBB06F37F881211517B01EB4E
:100AA4009009B793FF1211410BBB06F37F98121103
:100AB400517B01EB9009CC93FF1211410BBB11F355
:100AC4007F981211517B01EB9009BD93FF121141E4
:040AD4000BBB06F35F
:010AD80022FB
:020D7800AB07C7
:100D7A00EB54F0FFC4540FFAD39409400FEA75F00C
:100D8A000984E5F02440FF1211418007EA2430FF6C
:100D9A00121141EB540FFAD39409400DEA75F00988
:100DAA0084E5F02440FF021141EA2430FF12114188
:010DBA002216
:040CEA008B57A90576
:100CEE00121151AF5A120D78AF01121151AF5B12A2
:100CFE000D78AF581211517901E99009C393FF1283
:100D0E00114109B902F3AF57121151AF5C120D78B0
:100D1E00AF591211517901E99009C593FF12114192
:040D2E0009B903F309
:010D3200229E
:101011007F9B1211517B0112113B0BBB02F97F9C8B
:101021001211517B01EB9009CA93FF1211410BBBC5
:0210310002F3C8
:01103300229A
:101034007F9A1211517B0112113B0BBB02F97F9D68
:101044001211517B01EB9009CA93FF1211410BBBA2
:0210540002F3A5
:011056002277
:101057007F991211517B0112113B0BBB02F97F9E45
:101067001211517B01EB9009CA93FF1211410BBB7F
:0210770002F382
:011079002254
:1010FD007F981211517B01EB9009CC93FF12114196
:04110D000BBB11F314
:0111110022BB
:100F76007F811211517B01EB9009DD93FF12114124
:100F86000BBB0FF37F931211517B01EB9009EC938E
:080F9600FF1211410BBB07F330
:010F9E002230
:100EF4007F881211517A01EA9009CC93FF121141B3
:100F04000ABA11F31210FD7F9A1211517A01EA9074
:0B0F140009F393FF1211410ABA08F321
:010F1F0022AF
:101112007F801211517B01EB9009FB93FF12114169
:041122000BBB10F300
:0111260022A6
:0300000002080EE5
:0C080E00787FE4F6D8FD75816D02085576
:1004FE00BB010689828A83E0225002E722BBFE02FC
:09050E00E32289828A83E493222E
:10051700BB010CE58229F582E5833AF583E0225099
:1005270006E92582F8E622BBFE06E92582F8E222E3
:0D053700E58229F582E5833AF583E49322FD
:10054400BB010689828A83F0225002F722BBFE0196
:02055400F32290
:10055600F8BB010DE58229F582E5833AF583E8F0DB
:10056600225006E92582C8F622BBFE05E92582C887
:02057600F2226F
:10057800BC000BBE0029EF8DF084FFADF022E4CC67
:10058800F875F008EF2FFFEE33FEEC33FCEE9DEC30
:10059800984005FCEE9DFE0FD5F0E9E4CEFD22ED76
:1005A800F8F5F0EE8420D21CFEADF075F008EF2FC0
:1005B800FFED33FD4007985006D5F0F222C398FDB1
:0505C8000FD5F0EA224E
:10000300E5642458F8E605642278553007027858E9
:10001300E475F0011205CD0204FE2000EB7F2ED221
:10002300008018EF540F2490D43440D4FF30040BD5
:10003300EF24BFB41A0050032461FFE56560021585
:10004300650568E5687002056730070D7855E47546
:10005300F0011205CDEF020544020FC77403D20766
:100063008003E4C207F5648B558A568957E4F56526
:10007300F567F568E56560077F2012003E80F5753A
:1000830066FFC201C200C202C203C205C206C208A1
:1000930012000CFF700D3007057F0012004FAF6890
:1000A300AE6722B4255FC2D5C20412000CFF24D070
:1000B300B40A00501A75F00A786530D50508B6FF02
:1000C3000106C6A426F620D5047002D20380D924E3
:1000D300CFB41A00EF5004C2E5D20402024FD2019A
:1000E30080C6D20080C0D20280BCD2D580BAD205ED
:1000F30080B47F2012003E2002077401B5650040E2
:10010300F1120003FF12003E020077D208D20680EC
:1001130095120003FB120003FA120003F94A4B7015
:100123000679207A037BFF20022EE565602A7E0094
:100133008E8275830012051760060EEE656670F0F9
:10014300C2D5EBC0E0EAC0E0E9C0E0EE120296D00F
:10015300E0F9D0E0FAD0E0FB1204FEFF60AAEBC0A6
:10016300E0EAC0E0E9C0E012003ED0E02401F9D0AB
:10017300E03400FAD0E0FBE5660460DCD566D980A4
:10018300877BFF7A027992D202809C791080027970
:1001930008C206C2088008D2D5790A8004790AC247
:1001A300D5E566047002F566E4FAFDFEFF1200036E
:1001B300FC7B08200113120003FD7B1030000A12A0
:1001C3000003FE120003FF7B20EC3382D592D5504F
:1001D30013C3E43000069FFFE49EFEE42001039D69
:1001E300FDE49CFCE4CBF8C201EC700CCFCECDCC8B
:1001F300E824F8F870F38017C3EF33FFEE33FEED16
:1002030033FDEC33FCEB33FB994002FB0FD8E9EBF6
:10021300300105F8D0E0C448B201C0E00AEC4D4E0D
:100223004F78207B0070C2EAB5660040BCC0E01284
:100233000298D0F0D0E0200104C4C0E0C4B201C0F1
:10024300F0120027D0F0D5F0EB0200771205DD01A4
:100253001453018E5800E54C00E14201924F019A7C
:1002630044019A4900FA4301A0550184460184459B
:1002730001844703405000E92D00ED2E01102B00AF
:10028300F123010E20032E2A00A948000001083F94
:100293003F3F00790AA2D5200314300509B91002A3
:1002A3000404B9080104A2D5200602500104200267
:0502B300689202B56530
:1002B800005034C0E07F203003197F30A20272065C
:1002C8007205500F1202EFC202C206C205C2087FB1
:1002D80030800F300503E9C0E012003E300503D03E
:1002E800E0F9D0E0B565CC3005177F30B9100C12B5
:1002F800003E7F583004077F788003B90803120056
:100308003E3002057F2D02003E7F202008F87F2B1B
:100318002006F322920280CF286E756C6C29002D7E
:1003280050434958D2011200033001F8C2017865E0
:1003380030D50108F60200A91200032403B4050011
:100348004001E49003279312002F743A12002FD231
:070358000375650402018E2C
:10081A0002035FE493A3F8E493A34003F68001F292
:10082A0008DFF48029E493A3F85407240CC8C333DF
:10083A00C4540F4420C8834004F456800146F6DFAE
:10084A00E4800B0102040810204080901158E47ED5
:10085A00019360BCA3FF543F30E509541FFEE493A3
:10086A00A360010ECF54C025E060A840B8E493A36A
:10087A00FAE493A3F8E493A3C8C582C8CAC583CA95
:10088A00F0A3C8C582C8CAC583CADFE9DEE780BE4D
:01115C000092
:1005CD00FAE6FB0808E6F925F0F618E6CA3AF6222F
:1005DD00D083D082F8E4937012740193700DA3A3AD
:1005ED0093F8740193F5828883E4737402936860C1
:0605FD00EFA3A3A380DFC1
:100FC700EFB40A07740D120FD2740A309811A8995A
:100FD700B8130CC2983098FDA899C298B811F6308A
:070FE70099FDC299F5992262
:00000001FF
