:020000040800F2
:100000000004002057240008491300084B1300087F
:100010004F13000853130008571300080000000096
:100020000000000000000000000000005B1300085A
:100030005D130008000000005F1300086113000852
:10004000C3070008772400087724000877240008F5
:100050007724000877240008772400087724000814
:100060007724000877240008772400087724000804
:1000700077240008772400087724000877240008F4
:1000800077240008772400087724000877240008E4
:1000900077240008772400087724000877240008D4
:1000A00077240008772400087724000877240008C4
:1000B00077240008772400087724000877240008B4
:1000C00077240008772400087724000877240008A4
:1000D0007724000877240008772400087724000894
:1000E0007724000877240008772400087724000884
:1000F0007724000877240008772400087724000874
:100100007724000877240008772400087724000863
:100110007724000877240008772400087724000853
:100120007724000877240008772400087724000843
:1001300000F002F800F03CF80AA090E8000C8244BD
:100140008344AAF10107DA4501D100F031F8AFF29A
:10015000090EBAE80F0013F0010F18BFFB1A43F0A5
:1001600001031847E437000004380000103A24BFA8
:1001700078C878C1FAD8520724BF30C830C144BF0C
:1001800004680C607047000000230024002500264E
:10019000103A28BF78C1FBD8520728BF30C148BFEA
:1001A0000B6070471FB5AFF300801FBD10B510BDC9
:1001B00002F08EF91146FFF7F5FF01F09FF802F00B
:1001C000ACF9FFF7F3FF02F0AFF90000FB4990FB39
:1001D000F1F13031FA4A1170F84990FBF1F201FB6C
:1001E000120042F2107190FBF1F13031F54A1170BA
:1001F00042F2107190FBF1F201FB12004FF47A71A0
:1002000090FBF1F13031F04A11704FF47A7190FBAC
:10021000F1F201FB1200642190FBF1F13031EB4A65
:100220001170642190FBF1F201FB12000A2190FB96
:10023000F1F13031E64A11700A2190FBF1F201FB35
:10024000120000F13001E34A1170704708B54020F8
:10025000ADF8000003208DF8020014208DF8030093
:100260006946DD4801F02AFD8020ADF8000003203A
:100270008DF8020014208DF803006946D64801F07D
:100280001DFD08BD1E2001E0411EC8B20028FBD1A3
:10029000704741F2883000E0401E0028FCD17047D2
:1002A00000B58020CC49103108604020CB49C1F80E
:1002B000100CFFF7E7FFC8480830006808B90120B4
:1002C00000E0002010F0800F01D0002000BD802051
:1002D000C14914310860FFF7D5FFC048D0F8080CB9
:1002E00010F0800F01D00020F0E78020BA491431CF
:1002F0000860FFF7C7FF0120E8E700B54020B649D6
:1003000014310860FFF7BEFF8020B449C1F8140C17
:10031000FFF7B8FF4020B04910310860FFF7B2FF87
:100320008020AE49C1F8100CFFF7ACFF00BD00B54E
:100330004020A94914310860FFF7A4FF8020A74995
:10034000C1F8140CFFF79EFF4020A349103108604C
:10035000FFF798FF4020A149C1F8140CFFF792FF66
:1003600000BD00B540209C4914310860FFF78AFFAA
:1003700080209A49C1F8100CFFF784FF402096496D
:1003800010310860FFF77EFF40209449C1F8140C3B
:10039000FFF778FF00BD00B540208F491431086099
:1003A000FFF770FF80208D49C1F8100CFFF76AFF3E
:1003B0004020894910310860FFF764FF8748D0F872
:1003C000080C10F0800F07D04020834914310860DA
:1003D000FFF758FF002000BD40207F49143108601E
:1003E000FFF750FF0120F6E700B5034608221BE0A7
:1003F0004020794914310860FFF744FF13F0800F63
:1004000004D0802074491031086003E080207249D4
:10041000143108605806030EFFF734FF40206E4980
:1004200010310860FFF72EFF1000A2F10101CAB2DF
:10043000DED1402068491431086000BD00B50822B3
:100440000023802064491031086015E05806030E2F
:100450004020614914310860FFF714FF40205F49D4
:10046000C1F8100CFFF70EFF5B480830006810F071
:10047000800F01D043F001031000A2F10101CAB2C4
:10048000E4D14020544914310860184600BD70B5CD
:1004900004460D461646FFF703FF08B9002070BD5D
:1004A0002046FFF7A1FFFFF776FF18B9FFF725FFFA
:1004B0000020F4E72846FFF797FFFFF76CFF304670
:1004C000FFF792FFFFF767FFFFF717FFFFF7E1FE68
:1004D0000120E4E770B504460D46FFF7E1FE08B9D8
:1004E000002070BD2046FFF77FFFFFF754FF30B9B3
:1004F000FFF703FF01203A4908700020F1E7284682
:10050000FFF772FFFFF747FFFFF7CAFE601CC0B29C
:10051000FFF76AFFFFF73FFFFFF790FF0646FFF781
:1005200020FFFFF7EAFE3046DBE710B500F01AFFC8
:100530004FF4803000F036FF00F073FF2949087057
:1005400008460078012826D1002000F0A9FF0020ED
:1005500000F0B6FF4FF4806000F0AAFF022001F027
:10056000E1FC102001F0F1FC4FF4E0114FF4803079
:1005700000F07BFF012000F083FF00BF392000F076
:1005800034FF0028FAD0022000F07DFF00BF00F009
:1005900082FF0828FBD101210C2001F049F801213C
:1005A000302001F045F80121C02001F041F801217F
:1005B00040F2011001F03CF810BD0000A0860100DF
:1005C00021000020200000201F0000201E0000202D
:1005D0001D0000201C000020000C01400000014014
:1005E000000000200600002008B501213C2001F099
:1005F0001FF84FF40070ADF8000018208DF80300CC
:1006000003208DF802006946FF4801F057FB4FF4C4
:100610008060ADF8000004208DF803006946FA48B8
:1006200001F04CFB0420ADF8000018208DF8030009
:1006300003208DF802006946F34801F03FFB0820D3
:10064000ADF8000004208DF803006946EE4801F083
:1006500035FB4FF48060ADF8000018208DF80300E2
:1006600003208DF802006946E84801F027FB4FF4AB
:100670000060ADF8000004208DF803006946E348EF
:1006800001F01CFB4FF48060ADF8000018208DF8DD
:10069000030003208DF802006946DD4801F00EFBDF
:1006A0004FF40060ADF8000004208DF803006946A7
:1006B000D74801F003FB4FF48050ADF8000018203C
:1006C0008DF8030003208DF802006946D04801F040
:1006D000F5FA0420ADF800008DF803006946CD4816
:1006E00001F0ECFA08BD00B587B001214FF490404D
:1006F00000F09EFF0020ADF80400ADF806004FF4B6
:100700000070ADF808000020ADF80A0001A9C24849
:1007100001F08DF84FF4E13003900020ADF81000A7
:10072000ADF81200ADF81400ADF818000C20ADF8CB
:10073000160003A9B84801F020F840F22551B64848
:1007400001F05EF9012240F22551B34801F091F821
:100750000121B14801F081F807B000BD08B54FF4A0
:10076000E06001F0DBF900208DF800008DF8010059
:10077000684601F0D8F908BD10B50121C80200F0A3
:1007800064FF4FF4C07001F092F9412001F099F933
:10079000502001F0ACF901F0B5F901F09EF910BD5F
:1007A00000E0401E0028FCD1704707E0002100E077
:1007B000491C4CF250329142FAD3401E0028F5D128
:1007C000704710B5502001F08CF901F09BF910BD75
:1007D00010B504462146904801F0AEF80120FFF71D
:1007E000E4FF10BD10B52E22F421EE20FFF74FFEDE
:1007F0000520FFF7DAFFF621EE20FFF76BFE044637
:10080000F721EE20FFF766FE40EA042004B22046FE
:1008100010BD10B500243422F421EE20FFF737FE7E
:100820000520FFF7C2FFF621EE20FFF753FE044636
:10083000F721EE20FFF74EFE40EA042400BF2046D9
:1008400010BD7FB50446B4F5004F02DBA4F57F442C
:10085000FF3C002C08DA64422D216F4801F06CF84F
:100860000220FFF7A2FF06E02B216B4801F064F89D
:100870000220FFF79AFF204602F03EFF064602F0F4
:10088000D5FECDE9020165A00CC8029802F000FC7B
:10089000CDE9000102F074F80546284602F0F4FEA6
:1008A0000646FFF793FC5F480078FFF791FF2E2084
:1008B000FFF78EFF5C480078FFF78AFF5B480078FF
:1008C000FFF786FF5A480078FFF782FF6720FFF79F
:1008D0007FFF04B070BD7FB50446002C09DA60428A
:1008E00004B22D214C4801F027F80220FFF75DFFEC
:1008F00006E02B21484801F01FF80220FFF755FFC2
:10090000204602F0F9FE064602F090FECDE9020113
:1009100048A00CC8029802F0BBFBCDE9000102F030
:100920002FF80546284602F0AFFE0646FFF74EFCBC
:100930003D480078FFF74CFF3C480078FFF748FF40
:100940003B480078FFF744FF04B070BD10B5482065
:10095000FFF73EFF4D20FFF73BFF4320FFF738FF37
:100960003520FFF735FF3820FFF732FF3820FFF73B
:100970002FFF3320FFF72CFF4C20FFF729FF3A20F1
:10098000FFF726FF2D48006802F07EFE0446FFF7C1
:100990001DFC25480078FFF71BFF24480078FFF76F
:1009A00017FF23480078FFF713FF6020FFF710FFC1
:1009B0000D20FFF70DFF0A20FFF70AFF10BD10B54D
:1009C0004220FFF705FF4D20FFF702FF5020FFF701
:1009D000FFFE3020FFF7FCFE3820FFF7F9FE352040
:1009E000FFF7F6FE3A20FFF7F3FE7420FFF7F0FE64
:1009F0003D20FFF7EDFE12480068FFF7E7FB0A48CD
:100A00000078FFF7E5FE1DE000080140000C014002
:100A100000100140001401400038014033333333EB
:100A200033330F401F0000201E0000201D00002057
:100A30001C000020EC51B81E85EBB13F18000020CF
:100A400068000020FF480078FFF7C2FE2E20FFF765
:100A5000BFFEFD480078FFF7BBFE6020FFF7B8FE41
:100A60004320FFF7B5FE2020FFF7B2FE7020FFF70E
:100A7000AFFE3D20FFF7ACFEF4480068FFF7A6FB91
:100A8000F3480078FFF7A4FEF2480078FFF7A0FED5
:100A9000F1480078FFF79CFE2E20FFF799FEEF4803
:100AA0000078FFF795FEE7480078FFF791FEE648EB
:100AB0000078FFF78DFE4B20FFF78AFE7020FFF7CE
:100AC00087FE6120FFF784FE0D20FFF781FE0A20DC
:100AD000FFF77EFE10BD10B58CB0E148006800B293
:100AE000E0490880E048006800B24880DF480068BC
:100AF00000B28880B1F9000002F0FEFD044602F069
:100B000095FDCDE90A01AFF2EC000CC80A9802F09D
:100B1000BFFACDE9080101F033FFD5490860D1499A
:100B2000B1F9020002F0E8FD044602F07FFDCDE9D4
:100B30000A01AFF218100CC80A9802F0A9FACDE920
:100B4000080101F01DFFCB490860C649B1F9040056
:100B500002F0D2FD044602F069FDCDE90A01AFF2D0
:100B600044100CC80A9802F093FACDE9080101F08C
:100B700007FFC1490860BE48006880F00040BC49DA
:100B800008600846006802F051FDCDE90A01BA4844
:100B9000006802F04BFDCDE90801DDE90A2301F010
:100BA00033FECDE90601B5A00CC8069802F070FA34
:100BB000CDE90401B3A00CC8049802F053F8CDE9C4
:100BC0000201AEA00CC8029801F024FFCDE900019B
:100BD00001F0D6FEAD490860A648006802F026FD87
:100BE000CDE90A01A448006802F020FDCDE9080122
:100BF000DDE90A2301F008FECDE906019FA00CC83B
:100C0000069802F045FACDE904019EA00CC80498AC
:100C100002F028F8CDE9020198A00CC8029801F072
:100C2000F9FECDE9000101F0ABFE99490860974853
:100C3000006802F029FD0446FFF7C8FA2020FFF7FC
:100C4000C7FD2020FFF7C4FD84480078FFF7C0FDF2
:100C50007C480078FFF7BCFD7B480078FFF7B8FDC3
:100C60000CB010BD10B54120FFF7B2FD4420FFF7D6
:100C7000AFFD5820FFF7ACFD4C20FFF7A9FD332056
:100C8000FFF7A6FD3420FFF7A3FD3520FFF7A0FDF9
:100C90003A20FFF79DFD5820FFF79AFD3D20FFF712
:100CA00097FD6F480068FFF7CCFD5920FFF790FDD6
:100CB0003D20FFF78DFD6C480068FFF7C2FD5A200C
:100CC000FFF786FD3D20FFF783FD68480068FFF7CA
:100CD000B8FDFFF700FF0D20FFF77AFD0A20FFF7B0
:100CE00077FD10BD10B54C20FFF772FD3320FFF7E4
:100CF0006FFD4720FFF76CFD3420FFF769FD3220C0
:100D0000FFF766FD3020FFF763FD3020FFF760FD41
:100D10004420FFF75DFD3A20FFF75AFD5820FFF70A
:100D200057FD3D20FFF754FD5A48B0F90000FFF78A
:100D3000D2FD5920FFF74CFD3D20FFF749FD5648F5
:100D4000B0F90000FFF7C7FD5A20FFF741FD3D2035
:100D5000FFF73EFD5148B0F90000FFF7BCFD0D2044
:100D6000FFF736FD0A20FFF733FD10BD00B58BB04D
:100D7000142200213C20FFF78AFB002202213C20A4
:100D8000FFF785FB0A20FFF710FD03213C20FFF74A
:100D9000A1FB4349487004213C20FFF79BFB4049DD
:100DA000887007213C20FFF795FB3D49C87008215A
:100DB0003C20FFF78FFB3A49087108468078497854
:100DC00040EA012037490860354800793449C9783C
:100DD00040EA01203449086032480068B0F5004F0D
:100DE00006DB30480068A0F57F40FF382D490860D9
:100DF0002D480068B0F5004F06DB2B480068A0F5D1
:100E00007F40FF38284908602648006802F02AF928
:100E1000CDE908012448006802F024F9CDE9060173
:100E2000DDE9082301F0F0FCCDE904011FA00CC8A6
:100E3000049802F02DF9CDE9020110A00CC8029827
:100E400038E000001D0000201C0000206C00002085
:100E500021000020200000201F0000201E00002094
:100E60002400002036000020280000202C00002054
:100E700044000020480000204C000020000000003A
:100E800000806640F1D4C853FB2109403C0000209B
:100E900040000020300000203200002034000020FC
:100EA000070000201000002014000020775AF01ADC
:100EB000DCA54C4001F0AEFDCDE9000101F060FD84
:100EC000F84908600BB000BD00B53221A620FFF73D
:100ED00001FBF54908703321A620FFF7FBFAF24920
:100EE00048703421A620FFF7F5FAEF4988703521C4
:100EF000A620FFF7EFFAEC49C8703621A620FFF7CD
:100F0000E9FAE94908713721A620FFF7E3FAE64933
:100F1000487108460078497800EB0120E3490860F1
:100F2000E1488078E049C97800EB0120E049086099
:100F3000DD480079DC49497900EB0120DD49086092
:100F400000BD2DE9FE4FFFF74DFC0446FFF761FCA5
:100F50000546D9480088201AD84909884843C6134D
:100F6000D748B0F90000C002D649B1F900103144A9
:100F700090FBF1F706EB070808F108000011D249D1
:100F80000860A8F57A6909FB09F00013CF49B1F9A7
:100F900000104843C612CE48B0F9000000FB09F02B
:100FA000C712F0190290CB49B1F90010029A02EB76
:100FB0008101881CC11700EB917189100191C6480D
:100FC000B0F9000000FB09F0461309FB09F000131B
:100FD000C249B1F9001048430714F019801C801071
:100FE0000290BF480188029800F5004041434FEA53
:100FF000D13B0198281A4CF2503148430090009898
:10100000B0F1004F04D200984000B0FBFBFA04E0BE
:101010000098B0FBFBF04FEA400A4FEA2A2000FBA1
:1010200000F640F6DE3070430614AE480AFB00F0CE
:101030000714F01900F6CF600AEB2010AA490860E7
:10104000BDE8FE8F00B50B223121A620FFF71FFA65
:1010500008222D21A620FFF71AFA80222E21A62091
:10106000FFF715FA00BD00B5AA21EE20FFF732FA0E
:1010700098490880AB21EE20FFF72CFA95490988A2
:1010800040EA012000B293490880AC21EE20FFF72E
:1010900021FA8F490880AD21EE20FFF71BFA8C4919
:1010A000098840EA012000B289490880AE21EE207B
:1010B000FFF710FA88490880AF21EE20FFF70AFAFF
:1010C0008549098840EA012000B283490880B0219F
:1010D000EE20FFF7FFF982490880B121EE20FFF7EB
:1010E000F9F97F49098840EA01207D490880B22149
:1010F000EE20FFF7EFF971490880B321EE20FFF7EA
:10110000E9F96E49098840EA01206C490880B42158
:10111000EE20FFF7DFF968490880B521EE20FFF7E0
:10112000D9F96549098840EA012063490880B62158
:10113000EE20FFF7CFF969490880B721EE20FFF7CD
:10114000C9F96649098840EA012000B2634908806C
:10115000B821EE20FFF7BEF95C490880B921EE20E6
:10116000FFF7B8F95949098840EA012000B2574908
:101170000880BA21EE20FFF7ADF95C490880BB2159
:10118000EE20FFF7A7F95949098840EA012000B28B
:1011900056490880BC21EE20FFF79CF94849088099
:1011A000BD21EE20FFF796F94549098840EA012064
:1011B00000B243490880BE21EE20FFF78BF9414978
:1011C0000880BF21EE20FFF785F93E49098840EAF3
:1011D000012000B23B49088000BD00B51422002167
:1011E0003C20FFF754F9002202213C20FFF74FF981
:1011F00000BD00B50F222021D220FFF748F90022C0
:101200002121D220FFF743F908222221D220FFF723
:101210003EF930222321D220FFF739F90022242180
:10122000D220FFF734F900BD00B52821D220FFF706
:1012300051F91D4908702921D220FFF74BF91A49AD
:10124000487008460078497840EA012000B22849F1
:1012500008802A21D220FFF73DF9134988702B21FD
:10126000D220FFF737F91049C87008468078C9784E
:1012700040EA012000B21F4908802C21D220FFF74C
:1012800029F9094908712D21D220FFF723F90649D0
:10129000487108460079497940EA012000B21649B0
:1012A000088000BD18000020070000202400002056
:1012B000280000202C0000205A00002058000020A8
:1012C0006200002064000020680000205E00002012
:1012D0005200002050000020540000205C0000203C
:1012E0005600002043E3FFFF6C0000206000002058
:1012F00030000020320000203400002010B5FFF73D
:1013000014F9FFF771F9FFF7EEF9FEF79FFFFFF70A
:1013100064FFFFF797FEFFF7A6FEFFF76AFF12E0F4
:10132000FFF724FDFFF712FBFFF7CEFDFFF79AFC56
:10133000FFF77AFFFFF7D6FCFFF703FEFFF73FFB4F
:101340001420FFF732FAEBE7704700BFFEE700BF5B
:10135000FEE700BFFEE700BFFEE77047704770473B
:1013600070470000DB48006840F00100D949086080
:1013700008464068D8490840D64948600846006891
:10138000D6490840D34908600846006820F4802008
:1013900008600846406820F4FE0048604FF41F00D3
:1013A00088607047CB49096821F48031C94A1160CF
:1013B0001146096821F480211160B0F5803F03D007
:1013C000B0F5802F0ED106E0C249096841F48031A2
:1013D000C04A116007E0BF49096841F4A021BD4A35
:1013E000116000E000BF00BF704710B50146002249
:1013F000002300204A11012A02D1B64C236806E0DE
:10140000022A02D1B34C236A01E0B24C636A01F0B4
:101410001F02012494401C4201D0012000E0002062
:1014200010BD70B500240025002600BF3120FFF755
:10143000DCFF0646641CB4F5A06F01D0002EF5D089
:101440003120FFF7D2FF08B1012500E00025284632
:1014500070BD00219F4A116821F0F80141EAC001E6
:10146000116070479E49086070470022994B5A6886
:1014700022F47C1240EA01031A43964B5A607047EB
:101480009749086670470021924A516821F003018C
:101490000143516070478F48406800F00C0070476E
:1014A00000218C4A516821F0F001014351607047DE
:1014B0000021884A516821F4E0610143516070477E
:1014C0000021844A516821F4605141EAC001516011
:1014D000704729B17F4A527A02437E4B5A7206E026
:1014E0007C4A527AC343DBB21A407A4B5A72704735
:1014F0007B49D831086070470021764A516821F451
:1015000040410143516070470021724A20321170FE
:10151000704A82F82010012802D004280AD104E081
:1015200001216C4A2032117005E00521694A203200
:10153000117000E000BF00BF70476A490860704743
:101540006449096A0143634A116270476549443935
:101550000860704730B500210022002300245D4D53
:101560006D6805F00C0121B1042905D0082923D1AB
:1015700005E05D4D056022E05B4D05601FE0554DC7
:101580006D6805F47012534D6D6805F480330225C3
:1015900005EB92421BB9554D554305600BE04D4D8F
:1015A0006D6815F4003F03D0504D5543056002E0CF
:1015B0004D4D5543056002E04B4D056000BF00BF37
:1015C000444D6D6805F0F0010909494D6C5C0568F2
:1015D000E54045603F4D6D6805F4E061090A444D02
:1015E0006C5C4568E54085603A4D6D6805F4605176
:1015F000C90A3F4D6C5C4568E540C560354D6D6876
:1016000005F44041890B3A4D10356C5CC568B5FB5B
:10161000F4F5056130BD29B12E4A526902432D4BC4
:101620005A6104E02B4A526982432A4B5A6170473F
:1016300029B1284A92690243264B9A6104E0254A5F
:1016400092698243234B9A61704729B1214AD2693A
:101650000243204BDA6104E01E4AD26982431D4BEB
:10166000DA61704729B11B4AD2680243194BDA602C
:1016700004E0184AD2688243164BDA60704729B1F9
:10168000144A12690243134B1A6104E0114A1269A9
:101690008243104B1A617047124940390860704705
:1016A0000F49C86470470B49C87170470948406AC0
:1016B00040F0807007494862704701460020054AA3
:1016C00092680A4201D0012000E0002070470149E1
:1016D00088727047001002400000FFF8FFFFF6FE1E
:1016E000000042428004424200127A0000093D009C
:1016F0007000002010B50446E248844209D101215F
:101700008803FFF7AFFF00214FF48040FFF7AAFFE7
:1017100032E0DD48844209D101214804FFF7AFFFE0
:1017200000214FF40030FFF7AAFF25E0D74884429C
:1017300009D101218804FFF7A2FF00214FF4802086
:10174000FFF79DFF18E0D248844209D10121C80467
:10175000FFF795FF00214FF40020FFF790FF0BE00B
:10176000CC48844208D101210805FFF788FF0021F9
:101770004FF48010FFF783FF10BD2DE9F04786B0CE
:1017800004460D460026002700BF00BFB246A889C8
:1017900000B100BFA246268A4CF6FF700640E888DA
:1017A00006432682A6894EF6F3100640A8882989AA
:1017B0000843698908430643A681A68A4FF6FF407D
:1017C0000640A8890643A68201A8FFF7C3FE544637
:1017D000AC48824501D1049F00E0039F07EBC7009E
:1017E00000EB071029688900B0FBF1F86420B8FB12
:1017F000F0F006013009642101FB1089322101EB70
:1018000009106421B0FBF1F000F00F0006432681BF
:1018100006B0BDE8F0874FF41651016000218180C9
:10182000C18001810C21418100218181704710B567
:101830000022028A4FF2FF031A400B884C88234390
:101840008C882343CC8823431A43028210BD002195
:10185000018041808180C180704721B1828942F43A
:101860000052828104E082894DF6FF731A40828122
:101870007047F0B50024002500260023A1F510676D
:101880006A3F00D100BF0346C1F3421401F01F05B7
:10189000012707FA05F6012C01D10C3304E0022CD4
:1018A00001D1103300E014331AB11F6837431F60B1
:1018B00002E01F68B7431F60F0BD10B51AB1838AFC
:1018C0000B43838204E0838ACC43A4B22340838207
:1018D00010BD028A4FF6F0731A400282028A0A4350
:1018E0000282704782894FF2FF731A408281828997
:1018F0000A438281704721B1828942F002028281CB
:1019000004E082894FF6FD731A4082817047028A93
:101910004FF6DF731A400282028A0A43028270473E
:1019200021B1028A42F48042028204E0028A4BF62C
:10193000FF731A4002827047C1F308028280704729
:1019400001468888C0F308007047818941F0010191
:1019500081817047028BD2B20283028B42EA01225C
:1019600002837047028B02F47F420283028B0A4398
:101970000283704721B1828A42F02002828204E011
:10198000828A4FF6DF731A408282704721B1828AC1
:1019900042F01002828204E0828A4FF6EF731A400E
:1019A0008282704721B1828A42F00802828204E07A
:1019B000828A4FF6F7731A4082827047828A4FF606
:1019C000FB731A408282828A0A438282704721B165
:1019D000828A42F00202828204E0828A4FF6FD731C
:1019E0001A408282704702460020B1F5007F00D184
:1019F00000BF13880B4201D0012000E00020704797
:101A000001F40072B2F5007F00D100BFCA4302802A
:101A1000704770B502460023002400250020A1F580
:101A200010666A3E00D100BFC1F3421501F01F04E9
:101A3000012606FA04F4012D02D19689344006E00D
:101A4000022D02D1168A344001E0968A34400B12EE
:101A5000012606FA03F31688334014B10BB10120B6
:101A600000E0002070BD10B500220023A1F5106435
:101A70006A3C00D100BF0A1201249440A3B2DC43A7
:101A8000048010BD00380140004400400048004080
:101A9000004C00400050004010B50121C802FFF783
:101AA000EEFD00214FF40060FFF7E9FD10BD0021BD
:101AB000174A126822F4C0710143164AC2F8041C86
:101AC00070470021124A126822F07F0100F07F0265
:101AD0001143104AC2F8041C704701200E490860E7
:101AE000704700F07F010A4A121F1160704740F0F2
:101AF0008001074A121F116070470548001D0068E9
:101B0000C0B2704700200249091D086070470000FC
:101B1000042C004000200040A480054232490143CB
:101B2000324A1160704770B5002100230F22C4783B
:101B30000CB32E4C246804F4E064C4F5E064210A7C
:101B4000C1F10403CA40447804FA03F184781440D4
:101B500021430901264C0678A155047804F01F059D
:101B60000124AC4005786D114FF0E02606EB8505A9
:101B7000C5F8004109E0047804F01F040125A540E0
:101B80001C4C0678761144F8265070BD1A4A0A405B
:101B90000243164B1B1F1A60704741B1134A121DB6
:101BA000126802434FF0E023C3F8102D07E00F4AFC
:101BB000121D126882434FF0E023C3F8102D7047C6
:101BC000042808D14FF0E021096941F004014FF0E9
:101BD000E022116107E04FF0E021096921F00401E2
:101BE0004FF0E022116170470000FA050CED00E0B3
:101BF00000E400E080E100E080FFFF1F10B5044634
:101C0000BF48844208D101210420FFF72BFD0021A9
:101C10000420FFF727FD46E0BA48844208D101219D
:101C20000820FFF71FFD00210820FFF71BFD3AE009
:101C3000B548844208D101211020FFF713FD00218F
:101C40001020FFF70FFD2EE0B048844208D101219B
:101C50002020FFF707FD00212020FFF703FD22E0F1
:101C6000AB48844208D101214020FFF7FBFC002152
:101C70004020FFF7F7FC16E0A648844208D1012176
:101C80008020FFF7EFFC00218020FFF7EBFC0AE04B
:101C9000A148844207D101218015FFF7E3FC002110
:101CA000A015FFF7DFFC10BD10B501210846FFF7B6
:101CB000D9FC00210120FFF7D5FC10BDF0B50022B2
:101CC0000023002400250026002791F803C00CF013
:101CD0000F0291F803C01CF0100F03D091F802C05E
:101CE0004CEA0202B1F800C01CF0FF0F31D00668C8
:101CF00000242BE04FF0010C0CFA04F5B1F800C001
:101D00000CEA0503AB4220D1A5004FF00F0C0CFAF2
:101D100005F7BE4302FA05FC4CEA060691F803C03B
:101D2000BCF1280F06D14FF0010C0CFA04FCC0F8EE
:101D300014C00AE091F803C0BCF1480F05D14FF080
:101D4000010C0CFA04FCC0F810C0641C082CD1D3A0
:101D50000660B1F800C0BCF1FF0F34DD4668002416
:101D60002EE004F1080C4FF0010E0EFA0CF5B1F85C
:101D700000C00CEA0503AB4221D1A5004FF00F0CC7
:101D80000CFA05F7BE4302FA05FC4CEA060691F888
:101D900003C0BCF1280F05D104F1080C0EFA0CFEAB
:101DA000C0F814E091F803C0BCF1480F07D104F16A
:101DB000080C4FF0010E0EFA0CFEC0F810E0641C87
:101DC000082CCED34660F0BD4FF6FF710180022192
:101DD00081700421C17070470246002093680B4255
:101DE00001D0012000E0002070470146886880B2E1
:101DF000704702460020D3680B4201D0012000E06A
:101E0000002070470146C86880B270470161704782
:101E1000416170470AB1016100E041617047C160F2
:101E200070474FF480320A43826181618261826926
:101E3000826970470022394B1A684FF680731A4046
:101E400042EA00120A43354B1A6070473449C861B0
:101E50007047F0B500220023002500242F4E75683E
:101E6000C0F3034482B200F44016B6F5401F08D117
:101E700025F07065294E766826F07066274F7E60E3
:101E800012E000F48016B6F5801F06D1032606FA8C
:101E900004F39D4345F0706506E0460D360102FAF5
:101EA00006F6B54345F0706521B1460D360102FADC
:101EB00006F63543194E7560F0BD30B500228B072C
:101EC0001C0F0F2303FA04F2144B08338C1053F841
:101ED000244094438D1043F825408C1053F824304F
:101EE0008C07240F00FA04F423430C4C08348D10A3
:101EF00044F8253030BD0A49DC31086070470000E5
:101F000000080140000C0140001001400014014095
:101F100000180140001C0140002001400000014069
:101F2000000020420021FC4A116801F03801014301
:101F300011607047F849096821F00801F64A1160FC
:101F400011460968014311607047F349096821F09F
:101F50001001F14A11601146096801431160704790
:101F6000EE48ED494860EE4848607047EA4800692D
:101F700040F08000E849086170470420E649C968DC
:101F800001F00101012901D101200EE0E249C968F7
:101F900011F0040F01D0022007E0DF49C96811F0F9
:101FA000100F01D0032000E0042070470020FF2024
:101FB00000E0401E0028FCD1704770B5044604259F
:101FC000FFF7DBFF054605E0FFF7F0FFFFF7D5FF62
:101FD0000546641E012D01D1002CF5D104B905255B
:101FE000284670BD70B50446042540F6FF70FFF723
:101FF000E4FF0546042D19D1C748006940F00200EE
:10200000C549086108464461006940F04000086124
:1020100040F6FF70FFF7D1FF0546052D06D0BE48FC
:10202000006941F6FD710840BB490861284670BD52
:1020300010B5042440F6FF70FFF7BFFF0446042CE0
:1020400018D1B548006940F00400B349086108465A
:10205000006940F04000086140F6FF70FFF7ADFFF7
:102060000446052C06D0AC48006941F6FB710840D7
:10207000A9490861204610BD10B5042440F6FF7040
:10208000FFF79BFF0446042C3BD1A448A24988607B
:10209000A34888600846006940F0200008610846AF
:1020A000006940F04000086140F6FF70FFF785FFCF
:1020B0000446042C1CD19848006941F6DF710840A1
:1020C000954908610846006940F010000861A520A4
:1020D000944908800F20FFF770FF0446052C10D0AC
:1020E0008D48006941F6EF7108408B49086108E0AE
:1020F000052C06D08848006941F6EF7108408649F2
:102100000861204610BD2DE9F04104460D46042625
:1021100000270F20FFF751FF0646042E26D17E48E8
:10212000006940F001007C49086125800F20FFF71D
:1021300044FF0646042E10D1A71C280C38800F201F
:10214000FFF73BFF0646052E10D07348006941F6A5
:10215000FE7108407049086108E0052E06D06E48FF
:10216000006941F6FE7108406B4908613046BDE8E0
:10217000F08170B504460D4604260F20FFF71DFFC1
:102180000646042E13D16448006940F001006249FC
:10219000086125800F20FFF710FF0646052E06D0A8
:1021A0005D48006941F6FE7108405B4908613046B0
:1021B00070BD70B504460D4604260F20FFF7FDFEE6
:1021C0000646042E17D15548534988605448886004
:1021D0000846006940F01000086125800F20FFF7D5
:1021E000ECFE0646052E06D04B48006941F6EF711D
:1021F000084049490861304670BD2DE9F047044662
:102200004FF6FF752E462F46A8464FF00409E443CB
:10221000E5B2C4F30726C4F307474FEA14680F205A
:10222000FFF7CBFE8146B9F1040F41D13B483A4953
:1022300088603B4888600846006940F010000861EB
:10224000FF2D06D03748083005800F20FFF7B5FE78
:102250008146B9F1040F08D1FF2E06D031480A306B
:1022600006800F20FFF7A9FE8146B9F1040F08D1BF
:10227000FF2F06D02B480C3007800F20FFF79DFE64
:102280008146B9F1040F09D1B8F1FF0F06D02648F5
:10229000A0F80E880F20FFF790FE8146B9F1050FD8
:1022A00006D01D48006941F6EF7108401A490861DF
:1022B0004846BDE8F08770B50446042540F6FF7037
:1022C000FFF77BFE0546042D4BD114481249886068
:1022D000134888600846006940F0200008610846FD
:1022E000006940F04000086140F6FF70FFF765FEAE
:1022F0000546042D2CD10848006941F6DF710840DD
:10230000054908610846006940F0100008616CB199
:102310000020044908800CE00020024023016745AA
:10232000AB89EFCD00F8FF1F00F0FF1FA520454946
:10233000088040F6FF70FFF740FE0546052D10D0DF
:102340004148006941F6EF7108403F49086108E0E3
:10235000052D06D03C48006941F6DF7108403A4936
:102360000861284670BD2DE9F04104460D46164629
:102370000427364834498860354888600F20FFF7C5
:102380001CFE0746042F19D12F48006940F01000A9
:102390002D49086146F0F800284320432949891C4B
:1023A00008800F20FFF709FE0746052F06D02648B4
:1023B000006941F6EF710840234908613846BDE8DD
:1023C000F0812148C069800870471F48006A704743
:1023D00000201D49C96911F0020F01D0012000E061
:1023E0000020704700201849096811F0200F01D023
:1023F000012000E00020704729B1134A126902430E
:10240000114B1A6104E0104A126982430E4B1A61A3
:10241000704701460020012908D10B4AD26912F009
:10242000010F01D0012008E0002006E0064AD26832
:102430000A4201D0012000E0002070470249C86034
:102440007047000000F8FF1F00200240230167458D
:10245000AB89EFCD70470B4880470B4981F3088863
:102460000A480047FEE7FEE7FEE7FEE7FEE7FEE775
:10247000FEE7FEE7FEE7FEE705480649064A074B8A
:102480007047000055240008E806002031010008CC
:10249000E8000020E8060020E8020020E802002012
:1024A00070477047704710B500F008F8006810BD1D
:1024B00010B5044600F002F8046010BD01487047F2
:1024C000704700008400002000487047840000200E
:1024D0007546FFF7F9FFAE4605006946534620F002
:1024E0000700854618B020B5FFF7C6FFBDE82040BD
:1024F0004FF000064FF000074FF000084FF0000BC0
:1025000021F00701AC46ACE8C009ACE8C009ACE872
:10251000C009ACE8C0098D4670470446AFF300809F
:102520002046FDF74EFE000003494FF01800ABBEF9
:1025300070470000090000002600020070472DE9E6
:10254000F041491E0D46044600EBC10103C9164681
:102550001F4609E03B46324600F09AFD6D1E04EB33
:10256000C5020CCA00F056FA35F00602F2D1022D6F
:1025700023D0042D11D0062D30D13B46324600F039
:1025800087FDD4E90A2300F045FA3B46324600F0C5
:102590007FFDD4E9082300F03DFA3B46324600F0C7
:1025A00077FDD4E9062300F035FA3B46324600F0C9
:1025B0006FFDD4E9042300F02DFA3B46324600F0CB
:1025C00067FDD4E9022300F025FA3B46324600F0CD
:1025D0005FFD0CCCBDE8F04100F01CBABDE8F08115
:1025E0002DE9FE4F05460F460E4621F00040734987
:1025F000884224DB7249884201DC08D13DB1314672
:10260000284603B0BDE8F04F012201F003B96D4C3C
:102610007C44002F08DDD4E90E23D4E9060103B081
:10262000BDE8F04F00F0F6B9D4E90601D4E90E2375
:1026300003B0BDE8F04F81F0004100F05DBE624A9A
:102640000FF28818904215DA624988420FDA62A0C8
:102650000CC83146284600F0DDF9D8E9002300F027
:10266000FBFD04D22846314603B0BDE8F08F4FF0A1
:10267000FF3446E05A49824688421EDA5949884268
:1026800014DA59A00CC800245146284600F0C2F9BB
:1026900083460E4601225146284601F0BBF8D8E990
:1026A000002300F029FE33465A4626E0D8E90023ED
:1026B0000124C346514628460DE04D49884217DAA9
:1026C00002240FF2301BDBE900235146284600F0BC
:1026D000DFFCD8E9002300F09DF9DBE90023804608
:1026E0000E465146284600F007FE3346424604E0B7
:1026F00042A003C8032453462A4600F0B3FA054615
:102700000E4633462A463146284600F0C1FC8B4629
:102710000B460246009000F0BBFC8246024688460B
:102720000B46284806217844AE38FFF708FF5B4681
:10273000009A00F0ADFC02908B4622484346524678
:1027400005217844F238FFF7FAFE4346524600F07E
:102750009FFC02460B460298002C59460CDA00F00A
:1027600059F933462A4600F093FC33462A4603B013
:10277000BDE8F04F00F0B4BD00F04CF933462A46F6
:1027800000F086FC84461F48784400EBC4000CC867
:10279000604600F0B1FD33462A4600F0ADFD194A0F
:1027A0007A44383A02EBC4020CCA00F099FD002FBB
:1027B000BFF65AAF81F0004156E700000000104418
:1027C0000000F07F941200000000DC3F00000000D9
:1027D0000000F03F0000203E9C7500883CE4377EFE
:1027E0000000F33F0000E63F000000000000004052
:1027F00000800340000000000000F83F00000000DF
:102800000000F0BF3C1100002DE9F04D1646774264
:1028100023F0004E46EA0705DFF820C190464EEA55
:10282000D5751C4621F00042654506D8454240EA70
:10283000050742EAD775654504D94246BDE8F04D23
:1028400000F0E8B83E4D2544354303D1BDE8F04DD6
:10285000FFF7C6BE022505EAA47545EAD17A52EA19
:1028600000050FF2E00B23F0004646EA080613D1FC
:1028700026B90120FFF71CFE34A112E05FEA0A0529
:1028800010D0012D0ED0022D02D0032D04D101E075
:10289000594606E02FA104E030A72EB900291FDA1F
:1028A00030A103C9BDE8F08DE6450CD16245E0D00A
:1028B0002E4E5FEA0A057E440ED0012D0ED0022D69
:1028C000E6D0032DE6D06245E8D0A2EB0E02121549
:1028D0003C2A07DD03CF14E003CEE3E703CE21E07B
:1028E00003CFDFE7002C05DA12F13C0F02DA20A15A
:1028F00003C906E0424600F0B5F921F00041FFF7B8
:102900006FFE5FEA0A02CDD0012A0BD01AA4022A78
:102910000CCC0AD100F0F0FCDBE90023BDE8F04D5F
:1029200000F0DEBC81F00041BCE700F0E5FCDBE933
:102930000023BDE8F04D00F0DFBC00000000F07F98
:10294000000010C0182D4454FB2109400100000074
:102950000000F87F182D4454FB2109C0182D445461
:10296000FB21F93F182D4454FB21F9BF86100000CC
:102970000000000000000000075C143326A6A13C04
:1029800001F0004321F0004181EA410212F0FE4FC4
:1029900008BF12F4600F00F02880A1F16051B1F57A
:1029A000801F1BDB02014FF0404C09D803D208BF47
:1029B0004FF0000C0AE000F000521CEB820C05D432
:1029C00010F100504FF0804C41F10001B1F17F6FE8
:1029D00006DA43EAC10343EA50707047184670476D
:1029E0004FF0FF0243EAC250704711F4801F01D13B
:1029F00018467047DFF818C041EA030150EA013277
:102A000040F0EC80AFF3008021F4E000704700005C
:102A10008800000410B591EA030F48BF83F000431B
:102A200000F17284841A71EB030E05D2121943EB84
:102A30000E03001B61EB0E01DFF880C14FEA115459
:102A4000A4EB135E1CEA430F18BF9CEA445F7DD0E1
:102A500023EA0C0321EA045143F48013DEF1200C35
:102A600038D322FA0EFC10EB0C0023FA0EFC41EBDB
:102A70000C01CEF1200C03FA0CFC10EB0C0051F110
:102A80000001B1F5801FCEF1200C38D201EB0451CA
:102A9000BDE8104012FA0CF258BF7047401C38BF16
:102AA0005FEA420218BF7047002814BF20F00100FF
:102AB00041F100014FEA410313F5001F38BF704791
:102AC00028BFB1F1C0413E494FF0000048BF41F07E
:102AD00000417047012A43EB0302AEF1200EDEF104
:102AE0001F0C32BF4FF0000C23FA0EF310EB030063
:102AF00041EB0451B4EB115FCAD0A1EB045101F5D5
:102B00008011490801EB0451BDE810405FEA300034
:102B10000CD350F1000038BF12FA0CFC06D1C3E709
:102B2000401C38BF5FEA4202C4D1BDE74FEA41030F
:102B300013F5001F38BF704728BFB1F1C0412049CD
:102B40004FF0000048BF41F0004170479CEA445FED
:102B500008D0BDE8104011EA5C0F04BF01F000414D
:102B600000207047012841EB0104012A43EB030ECA
:102B7000644598BFE645DFF84CC0BDE8104000F260
:102B80002580AFF30080012841EB0100012A43EBCF
:102B90000302904208D010F5001F04BF00207047C8
:102BA00019464FF00000704791EA030F4FF0000004
:102BB00058BF704704494FF0000070470000E0FF25
:102BC0000000F07F110000040000F87F02494FF080
:102BD000000000F0EDBD00000000F87F02494FF05A
:102BE000000000F0E5BD00000000F87F00B54FF4E4
:102BF000001E1EEB410F08BF002898BF1EEB430FBD
:102C000008BF002A26D85DF804EBAFF3008051EA34
:102C1000030C06D4994208BF904210D6EFF300800F
:102C200070478B4208BF8242EFF3008020F01040D3
:102C300038BF40F0004080F3008878BF70474FF005
:102C4000010C38BFBCF1020F68BFBCF1000FEFF3FD
:102C5000008070475DF804EB1CF4502F3FF4B6AFD2
:102C600000F008BE70B5DFF8ECC33CEA111418BFE1
:102C70003CEA131400F09B8081EA03050CEA11146E
:102C800044EAD5741CEA131518BF11EA0C1F00F0B2
:102C900074804FEAC1214FEAC32341EA505143EA0D
:102CA0005253A4EB050404F17F7441F0004143F05A
:102CB00000434FEAC0204FEAC22200F0A9F84605BF
:102CC0004FEAD02003EB244340EA41504FEAD121A0
:102CD00001EB035282EAC47116D05FEA460E38BF98
:102CE0004FF0404610D314BF00234FF0004350F183
:102CF000000041F1000110EAD37F4FF0804620EA46
:102D0000D37018BF4FF0404691EAC47FDFF848E324
:102D100016D412EA0E0F18BF3EEA010E10D070BD95
:102D2000E50754BF1EF4000F1EF4800F0ABF4FF0DA
:102D300080464FF0404610F1010041F10001E3E709
:102D4000B4F1806FDEBF01F1C04101F0004100200D
:102D500000DC70BDA8BFA1F1C04146F0140CA8BFB3
:102D60004CF0805CBDE870406FF0000041EA50011B
:102D700081EA10314FF00000704711EA0C1F00D0BB
:102D80000AE013EA0C1F00F03D804FF0000081EADA
:102D9000030101F0004170BD6FF0000081EA030102
:102DA00041EA500181EA10314FF0000070BD4FEA56
:102DB000410EBEEB4C1F4FEA430508BF002898BFE9
:102DC000B5EB4C1F08BF002ABDE87040DFF88CC28D
:102DD0003FF6FCAEAFF300804FF4001C1CEB410F3C
:102DE00009D11CEB430F0FD04B4021F0004148BFED
:102DF00041F0004170474FF0000081EA030303F007
:102E000000417047BDE870404FF0000094497047A2
:102E1000E0B5054610B40C460FF238114FEA430CEA
:102E20004FF0010E4FEA9C6C51F82CC04FF000019E
:102E3000ACFB02604FF00006ECFB0301001841EB15
:102E40000101301A66EB0101E1FB0C6C4FF000014F
:102E5000ACFB02604FF00006ECFB0301001841EBF5
:102E60000101301A66EB0101E1FB0C6C4FF000012F
:102E7000ACFB0560ECFB0401A2FB0167E3FB006E09
:102E800017EB0E074FF0000EE3FB017E4EF1000E34
:102E9000B6197F414EEB0E0E764275EB070764EBD9
:102EA0000E0EECFB0E01ACFB07E64FF0000E801996
:102EB00041F10001A2FB0067B619E2FB017EE3FBD2
:102EC000007E7F4103FB01EE4EEB0E0E76424FF08B
:102ED000000676EB070765EB0E0EACFB0E674FF0B6
:102EE000000E4FEA857C4FEA9505C01941F10001BB
:102EF00045EA847549084FEA3000A2FB0067764234
:102F0000E2FB017EE3FB007E7CEB070703FB01EEA7
:102F100065EB0E0EB51A77EB03047EF1000E24BFAD
:102F20002E46274650F1000041F10001012E38BF26
:102F3000012F404141EB010111F0004F18BF022366
:102F400001D0F0BC00BDF0BC4FF00103001841EB14
:102F5000010100BDFCC00FFC830F3EF85F8D89F4BA
:102F6000F0F0F0F0B50373EDEAA00EEA48B4C2E663
:102F7000E3388EE31C3870E0A6C867DDA70D74DA6D
:102F8000E53594D7037BC7D4D2200DD2A87464CF83
:102F9000CCCCCCCCE68745CA7C0CCEC77BC865C5FB
:102FA000C3300CC3C0C0C0C00BFA82BE0B6452BC9D
:102FB000A28B2EBAE00217B8B6600BB6B4400BB4C1
:102FC000C84216B2020B2CB05C414CAE849176AC78
:102FD000AAAAAAAA573FE8A839052FA702B57EA535
:102FE0003D0AD7A32BC337A2A0A0A0A0E765119FDD
:102FF0009DD8899D9CC0099CD9E7909A511A1F9928
:10300000ED25B4976CDA4F964F09F294C4859A93E4
:103010009224499209BCFD90EE23B88F6D35788ECD
:1030200008CB3D8D8CC0088CFBF2D88A8940AE89D4
:10303000888888885FAB67877D8A4B86530834858C
:1030400042082184976E128382200882080402813C
:10305000000000800000FF070000F07F1400000463
:103060000000F87F10F0004314BF4142014643F0D6
:103070008043B1FA81FC03F1F87311FA0CF1A3EB70
:103080000C534FEA415008BF704703EBE1217047F2
:10309000DFF8B4C170B53CEA111E18BF3CEA131E3C
:1030A00000F0A68081EA03050CEA111E4EEAD57EE7
:1030B0001CEA131518BF11EA0C1F00F08F80AE44F4
:1030C00021EA4C1123EA4C13AEF17F7E41F48011CA
:1030D00043F48013A1FB024CA0FB0365361955EBAA
:1030E0000C05A1FB034C4CF10003A0FB021C16EBEA
:1030F0000C06654153F10003094218BF46F0010672
:103100004FF0140CB3F5007F4CF1000CCCF120040F
:1031100025FA0CF203FA04F141EA020105FA04F07F
:1031200026FA0CF240EA02006FF0030242EB2E4254
:1031300016FA04F401EB025585EACE7115D05FEA68
:10314000440C38BF4FF040440FD308BF43F0004356
:1031500050F1000041F1000110EAD37F4FF08044AC
:1031600020EAD37018BF4FF0404415F0004FDFF84D
:10317000DCC017D415EA0C0F18BF3CEA010C11D0C3
:1031800070BD5FEACE7454BF1CF4000F1CF4800FB6
:103190000ABF4FF080444FF0404410F1010041F16C
:1031A0000001E2E7BEF1806FA2BFA1F1C04144F08F
:1031B000130C4CF0805CBDE8704006DA4FF0000064
:1031C00001F1C04101F0004170476FF0000041EA99
:1031D000500181EA10314FF0000070474FEACE7184
:1031E0004FF0000070BD4FEACE714FF0000070BD8F
:1031F0004FEA4105B5EB4C1F4FEA430608BF0028D4
:1032000098BFB6EB4C1F08BF002ABDE87040DFF83E
:1032100040C03FF6DBACAFF300804FF4001CBCEBCA
:10322000410F98BFBCEB430F0AD84FF0000081EA72
:10323000030101F0004141F0FE4141F4700170478B
:1032400004494FF0000070470000FF070000F07FC6
:10325000130000040000F87F53EA010C17D41CF59A
:10326000801F58BFBCF5801F00F106808B4218BF3D
:10327000704708BF8242704707D713F5801F58BFB9
:1032800011F5801F19D48B4270479B4270471CF583
:10329000801F08D5BCF5801FF7D5994218BF70472D
:1032A00008BF904270474FF4001C1CEB430F38BF1F
:1032B0001CEB410F01D29942704783EA010182EA77
:1032C000000081EA030380EA0202DFF810C083EA0B
:1032D000010182EA0000FFF789BC00001900160412
:1032E00091EA030F10B581F000413FF59BAB83F0ED
:1032F000004300F009B8000010B591EA030F48BF81
:1033000083F000433FF58EAB841A71EB030E07D2B6
:1033100012198EF0004E43EB0E03001B61EB0E0101
:10332000DFF810C24FEA1154A4EB135E1CEA430FFE
:1033300018BF9CEA445F00F0C58023EA6C03524248
:1033400021EA0451C3EB6C0338BF5B1EDEF1200C95
:1033500029D322FA0EFC10EB0C0043FA0EFC41EBD1
:103360000C01CEF1200C03FA0CFC10EB0C0051F117
:103370000001CEF1200C2DD401EB0451BDE810402A
:1033800012FA0CF24FF0120C4CF0804C58BF704700
:10339000401C1CBFB2F1004F704700280CBF491CF5
:1033A00020F00100704712EB020C43EB030218BF40
:1033B0004FF0010C4CEA4202AEF1200EDEF11E0C81
:1033C00063D943FA0EFC10EB0C0051F1FF31CEF142
:1033D0001E0CD1D50CF1010C12FA0CFC404141EB52
:1033E000010101EB445E5FEA5E5E10D901EB04511E
:1033F000BDE8104010EBDC7038BFBCF1004F18BFC7
:10340000704700280CBF491C20F0010070473FD2D4
:1034100011F5001108BF002801D1BDE810403FD0D0
:103420004FEAD42E24F40064B1FA81F2202AA4F1E8
:10343000020404BFB0FA80F3D218A2F10B02B2F179
:103440002003A4EB02040CD2C2F1200301FA02F122
:1034500020FA03F341EA030100FA02F0C2F120036B
:1034600003E000FA03F14FF0000001EBCE71002CF5
:1034700001EB0451BDE81040A8BF704701F1C04105
:103480004FF0000001F00041704701EB045110BD06
:10349000491001EB0451BDE810404FEA300002E052
:1034A0004FF0000170474FF0120C4A0008BF004275
:1034B000F6D0B2F5001F28BF704701F000414FF071
:1034C000000070479CEA445F07D0BDE8104011EA55
:1034D0005C0F04BF002100207047012841EB01046C
:1034E000012A43EB030E644598BFE645DFF848C068
:1034F000BDE810403FF66AABAFF30080012841EB16
:103500000100012A43EB0302904209D010F5001F8D
:1035100004BF0020704783F000414FF00000704767
:1035200091EA030F4FF0000048BF704703494FF086
:10353000000070470000E0FF120000040000F87F68
:10354000094248BF4CF4803C4FF4C0634FEA11522B
:1035500003F1010321EA025122F400629A1A48BFE2
:103560006FF0FE0241F48011352A3CD830D0152A84
:103570001ED3203A0CD90028C2F1200321FA02F010
:1035800001FA03F218BF42F001024FF0000130E0EF
:10359000C2F1000302F1200201FA03F120FA02F263
:1035A00041EA020100FA03F208464FF0000120E070
:1035B000C2F1200310B400FA03F401FA03F320FA75
:1035C00002F021FA02F1224610BC43EA000010E0AA
:1035D00050EA01324FF000004FF000014FF000427E
:1035E00018BF521C05E04FF001024FF000014FF0F0
:1035F00000001CF4803F2CF4803C18BF41F00041D7
:10360000124208BF7047520003D303D0401C41F15F
:10361000000170475FEAAC72F8D4FAD1401C41F166
:10362000000120F00100F4E77047704700F5000C3E
:103630001CF0FE4F09D0C1104FEA407001F16051FB
:1036400058BF7047A1F1E04170471CF4000F08D04B
:103650000146400008BF70474FF000004FEA3001BC
:103660007047DFF814C0420240F00880AFF30080DA
:1036700040F4E0011046704718000004014800F0D3
:1036800097B800000000C07FC2154FEA002318BFA2
:1036900043F0004305D4D2F19E0213D923FA02F07D
:1036A0007047B0F14F4F0DD812F0FF0208BF23F062
:1036B00000434FF00000D2F19E0223FA02F1A0EB8A
:1036C00001007047DFF82CC04FEA4001B1F17F4F95
:1036D00088BF4CF4803C3FF6D1AF1EBF6FEAE0706C
:1036E00080F000407047AFF300806FEAE07080F038
:1036F000004070474800020410F0004218BF4042EA
:1037000042F08042B0FA80F18840A2EBC15202F14F
:10371000786208BF7047410642EB202018BF5FF077
:10372000806C28BF20F00100704700F0004343EA9E
:10373000D05323F48073C3F1C10323F00041172950
:103740001FD8C3F1200310FA03F1C3F1200320F0C6
:103750007F4040F4000020FA03F003F0004340EA09
:1037600003000DD00B46590009D318BF401C06D1E9
:103770007FEAE27398BF401C38BF20F00100704719
:103780007047182903EB912318BF6FF000410131F6
:1037900068BF03F0004009D6400203F0004000F18A
:1037A000010004BF12F0004F20F001007047704785
:1037B0000CF00F03092B08BF082000F05B800A2BD8
:1037C0000BD0082B18BF704708BF1CF0400F0AD061
:1037D0004FF000004FF0000170471CF0400F18BF81
:1037E0004FF0004070471CF0100F08D020F07043DD
:1037F00000F07F4242EAD3014FEA4370704700F085
:10380000604021F07F4242EA000201F07F4040EA3E
:10381000727070474FF0FF0C4CF4E06C1CEA1153CF
:103820001CBF9CEA030C9445C2BFDA4201EB025173
:103830007047002B0DD0BCF1000F0FD0002A01F013
:103840000041A4BF41F0E04141F07F614FF0000032
:10385000704701F000414FF00000704750EA01331B
:103860004FF09B0C18BF4CF0806C7FF4B7A9AFF3FE
:10387000008070471CF4801F11D01CF4E02F03D08F
:103880006FEACC31490070474FF04050EFF30082AF
:1038900022F0704242EA000282F3008870474FF043
:1038A00000007047000000004FBB610567ACDD3FC2
:1038B000182D4454FB21E93F9BF681D20B73EF3F57
:1038C000182D4454FB21F93FE2652F227F2B7A3CCF
:1038D000075C143326A6813CBDCBF07A8807703C88
:1038E000075C143326A6913CC4EB98999999C9BFFB
:1038F000711623FEC671BCBF6D9A74AFF2B0B3BF30
:103900009AFDDE522DDEADBF2F6C6A2C44B4A2BFEF
:103910000D5555555555D53FFF8300922449C23F5B
:103920006E204CC5CD45B73F513DD0A0660DB13F8F
:10393000EB0D76244B7BA93F11DA22E33AAD903FA1
:1039400000000000000000006839000800000020AE
:10395000840000006C010008EC390008840000209D
:10396000640600008801000800000000000000005C
:103970000000000000000000000000000000000047
:103980000000000000000000000000000000000037
:103990000000000000000000000000000000000027
:1039A0000000000000000000000000000000000017
:1039B0000000000000000000000000000000000007
:1039C00000000000000000000000000000000000F7
:1039D00000000000000000000000000001020304DD
:0C39E0000102030406070809020406089F
:0400000508000131BD
:00000001FF
