:020000040000FA
:10000000600100200101000005010000070100005F
:1000100009010000090100000901000000000000C2
:1000200000000000000000000000000009010000C6
:1000300009010000000000000901000009010000A2
:100040000901000009010000090100000901000088
:100050000901000009010000090100000901000078
:100060000901000009010000090100000901000068
:100070000901000009010000090100000901000058
:100080000901000009010000090100000901000048
:100090000901000009010000090100000901000038
:1000A0000901000009010000090100000901000028
:1000B0000901000009010000090100000901000018
:1000C0000901000009010000090100000901000008
:1000D00009010000090100000901000009010000F8
:1000E00009010000090100000901000009010000E8
:1000F00009010000090100000901000009010000D8
:1001000000F004B8FEE7FEE7FEE7000000F002F8AA
:1001100000F02EF80AA090E8000C82448344AAF173
:100120000107DA4501D100F023F8AFF2090EBAE871
:100130000F0013F0010F18BFFB1A43F0010318471B
:10014000C8120000D8120000002300240025002659
:10015000103A28BF78C1FBD8520728BF30C148BF2A
:100160000B6070471FB500F065FD1FBD10B510BDD9
:1001700000F0D3FB1146FFF7F5FF00F059FB00F04C
:10018000F1FB03B4FFF7F2FF03BC00F0FBFB000040
:100190000138FDD17047000002480349014A034B72
:1001A0007047000060000020600100206000002017
:1001B000704710B504462CB900220421FF4800F016
:1001C00073FC04E0FF220421FC4800F06DFC10BD2C
:1001D00010B504462CB900220821F84800F064FC50
:1001E00004E0FF220821F54800F05EFC10BD00BFCE
:1001F0000100A0F10102D0B2FAD1704770B50346F8
:10020000002510E000240AE0002604E0CB20FFF7E0
:10021000EEFF701CC6B20F2EF8DB601CC4B2832C3C
:10022000F2DB681CC5B29D42ECDB70BD70B50446C4
:100230000020FFF7BEFF0020FFF7CAFF0F20FFF7E7
:10024000D6FF0120FFF7B5FF0F20FFF7D0FF0025F5
:1002500018E00020FFF7ADFFE00903D00120FFF711
:10026000B7FF02E00020FFF7B3FF6006040E0F2087
:10027000FFF7BDFF0120FFF79CFF0F20FFF7B7FF3F
:10028000681CC5B2082DE4DB70BD70B504460020C3
:10029000FFF78FFF0120FFF79BFF0F20FFF7A7FF5E
:1002A0000120FFF786FF0F20FFF7A1FF002518E0D0
:1002B0000020FFF77EFFE00903D00120FFF788FF51
:1002C00002E00020FFF784FF6006040E0F20FFF716
:1002D0008EFF0120FFF76DFF0F20FFF788FF681CDE
:1002E000C5B2082DE4DB70BD70B504462546E117A4
:1002F00004EB11710911A4EB0111C8B2FFF796FFCD
:100300002546E11704EB1171091101F11000FFF707
:100310008DFF70BD10B504462020FFF787FF2046F3
:10032000FFF784FF10BD70B505460C462120FFF78E
:100330007DFF2846FFF77AFF2046FFF777FF70BD65
:1003400070B505460C462220FFF770FF2846FFF7E0
:100350006DFF2046FFF76AFF70BD10B5044644F0FC
:100360004000FFF763FF10BD10B504468120FFF782
:100370005DFF2046FFF75AFF10BD10B504468D20E3
:10038000FFF754FF44F01000FFF750FF10BD10B509
:10039000044644F0A000FFF749FF10BD10B5044625
:1003A00044F0A400FFF742FF10BD10B5044644F02E
:1003B000A600FFF73BFF10BD10B50446A820FFF7CD
:1003C00035FF2046FFF732FF10BD10B5044644F05C
:1003D000AE00FFF72BFF10BD10B5044644F0B0008F
:1003E000FFF724FF10BD10B5044644F0C000FFF72E
:1003F0001DFF10BD10B50446D320FFF717FF2046A0
:10040000FFF714FF10BD10B50446D520FFF70EFF0F
:100410002046FFF70BFF10BD10B50446D920FFF7AB
:1004200005FF2046FFF702FF10BD10B50446DA2095
:10043000FFF7FCFE44F00200FFF7F8FE10BD10B518
:100440000446DB20FFF7F2FE2046FFF7EFFE10BD6B
:1004500010B5E320FFF7EAFE10BD2DE9FF5F04466B
:100460000F46154698464FF000090026B246B3469F
:10047000381B401C00F0FF0AA8EB050000F0FF0B42
:1004800014E0A119C8B2FFF7A7FF2846FFF72CFF19
:100490004FF0000906E00E98FFF7F7FE09F10100A2
:1004A00000F0FF09D945F6DB701CC6B25645E8DB03
:1004B000BDE8FF9F38B50023009380230022072169
:1004C0001046FFF7CAFF0020FFF786FF0020FFF766
:1004D0000BFF002404E00120FFF7D7FE601CC4B22C
:1004E000802CF8DB0120FFF777FF0020FFF7FCFEF0
:1004F000002404E08020FFF7C8FE601CC4B2802CFA
:10050000F8DB0220FFF768FF0020FFF7EDFE002474
:1005100004E00120FFF7B9FE601CC4B2802CF8DBB8
:100520000720FFF759FF0020FFF7DEFE002404E05C
:100530008020FFF7AAFE601CC4B2802CF8DB0024E8
:1005400011E02046FFF748FF002508E02846FFF7A6
:10055000CBFEFF20FFF799FE05F17F00C5B2802D8D
:10056000F4DB601CC4B2082CEBDB38BD08B50520F9
:10057000FFF744FE0020FFF728FF8020FFF743FF2E
:100580003F20FFF719FF0020FFF734FF0020FFF79F
:10059000E4FE0420FFF7F1FE0220FFF7BBFE01207E
:1005A000FFF7F5FE0820FFF71EFF1020FFF73DFFC5
:1005B000CF20FFF7D9FEF12002E0000000500040FC
:1005C000FFF72AFF4020FFF73AFF0020FFF7E6FE83
:1005D0000020FFF7EAFE002300938023002207217A
:1005E0001046FFF73AFF0120FFF7EFFE08BD2DE9A7
:1005F000F04107460E4615460024A0462CE038463A
:10060000FFF7EAFE3046FFF76FFE287820384FEA02
:100610000018002407E008EB0401824A505CFFF751
:1006200034FE601CC4B2082CF5DB781CC0B2FFF7A6
:10063000D3FE3046FFF758FE082407E008EB04011C
:10064000784A505CFFF721FE601CC4B2102CF5DB29
:100650006D1C06F10800C6B228780028CFD1BDE88D
:10066000F0812DE9F04106460F46154600246D0144
:100670003046FFF7B1FE3846FFF736FE00BF06E012
:100680002919694A505CFFF700FE601CC4B2102CA7
:10069000F6DB701CC0B2FFF79FFE3846FFF724FE62
:1006A000102406E02919604A505CFFF7EEFD601C3B
:1006B000C4B2202CF6DBBDE8F08170B592B00546DF
:1006C0000E46002448225949684600F0F1F82846B1
:1006D000FFF782FE3046FFF707FE00BF05E01DF87A
:1006E0000400FFF7D2FD601CC4B2182CF7DB681CB5
:1006F000C0B2FFF771FE3046FFF7F6FD182405E0A3
:100700001DF80400FFF7C1FD601CC4B2302CF7DBFC
:10071000A81CC0B2FFF760FE3046FFF7E5FD3024AD
:1007200005E01DF80400FFF7B0FD601CC4B2482CC2
:10073000F7DB12B070BD70B505460E4600242846A2
:10074000FFF74AFE3046FFF7CFFD00BF04E0002070
:10075000FFF79BFD601CC4B2182CF8DB681CC0B20C
:10076000FFF73AFE3046FFF7BFFD182404E00020F3
:10077000FFF78BFD601CC4B2302CF8DBA81CC0B2A4
:10078000FFF72AFE3046FFF7AFFD302404E00020DB
:10079000FFF77BFD601CC4B2482CF8DB70BD002461
:1007A000FFF7E4FE3CE06CB9012434210520FFF79B
:1007B000C2FF00210846FFF780FF68210020FFF7F5
:1007C0007CFF0CE0002400210846FFF7B4FF6821FD
:1007D0000020FFF7B0FF34210520FFF76EFF052250
:1007E0003C210020FFF73DFF00221E210320FFF7E0
:1007F00038FF01223C210320FFF733FF02225A2158
:100800000320FFF72EFF042200210620FFF729FF17
:10081000062270211046FFF724FF0A20FFF7EEFCA6
:10082000C1E70000440C0000441200002413000043
:1008300000F01CF800F02DF80A4800F0EBF9042154
:10084000094800F023F90821074800F01FF90120AA
:10085000FFF7AFFC0020FFF7BBFCFFF7A0FF00BFD6
:10086000FEE70000020000200050004010B50D48D7
:1008700000F0D0F920210C4800F0FAF820210A48B5
:1008800000F0F3F808B900BFFEE7064800F0B2F93F
:1008900010BD10B51B2000F0A7F9044800F008F9BE
:1008A00010BD00000200002000500040C002C00443
:1008B00010B5203AC0F00B80B1E81850203AA0E8FB
:1008C0001850B1E81850A0E81850BFF4F5AF5FEA2F
:1008D000027C24BFB1E81850A0E8185044BF18C9E2
:1008E00018C0BDE810405FEA827C24BF51F8043B89
:1008F00040F8043B08BF7047D20728BF31F8023BDD
:1009000048BF11F8012B28BF20F8023B48BF00F870
:10091000012B7047704770477047754600F028F804
:10092000AE4605006946534620F00700854618B0DC
:1009300020B5FFF731FCBDE820404FF000064FF036
:1009400000074FF000084FF0000B21F00701AC4604
:10095000ACE8C009ACE8C009ACE8C009ACE8C00923
:100960008D4670470446AFF300802046FFF709FC30
:10097000004870470000002001487047704700BFE2
:100980000400002001491820ABBEFEE7260002004B
:100990007047D0F8003412F0010F0CBF8B430B43AB
:1009A000C0F8003412F0020FD0F820240CBF22EA65
:1009B00001011143C0F820147047D0F800C512F0AF
:1009C000010F0CBF2CEA010C4CEA010CC0F800C569
:1009D000D0F804C512F0020F0CBF2CEA010C4CEA4F
:1009E000010CC0F804C5D0F808C512F0040F0CBF04
:1009F0002CEA010C4CEA010CC0F808C512F0080FF3
:100A0000D0F818250CBF8A430A43C0F81825D0F83F
:100A10000C2513F0010F0CBF8A430A43C0F80C25C4
:100A2000D0F8102513F0020F0CBF8A430A43C0F818
:100A30001025D0F8142513F0040F0CBF8A430A4385
:100A4000C0F81425D0F81C2513F0080F0CBF8A43FA
:100A50000A43C0F81C25D0F82825002B14BF22EA31
:100A600001011143C0F82815704750F82100704764
:100A700030B504460D460022FFF78BFF294620467D
:100A8000BDE8304008230122FFF797BF30B5044688
:100A90000D460122FFF77DFF29462046BDE8304084
:100AA00008230122FFF789BF40F82120704700008A
:100AB0002DE9F041DFF81C810446D8F8000010F061
:100AC000E04F06D0D8F8000043490840B0F1805FFD
:100AD00004D114F0004F18BFBDE8F081D8F86010C1
:100AE000D8F8700021F4800141F4006540F40066FC
:100AF000C8F86050C8F8706015F0020F02D014F00A
:100B0000020F04D025EA040010F0010F1AD064F09F
:100B100003000540C8F8605016F0004F08D006F0FA
:100B2000700030281CBF702030EA060006D102E0B9
:100B30003020A84302D14FF4805001E04FF4002050
:100B4000FFF726FB25F4FE6043F2F07120F44050DD
:100B5000214041EA00072148214930402140084313
:100B600004F0080140EAC1054020C8F8580015F01B
:100B7000004F18BFC8F87050C8F8607008BFC8F8B8
:100B800070501020FFF704FB164927F0030020F0F7
:100B9000F8602140014325F0FC5004F0FC52024370
:100BA00014F4006F0CD14FF40040D8F8503013F01B
:100BB000400F01D1401EF8D121F4006122F40062FF
:100BC000C8F86010C8F87020BDE8F0411020FFF7A9
:100BD000DFBA000000E00F400000FF708FDFFF7FF2
:100BE000302000800300C0070149486370470000BF
:100BF00000E00F40064A010F52F821100A6883B244
:100C0000C0F3044003FA00F022EA000008607047D5
:100C100088130000064A010F52F821100A6883B2B7
:100C2000C0F3044003FA00F010430860704700006E
:100C30008813000010B5FFF79FFE4FF00001016020
:100C400010BD0000000000000000000000000000D7
:100C500000000000000038FCFC3800000000000D1F
:100C60000D000000000E1E00001E0E00000000001F
:100C70000000000020F8F820F8F82000020F0F0212
:100C80000F0F0200387C444747CC98000306041C31
:100C90001C07030030300080C06030000C060301E8
:100CA000000C0C0080D87CE4BCD84000070F08087A
:100CB000070F080000101E0E0000000000000000DA
:100CC000000000000000F0F80C0400000000030722
:100CD0000C0800000000040CF8F000000000080CF4
:100CE0000703000080A0E0C0C0E0A0800002030174
:100CF00001030200008080E0E0808000000000032B
:100D00000300000000000000000000000000101EB2
:100D10000E00000080808080808080000000000045
:100D20000000000000000000000000000000000CB7
:100D30000C00000000000080C06030000C060301C1
:100D400000000000F8FC04C424FCF800070F0908A8
:100D5000080F0700001018FCFC0000000008080F36
:100D60000F080800080C84C4643C18000E0F090822
:100D7000080C0C00080C444444FCB800040C08089F
:100D8000080F0700C0E0B098FCFC800000000008DD
:100D90000F0F08007C7C4444C4C48400040C080881
:100DA000080F0700F0F84C4444C08000070F080803
:100DB000080F07000C0C0484C47C3C0000000F0FDB
:100DC00000000000B8FC444444FCB800070F0808C9
:100DD000080F0700387C444444FCF8000008080869
:100DE0000C07030000000030300000000000000687
:100DF0000600000000000030300000000000080E77
:100E0000060000000080C0603018080000000103E8
:100E1000060C0800404040404040400002020202F0
:100E2000020202000008183060C0800000080C06B2
:100E300003010000181C04C4E43C18000000000D6D
:100E40000D000000F0F808C8C8F8F000070F080B04
:100E50000B0B0100E0F0988C98F0E0000F0F000001
:100E6000000F0F0004FCFC4444FCB800080F0F08FE
:100E7000080F0700F0F80C04040C180003070C0816
:100E8000080C060004FCFC040CF8F000080F0F0826
:100E90000C07030004FCFC44E40C1C00080F0F08C2
:100EA000080C0E0004FCFC44E40C1C00080F0F08A6
:100EB00000000000F0F80C84848C980003070C08F4
:100EC00008070F00FCFC404040FCFC000F0F000036
:100ED000000F0F00000004FCFC0400000000080FDD
:100EE0000F08000000000004FCFC0400070F0808C5
:100EF0000F07000004FCFCC0F03C0C00080F0F00C2
:100F0000010F0E0004FCFC0400000000080F0F0895
:100F1000080C0E00FCFC387038FCFC000F0F0000C1
:100F2000000F0F00FCFC3870E0FCFC000F0F00000D
:100F3000000F0F00F0F80C040CF8F00003070C0889
:100F40000C07030004FCFC44447C3800080F0F0825
:100F500000000000F8FC040404FCF800070F080E71
:100F60003C3F270004FCFC44C4FC3800080F0F0081
:100F7000000F0F00183C6444C49C1800060E0808BB
:100F8000080F0700001C0CFCFC0C1C000000080FE4
:100F90000F080000FCFC000000FCFC00070F080824
:100FA000080F0700FCFC000000FCFC000103060C1D
:100FB00006030100FCFC008000FCFC00030F0E0394
:100FC0000E0F03000C3CF0C0F03C0C000C0F0300B3
:100FD000030F0C00003C7CC0C07C3C000000080FEC
:100FE0000F0800001C0C84C4643C1C000E0F090890
:100FF000080C0E000000FCFC0404000000000F0FB1
:10100000080800003870E0C0800000000000000107
:1010100003070E0000000404FCFC000000000808A8
:101020000F0F0000080C0603060C0800000000006B
:101030000000000000000000000000002020202030
:101040002020202000000307040000000000000012
:101050000000000000A0A0A0E0C00000070F0808EA
:10106000070F080004FCFC2060C08000080F070880
:10107000080F0700C0E0202020604000070F08088C
:10108000080C040080C06024FCFC0000070F080866
:10109000070F0800C0E0A0A0A0E0C000070F0808EC
:1010A000080C040040F8FC440C180000080F0F085E
:1010B00000000000C0E02020C0E02000276F48486A
:1010C0007F3F000004FCFC4020E0C000080F0F0040
:1010D000000F0F00000020ECEC0000000000080FE3
:1010E0000F0800000000000020ECEC000030704011
:1010F000407F3F0004FCFC80C0602000080F0F010F
:10110000030E0C00000004FCFC0000000000080FAF
:101110000F080000E0E060C060E0C0000F0F000FAB
:10112000000F0F0020E0C02020E0C000000F0F00E3
:10113000000F0F00C0E0202020E0C000070F0808CB
:10114000080F070020E0C02020E0C000407F7F485B
:10115000080F0700C0E02020C0E02000070F08486B
:101160007F7F400020E0C0602060C000080F0F08B3
:101170000000000040E0A02020604000040C0909AD
:101180000B0E04002020F8FC202000000000070FB8
:10119000080C0400E0E00000E0E00000070F080891
:1011A000070F080000E0E00000E0E0000003070C8B
:1011B0000C070300E0E0000000E0E000070F0C0770
:1011C0000C0F07002060C080C0602000080C0703DF
:1011D000070C0800E0E0000000E0E000474F48484E
:1011E000683F1F00606020A0E06020000C0E0B092B
:1011F000080C0C00004040F8BC040400000000078C
:101200000F080800000000BCBC0000000000000F38
:101210000F000000000404BCF84040000008080F64
:1012200007000000080C040C080C0400000000007B
:101230000000000080C0603060C080000707040428
:101240000407070040484848FF484800040830C0E9
:10125000300E000080601F207F44444048444340DB
:10126000434C400000C2BA8282FEA290FC4B48F977
:101270004A48080020100846817F0000FF22223FD4
:10128000222220004444FC44440004E42425262473
:1012900024E4040010301F080820100D41817F0154
:1012A0000509300000000000000000000000000000
:1012B000000000000000583800000000000000009E
:1012C0000000000020242424FE23222020FF2022CE
:1012D0002CA02000000848847F02414020130C14F9
:1012E0002241F80080642C342424EC322222322E55
:1012F00023A260000041219189874D552525554D38
:1013000081808000008060F8074020180F08C8081E
:1013100008281800010000FF00100C0340807F0027
:10132000010618000000000080C0C0C0C08000009E
:10133000000080C0C0C0C0800000000000000007A6
:101340000F1F3F7FFFFFFFFEFEFFFFFF7F3F1F0FCF
:10135000070000000000000000000000000103077B
:1013600007030100000000000000000010E00F4033
:1013700014E00F401CE00F4010E00F4040E00F4031
:1013800044E00F4048E00F4000E10F4004E10F400F
:1013900008E10F4010E10F4014E10F4018E10F4049
:1013A00020E10F4024E10F4028E10F4040420F00B0
:1013B00000201C0080841E0000802500999E3600BD
:1013C0000040380000093D0000803E0000004B0056
:1013D000404B4C0000204E00808D5B0000C05D0043
:1013E0000080700000127A0000007D008096980056
:1013F000001BB7000080BB00C0E8CE00647ADA00B2
:101400000024F4000000FA0018140000000000207E
:0814100060010000480100002A
:0400000500000101F5
:00000001FF
