:0300000002148760
:0C148700787FE4F6D8FD7581350214CEA4
:10000300000000000000030C030C000000000000CF
:1000130007F00808100410041004080807F0000093
:1000230010041FFC1004000400040004000C000072
:1000330010041FFC1104110417C410040818000055
:1000430010041FFC100410041004080807F000003B
:10005300000000001FF01220122012201220FFFCCB
:1000630012221222122212221FF20002000E00009C
:10007300008000804080408040804082408147FE75
:1000830048805080608040800080018000800000B4
:1000930000003FE02220222022203FE00800090048
:1000A30008C008020801FFFE08000800080000005D
:1000B30002800C803480D7FF1482148400001F80D8
:1000C30010801080FFFF108010801F800000000050
:1000D3000220042008203020C7E04420442044208C
:1000E3007FFF44204420442044204020002000007F
:1000F30000000002000400080030FFC088808880F0
:10010300888088848882FFFC0000000000000000D3
:100113000000000000007FFC420842084208420839
:100123004208420842087FFC000000000000000073
:100133000000001200627D8254925492549257FE42
:1001430054925492549254927C9200820002000082
:1001530000422044FFD82A402A402A50FFCC2046A0
:1001630000187FE04440444444427FFC0000000008
:100173000000010001000100010001000100010075
:100183000100010001000100010003000100000063
:100193000000000820082008200820082008200864
:1001A3002008200820086008200800180008000024
:1001B300000020042104210421042104210421043A
:1001C300210421042104210421042004000400004B
:1001D30000007FFE4014402440C47F0440044004D8
:1001E3007F8440444044404440447FFE000000007C
:1001F3000004400441044104410441FC7F044104E0
:100203004104410443FC41044004000C0004000089
:100213000800080208040808083089C048807800EC
:100223002900088008400830081E080C0800000058
:100233000000000000007FFC420842084208420818
:100243004208420842087FFC000000000000000052
:10025300000007F0080810041004080807F0000065
:100263000000080408041FFC000400040000000050
:1002730000000E0C10141024104411840E0C000006
:1002830000000C1810041104110412880C700000F3
:10029300000000E00320042408241FFC00240000C5
:1002A30000001F98108411041104108810700000BE
:1002B300000007F00888110411041888007000007A
:1002C30000001C00100010FC13001C0010000000B4
:1002D30000000E3811441084108411440E380000BD
:1002E30000000700088C10441044088807F0000041
:1002F3000840847F61800E0200FE7E82528252FE9D
:100303005282528252FE7E82008200FE0002000070
:10031300000100063FF82001240124423F62A55456
:10032300654825483F5424642442240320020000E6
:1003330008100610407F3380000200427C325402D2
:1003430055FE540255FE54127C2200420002000066
:1003530000010002000C7FF04000420052F852906E
:100363007E90529052F8420240017FFE000000004E
:1003730000004000A00047E018182004400240029B
:1003830040024002400240022004781800000000AE
:100393000F0010840F3800C007781884007800001D
:1003A30010041FFC1104110011C011300E0C0004C5
:1003B30010041FFC10840080008010841FFC1004B4
:1003C30000000080008000800080008000800080AA
:1003D3000000000C000C0000000000000000000002
:1003E3002B452D45492449414E3A4900111519150C
:1003F3001318161512191300000000000000000066
:10040300E0F0F0F8FCFCFCFEFEFEFEFEFEFEFEFE4F
:10041300FCFCFCF8F060608080000000000000003D
:1004230000000000000080800000808080008000C9
:1004330000808000000000808080800000000000B9
:10044300808080800000808080808080C0C0808029
:100453008080808000000080808080808080808019
:100463008080808000000000000000000000000089
:100473000000000000000000000000F0FCFFFFE0AF
:1004830001071F1FDFDFDF8F8F8F8F8787878383AF
:1004930003010100000C0E1F1F3E3C000000000082
:1004A30000000000000004F51DFFFF1DF50077E6C6
:1004B300CCFFFF00000000B5B5B5B5B5FFFFFFB534
:1004C300B5B5B5B50000FFFFFF999999FFFF99995D
:1004D3009999FFFF0000C0C1C1C9D9D9D9D9D9FDA4
:1004E300FFC7C7C1000000000000000000000000BB
:1004F3000000000000000000000000EFEFCFCF8FEE
:100503008E00000000030F1F7FFFFFFFFFFFFFFFB1
:10051300FFFFFFFFFFFF7F1F0F0602800000008029
:100523000000000080808C0F001F1F000F080606CC
:10053300060F1F030000809919190F0F0303030F00
:100543000F09191900008181010181010F1F191978
:1005530019999999000000889898181898981C8FF1
:100563000700008080808000000000808000000081
:1005730000800000000000000000000001070F1FC2
:100583003F7FFFFEFEFCF8F0F0E0C38F1F3FFFFF4D
:10059300FFFFEF030100000060F2FE1FDFFC1FE11D
:1005A300FCFFDFC90303E1FC3F07F3FE7FFF33F8E2
:1005B3001FE3F8FFDFDB0103F1FE3F0F0100000043
:1005C300C0F0FECFCB4103E1FCFFC701E0E0FCDF5D
:1005D300DFC103E1F8FFC7C3030361F77F1F03E133
:1005E300FC7E1FDF790F03E0F0DFC7631F07F87E90
:1005F3001FFFF91C030000000000000000000000C2
:1006030000000000010103030707070707020003B7
:1006130003010100000000000000000000000000D2
:10062300000000000000000008F80800F8A8A80077
:10063300F8808000A00000000000F800A8A8F800DF
:10064300E8A8B800E8A8B800E8A8B800B8A8F80077
:100653000808F800E8A8B800B8A8E800B8A8E800B7
:10066300A8A8F8000000000000000000000000003F
:100673000000000000000000000000000000000077
:100683000000000000000000000000000000000067
:10069300000000011F01001F1515001F101000149A
:1006A30000000000001F0015151F001D1517001D79
:1006B3001517001D15170017151F0001011F001D39
:1006C30015170017151D0017151D0015151F000020
:1006D3000000000000000000000000000000000017
:1006E3000000000000000000000000000000000007
:1006F300000000000000000000004F0000000700A1
:100703000700147F147F14242A7F2A1223130864FA
:100713006236495522500005030000001C224100A7
:100723000041221C0014083E081408083E08080073
:10073300503000000808080808006060000020101E
:100743000804023E5149453E00427F400042615148
:1007530049462141454B311814127F102745454521
:10076300393C4A494930017109050336494949363B
:10077300064949291E003636000000563600000897
:100783001422410014141414140041221408020109
:10079300510906324979413E7E1111117E7F494943
:1007A30049363E414141227F4141221C7F4949490B
:1007B300417F090909013E4149497A7F0808087FB9
:1007C30000417F41002040413F017F081422417FC7
:1007D300404040407F020C027F7F0408107F3E416F
:1007E30041413E7F090909063E4151215E7F0919B6
:1007F3002946464949493101017F01013F404040B3
:100803003F1F2040201F3F4038403F6314081463BC
:1008130007087008076151494543007F41410002C1
:10082300040810200041417F0004020102044040FB
:10083300404040010204000020545454787F48444F
:1008430044383844444420384444487F385454544A
:1008530018087E090102064949493F7F08040478C4
:1008630000447D40002040443D007F1028440000A8
:10087300417F40007C0418047C7C080404783844DD
:100883004444387C14141408081414187C7C080499
:1008930004084854545420043F4440203C40402022
:1008A3007C1C2040201C3C4030403C442810284401
:1008B3000C5050503C4464544C44000836410000F2
:1008C300007F0000004136080002010204023E5589
:1008D3005541220000000000000079000018247434
:1008E3002E24487E4942405D2222225D15167C1645
:1008F3001500007700000A55555528000100010036
:10090300000A0D0A0408142A1422040404041C0017
:100913000808080001010101010002050200444426
:100923005F444400000402017E2020103E060F7F36
:10093300007F00181800000040502000000A0D0A34
:100943000022142A14081708342A7D1708046A5948
:100953003048454020702926287070282629707059
:100963002A252A7072292629707029242970702A51
:100973002D2A707E117F49490E515171117C5556B4
:1009830054447C555654447C565556447C555455D2
:100993004400457E440000447E450000467D4600F9
:1009A30000457C45007F4949413E7C0A11227D3840
:1009B300454644383844464538384645463838462F
:1009C300454639384544453822140814222E5149E6
:1009D300453A3C4142403C3C4042413C3C4241421E
:1009E3003C3C4140413C0C1062110C7F1212120C32
:1009F300403E0149362055565478205456557820A8
:100A030056555678205556557820555455782056C6
:100A130057567824547854580C52527213385556FA
:100A23005418385456551838565556183855545581
:100A33001800497A400000487A4100004A79420090
:100A4300004A784200314A4E4A307A110A0970301E
:100A5300494A483030484A4930304A494A30304A96
:100A6300494A31304A484A3008082A080838645449
:100A73004C3838414220783840422178384241226C
:100A83007838424022780C5052513C7E141414089A
:100A93000C5150513C1E0909295E081515354E3875
:100AA3004446452030484A49203845464520304988
:100AB3004A49207C454645382050507C031F151574
:100AC30035510E151535467C5556554438555655F2
:100AD3001800447C40007F4844404000497F440064
:100AE3007C0812217C78100A09707C0912217C7819
:100AF300110A09703847444738304B484B303E4160
:100B03007F494938443854587C1516354878110ABA
:100B130009104854565520204856552048555655D7
:100B230020204956552004057E0504083C4822012F
:100B33003C4245423C38424522783C4340433C38A2
:100B4300434023780C1160110C4466554C44486AA9
:100B53005948004464554C4448685A480044655613
:100B63004D4448695A490000020102000001020194
:100B73000000010101000102020100000001000068
:100B8300000205020002010201007F05153A503EF2
:100B930055554122181408140C444A4A51515151D5
:100BA3004A4A4474424142747E1111117E7F49497D
:100BB30049367F02010103704E414E707F49494916
:100BC3004161514945437F0808087F3E4949493EF1
:100BD30000417F41007F08142241700E010E707F97
:100BE300020C027F7F0408107F635D495D633E4111
:100BF30041413E413F013F417F0909090663554990
:100C0300414101017F010103017E010308557F5525
:100C130008631408146307487F48075E6101615E37
:100C2300384448304C7C2A2A2A14443804040830B7
:100C33004B4D5930285454442000185552223E0439
:100C430002027C3C4A4A4A3C003C4020007C10287B
:100C5300444041320C30407E2020103E1C20402076
:100C63001C142B2A2A603844444438443C047C44F2
:100C730070282424180C1212526038444C54240453
:100C83003C4420003C4040201C18247E2418442867
:100C93001028440C107E100C38443044380A0A4A99
:100CA3002A1E044434140C201078040018084C48FD
:100CB3003848487848484828187C08087C08281889
:100CC30040484878405454547C0018005840380831
:100CD3000808080801413D090710087C02010E02BB
:100CE30043221E42427E424222120A7F02423F02B6
:100CF300423E0A0A7F0A0A084642221E0403423E73
:100D030002424242427E024F221F024A4A40201CB4
:100D13004222122A46023F424A46064840201E0803
:100D2300464A321E0A4A3E09080E004E201E04455A
:100D33003D0504007F08100044241F040440424280
:100D43004240422A122A0622127B16220040201F0A
:100D53000078000204783F44444444024242221E85
:100D6300040204083032027F0232021222520E00C1
:100D73002A2A2A40382422207040281028060A3EB6
:100D83004A4A4A047F04140C4042427E404A4A4A7B
:100D93004A7E040545251C0F40201F007C007E4031
:100DA300307E402010087E4242427E0E0242221EC6
:0F0DB30042424020180204010200070507000019
:10180F00C10101180001170002080000010D0002BC
:10181F000E00000210000002120000011400011A55
:10182F0000011600011500010C01020A0000C18021
:0B1B6600EF1FAC0670011E4C70F62251
:10195000E4FB7D08C2A4EBC313FBD2A430A4034371
:0F19600003807F3C7E00121B66DDE9AF037E0033
:01196F002255
:021A3800AD07F8
:101A3A007B08C2A4ED1392A47F3C7E00121B66D2DF
:071A4A00A4EDC313FDDBEB6B
:011A51002272
:101A0200D2A47F057E00121B66C2A47F967E0012BE
:0B1A12001B66D2A47F967E00021B66BC
:10151300C2AF121A027FCC121A387F44121A387FD4
:10152300887E13121B66121A027FCC121A387FBEF2
:10153300121A381219508F181219508F1775080084
:101543008F09E509750900F508E5184209C201D3B9
:10155300E50994FFE508940F4013E509F4FFE50856
:10156300F4FEEF2401F509E43EF508D201E5092470
:1015730001FDE43508FCE4120ECDE4FBFA79207892
:0E1583003F120DC2120F068E088F09D2AF2242
:1018E400EFA2E092F1A2E192F0A2E292F3A2E392DB
:1018F400F2A2E492F5A2E592F4A2E692F7A2E792AC
:04190400F6AFF02228
:0F1A8200121AA27FC8121A917FC8121A917FC838
:071A9100AE071FEE70FA2200
:02198F00AD07A2
:10199100E4FCECC39D5014E4FBE4FA7FCB121A91F2
:0B19A1000ABA0FF70BBB83F10C80E7C4
:0119AC002218
:0E1AF400C2ACC2998F993099FDC299D2AC2232
:101AAE00759850758921758DFF758BFCD28ED2ACD1
:031ABE00D2AF2282
:0619AD00ECC3132410FF3F
:1019B300C293C294C2901218E48F807F01121A91CD
:0719C300D290D294D29322CE
:0F18BE00AB22AA23A9248D82758300120FA0FFED
:1018CD00D293C294C2901218E48F807F01121A91A4
:0718DD00D290D294D29322B5
:051A5200121B9BE4FFE4
:101A5700AD07ED540FFF1219B3EDC4540F2410FF57
:031A67000219B3AE
:0C1B1E00AD077F201219B3AF050219B308
:101AC100AC077F211219B3AF041219B3AF05021984
:011AD100B361
:101AD200AC077F221219B3AF041219B3AF05021972
:011AE200B350
:10197000D292E4FF121B947F80121B427F3F121B06
:081980002AE4FF121B36E4FF0C
:07198800EF4440FF0219B318
:0A1A9800121B757F10121B107FFF58
:0C1AA200AD077F811219B3AF050219B324
:0E1B0200AD077F8D1219B3ED4410FF0219B329
:0A1AE300121B027F02121B1E7F017E
:071AED00EF44A0FF0219B352
:071B8600EF44A4FF0219B3B4
:071B8D00EF44A6FF0219B3AB
:0C1B2A00AD077FA81219B3AF050219B374
:071B9400EF44AEFF0219B39C
:071B9B00EF44B0FF0219B393
:041B7100AC07E4FFDA
:071B7500EF44C0FF0219B3A9
:0C1B3600AD077FD31219B3AF050219B33D
:0C1B4200AD077FD51219B3AF050219B32F
:0C1B4E00AD077FD91219B3AF050219B31F
:0E1B1000AD077FDA1219B3ED4402FF0219B3DC
:0C1B5A00AD077FDB1219B3AF050219B311
:051BA2007FE30219B30E
:10184000121B4E7F40121B5AE4FF121B86E4FF124C
:041850001B8DE4FF09
:02185400AC07DF
:10185600E4FBAF03121A52E4FDAF041218CD0DBD1E
:0618660080F70BBB08EC4B
:01186C002259
:0217DA00AC075A
:1017DC00AA05EB2401FFE433FEEAC39FEE6480F814
:1017EC00748098501DAF02121B9BAF1E121A57E447
:1017FC00FDEDC3951F5008AF041218CD0D80F20AF1
:02180C0080D08A
:01180E0022B7
:1019CA00E4FCAF04121A52E4FD7F551218CD7FAA27
:0B19DA001218CD0DBD40F20CBC08E758
:0119E50022DF
:10171400E4FF121A52E4FC7F011218CD0CBC80F7CE
:101724007F07121A52E4FC7F801218CD0CBC80F79C
:10173400E4FCAF04121B9BE4FBEBC394805010AF9A
:1017440003121A577FFF1218CD747F2BFB80EA0C0B
:03175400BC08DFEF
:01175700226F
:041675008D2B8B2C02
:10167900EF24FE6010047021E52B75F005A424F613
:10168900F97406800BE52B75F005A424A6F9740BF3
:1016990035F0752EFFF52F8930AF2C121B9BAF2D1E
:1016A900121A57E4FDAB2EAA2FA930120F87FF1289
:1016B90018CD74012530F530E4352FF52F0DBD0512
:0616C900E4E4FF0218CD6D
:0216CF00AC0766
:1016D1008B278A28892985262DAB257D607F0112DC
:1016E1001675AF04AB27AA28A929120F87FD8526F5
:1016F1002DAB2512167574012529F529E43528F538
:101701002874062526F526AB27AA28A929120F87B2
:0217110070D096
:0117130022B3
:10179B008D28E5252401FFE433FEC3E5289FEE6485
:1017AB0080F87480985027AF28121B9BAF26121A13
:1017BB0057E4FDEDC395275011120F87FF1218CD7B
:0E17CB00740129F9E43AFA0D80E9052880C47A
:0117D90022ED
:02135100AC07E7
:101353007FA31219B3AF051219B3AF031219B3EC7C
:101363001460480460030213F4E4F583F582EBFF91
:10137300C3E5829FE58394005077AF82121988E416
:10138300F526F527C3E5279525E5269400500F7F1D
:10139300C8121A910527E52770EA052680E6E52499
:1013A3002582F582E43583F58380C3E4F583F582F2
:1013B300EBFFC3E5829FE58394005035AF82C3EB17
:1013C3009FFF121988E4F526F527C3E5279525E540
:1013D300269400500F7FC8121A910527E52770EA5B
:1013E300052680E6E5242582F582E43583F58380AE
:0613F300BFE4FF021988AF
:10189700AC03EF4426FF1219B3E4FF1219B3AF05E7
:1018A7001219B3AF341219B3AF041219B37F2F1241
:0718B70019B3AF3502198FD0
:08175800F527752801FBFDFFD8
:10176000AC077FA31219B3AF241219B3AF25121916
:10177000B3EC2429FF1219B3E4FF1219B3AF051219
:1017800019B3AF271219B3AF031219B3AF26121949
:0B179000B37F2F1219B3AF2802198F8E
:051BA7007F2E0219B3BE
:101A1D007F01121B94E4FBFAAF03121A820BBB0079
:0A1A2D00010AE4B503F2EAB401EE89
:011A3700228C
:101A6A007B007A01EB14FF121A82EB1B70011AEB4E
:081A7A004A70F1E4FF021B9425
:1019E600EF14600D047014E4FF121B947F01021BB8
:0C19F60086E4FF121B867F01121B942266
:10186D00C292E4FD7FC8121A910DBDC8F7D2927FC6
:10187D0001121B867F01121B947F0212198FE4FF48
:0A188D00121B947F0212198F80EAEB
:10190800C292E4FD7FC8121A910DBDC8F712197072
:10191800E4FF121AE37F08121A987F221218407FF8
:0419280001021B9409
:10192C00C292E4FD7FC8121A910DBDC8F71219704E
:10193C007F04121AE3E4FF121A987FF11218407F09
:04194C0001021B94E5
:081609007BFF7A0079037F05E5
:081611008D218B228A2389241C
:10161900121B71E52125E0FFC374B79FFF1219B3AF
:10162900EC30E0047F088002E4FF1219B31219AD0F
:10163900E4FDEDD3940F50071218BE0D0D80F3E5AC
:101649002125E0FFC374B69FFF1219B3EC30E00403
:101659007F088002E4FF1219B31219AD7D01EDD3A1
:0B166900940F50071218BE0D0D80F307
:011674002253
:081591007BFF7A0379137F034D
:081599008D218B228A23892495
:1015A100121B71E52125E0FFC374B79FFF1219B328
:1015B100EC30E0047F088002E4FF1219B31219AD88
:1015C100E4FDEDD3941F500DAB22AA23A9241218D8
:1015D100C40D0D80EDE52125E0FFC374B69FFF1218
:1015E10019B3EC30E0047F088002E4FF1219B31252
:1015F10019AD7D01EDD3941F500DAB22AA23A9246F
:071601001218C40D0D80ED6D
:0116080022BF
:1013F900121B71ED25E0FFC374B79FFF1219B3ECFF
:1014090030E0047F088002E4FF1219B31219ADE439
:10141900FAEAD3940F5021EBC454F02453F582E433
:101429003402F583E5822AF582E43583F583E49372
:10143900FF1218CD0A0A80D9ED25E0FFC374B69FC3
:10144900FF1219B3EC30E0047F088002E4FF12199F
:10145900B31219AD7A01EAD3940F5021EBC454F0B9
:101469002453F582E43402F583E5822AF582E435D2
:0D14790083F583E493FF1218CD0A0A80D991
:011486002243
:10121A007B02E4FD7F011213F9E4FB7F021213F94A
:10122A000B7F031213F91B7F041213F97BFF7A0059
:10123A0079D37F051215997B01E4FD7F071213F913
:10124A001B7F081213F97BFF7A0079F37F091215C5
:10125A0099E4FBFD7F0B1213F90B7F0C1213F97B38
:10126A00FF7A0179137F0D1215997B017D017F01A8
:10127A001213F90B7F021213F97BFF7A0079037FAD
:10128A0003121611E4FB7D017F041213F97F051284
:10129A0013F97BFF7A0079037F06121611E4FB7DAE
:1012AA00017F071213F97F081213F97BFF7A03797A
:1012BA00537F0B1215997BFF7A0179D37D017F0D3C
:1012CA001215997BFF7A0279F37D027F0112159933
:1012DA007D021215917D021216097BFF7A0379733A
:1012EA007D027F0D1215997BFF7A0379337D037F87
:1012FA00011215997D031215917D031216097B06B9
:10130A007D037F071213F97B027F081213F97BFF13
:10131A007A0379D37F091216117B047D037F0A129F
:10132A0013F97BFF7A0379937F0C1216117BFF7AEC
:10133A000379A37D037F0D1216117BFF7A0379B31C
:07134A007D037F0E02161166
:0A1B7C00758901D2A9D2AFD28C22E4
:101030007590FF75B0FF121A0212192C121AAE7FAA
:101040000112198F7F55121AF47FAA121AF4121284
:101050001A1215138E0A8F0B7C037DE8120FCD8FA9
:101060000DAE0AAF0B7C037DE8120FCD7E007F64CE
:10107000CFCDCFCECCCE120FCD8E0E8F0FAE0AAF0E
:101080000B7C007D64120FCD7E007F0ACFCDCFCECA
:10109000CCCE120FCD8E108F11AE0AAF0B7C007D1F
:1010A0000A120FCD8C128D13AB0D7D027F07121328
:1010B000F9AB0F7F081213F9AB117F091213F97BFB
:1010C000FF7A0379D37F0A121611AB137D027F0BCF
:1010D0001213F97F55121AF4AF17121AF47FAA12DD
:1010E0001AF4AF18121AF47F0512198FE4FF1218C0
:1010F000547F08121B75E4FF1218547BFF7A0379A2
:10110000FB752506E4F5267527807D0212179B7F67
:101110000A12198F121A6A121A1D121A6A121A1D4D
:101120007F0112198F7524017525207B40E4FDFF96
:101130001213517F0112198F7524017525207B40F0
:10114000E4FD7F011213517F0112198F121BA7E4D6
:10115000F524752520752601121758E4F524752508
:101160002075261F121758E4F524752520752601D1
:10117000F5277528027B03FDFF121760E4F524753F
:10118000252075261FF5277528027B03FD7F011298
:101190001760E4F524752520752601F527752802CA
:1011A0007B077D047F01121760E4F5247525207507
:1011B000261FF5277528027B077D04FF1217601292
:1011C0001BA77FFF1218547F0112198F1219CA7FB3
:1011D0000112198FE4FF1218541217147F0112190B
:1011E0008F7BFF7A0379E37525037526257F01122E
:1011F00016CF7BFF7A0379EF7525047526167F01DC
:101200001216CF7F0112198FE4FF1218547FAA1211
:0A1210001AF47F55121AF40210447C
:100DC200EC4D6011E8497017ED33EC3304600DE42B
:100DD200FCFFFEFD22E933E8330470F8020F7212C1
:100DE2000F3D58046009E4CC2481500628500902C2
:100DF2000F7C284003020F79C0E0EB4A7044B980AF
:100E020006D0E0FB020F68EF4E701CBD8008EBFFBE
:100E1200EAFEE9FD80EBE98DF0A4FEE5F0020EABFF
:100E2200E9CDF9EAFEEBFFEF89F0A4FCE5F0CE890B
:100E3200F0A42EFFE435F0CD89F0A42DFEE435F0C8
:100E42008067EF4E7005BD80D780C3EF8BF0A4ACF6
:100E5200F0EE8BF0A42CFCE435F0F8EF8AF0A42C31
:100E6200E5F038FCE433CB8DF0A42CFCE5F03BF844
:100E7200EE8AF0A42CFCE5F038F8E433CF89F0A434
:100E82002CFCE5F038CF3400CE89F0A42FFFE5F03A
:100E92003EFEE433C98DF0A42EFEE5F039CD8AF092
:100EA200A42FFFE5F03EFEE43DFD33D0E0FB50070A
:100EB2000BBB000F020F7CEC2CFCEF33FFEE33FE7A
:060EC200ED33FD020F54A8
:100EC80075F020800E75F010800575F0087D007EA5
:100ED800007F003392D530D503121022EC33401036
:100EE800EF33FFEE33FEED33FDEC33FCD5F0ED22AE
:0E0EF800E5F0247EA2D513CC92E7CDCEFF22EA
:100F0600EDD2E7CD33EC3392D524814006E4FFFEE3
:100F1600FDFC22FCE4CFCECDCC24E0501174FF8042
:100F2600EDC3CC13CCCD13CDCE13CECF13CF0470DF
:070F3600F030D5DE021022AD
:100F3D00E9D2E7C933E833F892D5EDD2E7CD33ECFA
:070F4D0033FC5002B2D52273
:100F5400EC30E7100FBF000C0EBE00080DBD0004FE
:100F64000BEB6014A2D5EB13FCED92E7FD2274FFAA
:100F7400FCFDFEFF22E480F8A2D574FF13FC7D8003
:030F8400E480EF17
:10149300021030E493A3F8E493A34003F68001F22F
:1014A30008DFF48029E493A3F85407240CC8C3335A
:1014B300C4540F4420C8834004F456800146F6DF29
:1014C300E4800B010204081020408090180FE47E92
:1014D300019360BCA3FF543F30E509541FFEE4931E
:1014E300A360010ECF54C025E060A840B8E493A3E5
:1014F300FAE493A3F8E493A3C8C582C8CAC583CA10
:10150300F0A3C8C582C8CAC583CADFE9DEE780BEC7
:01183F0000A8
:100F8700BB010689828A83E0225002E722BBFE0268
:090F9700E32289828A83E493229B
:100FA000BB010CE58229F582E5833AF583E0225006
:100FB00006E92582F8E622BBFE06E92582F8E22250
:0D0FC000E58229F582E5833AF583E493226A
:100FCD00BC000BBE0029EF8DF084FFADF022E4CC08
:100FDD00F875F008EF2FFFEE33FEEC33FCEE9DECD1
:100FED00984005FCEE9DFE0FD5F0E9E4CEFD22ED17
:100FFD00F8F5F0EE8420D21CFEADF075F008EF2F61
:10100D00FFED33FD4007985006D5F0F222C398FD51
:05101D000FD5F0EA22EE
:0E102200C3E49FFFE49EFEE49DFDE49CFC22DF
:00000001FF
