:100003000000000000000000002F000000000700B7
:10001300070000147F147F1400242A7F2A12006231
:1000230064081323003649552250000005030000DD
:1000330000001C224100000041221C000014083E65
:1000430008140008083E0808000000A0600000082B
:10005300080808080000606000000020100804027F
:10006300003E5149453E0000427F4000004261513D
:100073004946002141454B31001814127F100027D7
:1000830045454539003C4A4949300001710905039A
:1000930000364949493600064949291E00003636CB
:1000A300000000005636000000081422410000142E
:1000B300141414140000412214080002015109060B
:1000C30000324959513E007C1211127C007F49498C
:1000D3004936003E41414122007F4141221C007FBD
:1000E30049494941007F09090901003E4149497ACB
:1000F300007F0808087F0000417F41000020404145
:100103003F01007F08142241007F40404040007FB0
:10011300020C027F007F0408107F003E4141413EF4
:10012300007F09090906003E4151215E007F09193C
:1001330029460046494949310001017F0101003F39
:100143004040403F001F2040201F003F4038403FB9
:10015300006314081463000708700807006151491D
:10016300454300007F41410000552A552A550000B0
:1001730041417F000004020102040040404040402E
:10018300000001020400002054545478007F4844C6
:10019300443800384444442000384444487F0038FD
:1001A3005454541800087E0901020018A4A4A47C26
:1001B300007F080404780000447D400000408084F0
:1001C3007D00007F102844000000417F4000007C38
:1001D30004180478007C0804047800384444443844
:1001E30000FC242424180018242418FC007C080490
:1001F300040800485454542000043F444020003C69
:100203004040207C001C2040201C003C4030403CEF
:10021300004428102844001CA0A0A07C004464547F
:100223004C441414141414140000000000000000C3
:100233000000000000000000000000F800000000C3
:10024300000000333000000000100C06100C060004
:10025300000000000000000040C07840C07840006B
:10026300043F04043F040400007088FC08300000CD
:10027300001820FF211E0000F008F000E018000025
:1002830000211C031E211E0000F0088870000000DE
:100293001E2123241927211010160E000000000030
:1002A3000000000000000000000000E0180402004D
:1002B300000000071820400000020418E0000000BE
:1002C3000040201807000000404080F080404000BC
:1002D3000202010F01020200000000F00000000012
:1002E3000101011F010101000000000000000000E6
:1002F30080B070000000000000000000000000005B
:1003030000010101010101010000000000000000E3
:10031300003030000000000000000000806018047E
:10032300006018060100000000E010080810E0005B
:10033300000F102020100F00001010F80000000024
:100343000020203F2020000000700808088870006B
:1003530000302824222130000030088888483000EB
:100363000018202020110E000000C02010F800000B
:1003730000070424243F240000F8088888080800A4
:100383000019212020110E0000E0108888180000B9
:10039300000F112020110E0000380808C83808008B
:1003A3000000003F0000000000708808088870000B
:1003B300001C222121221C0000E010080810E0008C
:1003C3000000312222110F00000000C0C000000015
:1003D300000000303000000000000080000000003A
:1003E3000000806000000000000080402010080032
:1003F30000010204081020004040404040404000FB
:1004030004040404040404000008102040800000D5
:100413000020100804020100007048080808F000DA
:100423000000003036010000C030C828E810E000AA
:100433000718272423140B000000C038E000000035
:10044300203C23020227382008F88888887000009F
:10045300203F202020110E00C03008080808380073
:10046300071820202010080008F808080810E000EA
:10047300203F202020100F0008F88888E80810008B
:10048300203F20202320180008F88888E80810005F
:10049300203F200003000000C03008080838000097
:1004A30007182020221E020008F808000008F80898
:1004B300203F210101213F20000808F8080800001F
:1004C3000020203F2020000000000808F808080052
:1004D300C08080807F00000008F888C028180800CA
:1004E300203F20012638200008F808000000000003
:1004F300203F20202020300008F8F800F8F80800FA
:10050300203F003F003F200008F830C00008F808F3
:10051300203F200007183F00E01008080810E00003
:100523000F10202020100F0008F808080808F0001A
:10053300203F210101010000E01008080810E0003D
:100543000F18242438504F0008F8888888887000D2
:10055300203F2000030C3020007088080808380072
:100563000038202121221C00180808F80808180068
:100573000000203F2000000008F808000008F808E9
:10058300001F202020201F000878880000C838089A
:10059300000007380E010000F80800F80008F80012
:1005A300033C0700073C03000818688080681808AC
:1005B30020302C03032C30200838C800C83808002A
:1005C3000000203F2000000010080808C838080079
:1005D3002038262120201800000000FE020202001D
:1005E3000000007F40404000000C30C000000000CD
:1005F300000000010638C00000020202FE000000F5
:10060300004040407F00000000000402020204009A
:1006130000000000000000000000000000000000D7
:1006230080808080808080800002020400000000BF
:1006330000000000000000000000808080800000B7
:100643000019242222223F2008F8008080000000A5
:10065300003F112020110E00000000808080000068
:10066300000E112020201100000000808088F80077
:10067300000E112020103F200000808080800000A9
:10068300001F222222221300008080F0888888180D
:100693000020203F20200000000080808080800018
:1006A300006B94949493600008F8008080800000AD
:1006B300203F210000203F20008098980000000088
:1006C3000020203F202000000000008098980000B8
:1006D30000C08080807F000008F8000080808000D8
:1006E300203F24022D302000000808F800000000FD
:1006F3000020203F202000008080808080808000B8
:10070300203F20003F20003F808000808080000049
:10071300203F210000203F200000808080800000D7
:10072300001F202020201F00808000808000000008
:1007330080FFA12020110E00000000808080800037
:10074300000E112020A0FF80808080008080800028
:1007530020203F2120000100000080808080800055
:100763000033242424241900008080E080800000CA
:100773000000001F20200000808000000080800017
:10078300001F202020103F20808080000080808078
:1007930000010E3008060100808000800080808008
:1007A3000F300C030C300F0000808000808080002D
:1007B3000020312E0E312000808080000080808058
:1007C30080818E7018060100008080808080800008
:1007D3000021302C2221300000000000807C020226
:1007E30000000000003F404000000000FF00000048
:1007F30000000000FF0000000002027C80000000F7
:100803000040403F00000000000601010202040412
:080813000000000000000000DD
:100A50002070081010101010FF10F0121CD0101091
:100A6000104020100C0310083F42414040407000ED
:100A700000FE8484848482828282C0800020203FA1
:100A800020202020203F20202030201413927E326E
:100A90005292007C4444447C00010100FF494949D2
:100AA000494949FF000000B897929094B810007F20
:100AB0004848447420FF0A0A4A8A7F00003F4444A1
:030AC0004272205F
:050BFC00F583E493FF06
:100C01007E08D293C290AD061EED6014EF30E7046A
:100C1100D2918002C291D290C290EF25E0FF80E68E
:010C210022B0
:0D0BA10024B0FF120BAE7F01120BAE7F10CF
:100BAE007E08C293C290AD061EED6014EF30E704CE
:100BBE00D2918002C291D290C290EF25E0FF80E6E2
:010BCE002204
:100C4300AC07ED24B0FF120BAEEC54F0C4540F44C8
:0E0C530010FF120BAEEC540F4401FF020BAE6B
:020C7B00AC07C4
:100C7D00E4FBEB120BA1E4FAAF04120C010ABA80EB
:050C8D00F70BBB08EDB0
:010C9200223F
:100C9300E4FCEC120BA1E4FBE4FF120C010BBB80A0
:050CA300F70CBC08ED98
:010CA8002229
:100C6100EF4E60157D377C05ED1DAA0470011C4A0D
:090C710070F6EF1F70EA1E80E727
:010C7A002257
:10081B00D290C2927F327E00120C61D2927FAE12C6
:10082B000BAEE4FF120BA97F40120BAE7F81120BB4
:10083B00AE7FCF120BAE7FA1120BAE7FC8120BAEE9
:10084B007FA6120BAE7FA8120BAE7F3F120BAE7FB3
:10085B00D3120BAEE4FF120BAE7FD5120BAE7F8023
:10086B00120BAE7FD9120BAE7FF1120BAE7FDA12E9
:10087B000BAE7F12120BAE7FDB120BAE7F40120B57
:10088B00AE7F20120BAE7F02120BAE7F8D120BAE22
:10089B007F14120BAE7FA4120BAE7FA6120BAE7F92
:0F08AB00AF120BAEE4FF120C7BE4FDFF020C4317
:0A0AC4008F798D7A8B7B8A7C897D07
:100ACE00E4F57EFCF57FAB7BAA7CA97D857F8275E4
:100ADE008300120BCF604224E0F57EE579D3947E3D
:100AEE004005E4F579057AAD7AAF79120C43E4FC52
:100AFE0075F006E57EA42403F582E5F03400F58357
:100B0E00E5822CF582E43583120BFC0CBC06E174F5
:090B1E00062579F579057F80AD0B
:010B270022AB
:0A08BA008F798D7A8B7B8A7C897D13
:1008C400E4F57EFCF57FAB7BAA7CA97D857F8275F0
:1008D4008300120BCF606D24E0F57EE579D3947824
:1008E4004005E4F579057AAD7AAF79120C43E4FC5E
:1008F40075F010E57EA42CF582E435F0F583E582ED
:10090400242BF582E5833402120BFC0CBC08E1E5D0
:100914007A04FDAF79120C43E4FC75F010E57EA473
:100924002CF582E435F0F583E5822433F582E58302
:100934003402120BFC0CBC08E174082579F5790526
:040944007F0208CA5C
:01094800228C
:040B28008F79AA0512
:100B2C00E4FCF57AEB75F01CA4F58285F083AF79C3
:100B3C00120C43E4FCAF8274082FF8E6FF120C0190
:100B4C00A30CBC0EF0EA04FDAF79120C43E4FCAF2D
:0F0B5C008274082FF8E6FF120C01A30CBC0EF0F8
:010B6B002267
:100C22004F4C454400636869757369724079616825
:100C32006F6F2E636E00323031312D30392D3033EB
:010C420000B1
:100B6C00C3EF9401EE6480948050047E007F01E416
:100B7C00FDFCC3ED9FEE6480F8EC6480985015E4A6
:100B8C00FBFA0BBB00010ABA01F8BBF4F50DBD0072
:040B9C00010C80DEEA
:010BA0002232
:1009D500E4F57812081B7FFF120C7B7FE87E03127B
:1009E5000B6CE4FF120C7B7FE87E03120B6CE4FBBF
:1009F500FD7F24120B287B01E4FD7F32120B287B3F
:100A050002E4FD7F40120B287B03E4FD7F4E120BB1
:100A1500287BFF7A0C79227D047F301208BA7BFF90
:100A25007A0C79277D067F10120AC47BFF7A0C7930
:100A3500387D077F22120AC47FD07E07120B6C1205
:0B0A45000C937FD07E07120B6C808B9F
:03000000020949A9
:0C094900787FE4F6D8FD75817F020990EC
:100BCF00BB010CE58229F582E5833AF583E02250DB
:100BDF0006E92582F8E622BBFE06E92582F8E22225
:0D0BEF00E58229F582E5833AF583E493223F
:100955000209D5E493A3F8E493A34003F68001F2DA
:1009650008DFF48029E493A3F85407240CC8C333A3
:10097500C4540F4420C8834004F456800146F6DF72
:10098500E4800B0102040810204080900A50E47EA8
:10099500019360BCA3FF543F30E509541FFEE49367
:1009A500A360010ECF54C025E060A840B8E493A32E
:1009B500FAE493A3F8E493A3C8C582C8CAC583CA59
:1009C500F0A3C8C582C8CAC583CADFE9DEE780BE11
:010AC3000032
:00000001FF
