:10065E00464D2053544552454F20524144494F2058
:10066E0000464D20202020202020564F4C202020B8
:06067E0020000000000056
:0A075700080CD0000000004090885C
:1006A9001207487F2012059FE4F518740C2518F8E5
:1006B900E6FF12059F0518E518C3940840ED0200EE
:0106C9002F01
:1004F6008B188A19891A1207487F2112059F7F01D6
:100506001205E2AB18AA19A91AEF1201347F0112DB
:1005160005E2AB18AA19A91A900001EF1201467F4D
:10052600011205E2AB18AA19A91A900002EF1201EE
:1005360046E4FF1205E2AB18AA19A91A900003EFC8
:0605460012014602002F25
:1006CA007F327E0012071FE4F50C750D021206A98F
:1006DA007F0A7E0012071F750CD0750D010206A94C
:10054C0078147C007D007BFF7A0679807E007F0426
:10055C0012010E530FEF430C011206A9E51420E60D
:10056C00127F147E0012071F7B007A00791412048C
:10057C00F680E9E5145403AD15FCE515AE047806D8
:10058C00C333CE33CED8F9FDAC06ECF50EAF05EF88
:02059C00F50F59
:01059E00223A
:10024800E50EFEE50F54C07C002400FFEC3EFEEFF7
:100258007806CEC313CE13D8F9FF7C007D64120153
:1002680068EF24D8FFEE3453FEE43401FDEC33FC90
:10027800E47B64FAF9F81201B68F0B8E0A8D098CAB
:10028800087F057814E4F608DFFCE47BE87A03F9D4
:10029800F8AF0BAE0AAD09AC081201B68F14E47BB7
:1002A800E87A03F9F8AF0BAE0AAD09AC081201B64B
:1002B800AC00AD01AE02AF03E47B64FAF9F81201B9
:1002C800B68F15E47B64FAF9F8AF0BAE0AAD09AC4A
:1002D800081201B6AC00AD01AE02AF03E47B0AFA26
:1002E800F9F81201B68F1675172EE47B0AFAF9F899
:1002F800AF0BAE0AAD09AC081201B6AF038F18E513
:1003080014701AE5152430F514E5162430F5158512
:100318001716E5182430F51775182080187430253D
:1003280014F51474302515F51574302516F5167462
:10033800302518F5187D027F03120705AF14120641
:10034800EAAF151206EAAF161206EAAF171206EA66
:05035800AF180206EAE7
:10062200E513540FFF75F00A84F514EF75F00A8490
:1006320085F015E51470088515147515208006746B
:10064200302515F51574302514F5147D027F0D1231
:0C0652000705AF141206EAAF150206EA15
:10035D007580FF7590FF75A0FF1204997A067B5E7C
:10036D00E4F518F5197D01FF1200037A067B6FE4A1
:10037D00F518F5197D02FF1200031206CA20941319
:10038D007F147E0012071F209409430C0212054CA6
:10039D003094FD2095137F147E0012071F209509C0
:1003AD00530CFD12054C3095FD2096247F147E00D4
:1003BD0012071F20961AE513540FC3940F50117591
:1003CD000CD0750D01530FEF05131206A93096FDD4
:1003DD002097247F147E0012071F20971AE51354CF
:1003ED000FD394004011750CD0750D01530FEF15FF
:1003FD00131206A93097FD12062212024802038A33
:05076200000000002270
:10071F00EF1FAA0670011E4A600BE4FDEDC394782B
:05072F0050EE0D80F703
:0107340022A2
:10073500C2A0D2A1D2A2120762E580339201C2A261
:02074500A2010F
:01074700228F
:04068400C2007F38F9
:100688008F1B30000512073540FBC2A0C2A1C2A2D1
:10069800120762851B80120762D2A2120762C2A2E9
:0106A800222F
:1006EA008F1B12073540FBD2A0C2A1C2A2851B8074
:0B06FA00120762D2A2120762C2A22205
:100499007F327E0012071F1206847F057E00120735
:1004A9001F1206847F057E0012071F1206847F052E
:1004B9007E0012071FD2007F381206887F057E0052
:1004C90012071FD2007F0C1206887F057E001207D3
:1004D9001FD2007F061206887F057E0012071FD2F1
:0D04E900007F011206887F057E0002071FBC
:10070500EF540FFF53050FBD01054307808006BD5C
:0A07150002034307C0D20002068869
:040003008A168B17B7
:10000700120705E4F51AE517251AF582E43516F502
:1000170083E493FF1206EAAF19AE1812071F051AF9
:07002700E51AC3941040DF4D
:01002E0022AF
:0F074800D2B4D2B5120762C2B4120762C2B52290
:0C002F00C2B4D2B5120762D2B40207625C
:02059F008F1BB0
:1005A100E4F51CE51B30E704D2B48002C2B4E51BBC
:1005B10025E0F51B120762D2B5120762C2B5051C10
:1005C100E51CC3940840DCD2B4120762D2B512070D
:1005D1006230B405E4F51D8003751D01C2B5AF1D80
:0105E10022F7
:0205E2008F1B6D
:1005E400E4F51DD2B4751C08E51D25E0F51DD2B552
:1005F40012076230B402051DC2B5120762151CE56C
:100604001CD3940050E2E51BB40104C2B48002D2AE
:0D061400B4120762D2B5120762C2B5AF1D65
:0106210022B6
:0300000002040DEA
:0C040D00787FE4F6D8FD758120020454CD
:10003E00E709F608DFFA8046E709F208DFFA803EA4
:10004E0088828C83E709F0A3DFFA8032E309F60891
:10005E00DFFA8078E309F208DFFA807088828C83F9
:10006E00E309F0A3DFFA806489828A83E0A3F608AD
:10007E00DFFA805889828A83E0A3F208DFFA804C87
:10008E0080D280FA80C680D4806980F2803380105E
:10009E0080A680EA809A80A880DA80E280CA8033C7
:1000AE0089828A83ECFAE493A3C8C582C8CCC5833F
:1000BE00CCF0A3C8C582C8CCC583CCDFE9DEE7800F
:1000CE000D89828A83E493A3F608DFF9ECFAA9F08E
:1000DE00EDFB2289828A83ECFAE0A3C8C582C8CCE4
:1000EE00C583CCF0A3C8C582C8CCC583CCDFEADEFD
:1000FE00E880DB89828A83E493A3F208DFF980CC5F
:10010E0088F0EF60010E4E60C388F0ED2402B40457
:10011E000050B9F582EB2402B4040050AF232345FE
:06012E00822390008E7395
:10013400BB010689828A83F0225002F722BBFE01AA
:02014400F322A4
:10014600F8BB010DE58229F582E5833AF583E8F0EF
:10015600225006E92582C8F622BBFE05E92582C89B
:02016600F22283
:10016800EF8DF0A4A8F0CF8CF0A428CE8DF0A42EAB
:02017800FE2265
:10017A0075F008758200EF2FFFEE33FECD33CDCC3C
:10018A0033CCC58233C5829BED9AEC99E5829840BF
:10019A000CF582EE9BFEED9AFDEC99FC0FD5F0D69C
:1001AA00E4CEFBE4CDFAE4CCF9A88222B800C1B9C6
:1001BA000059BA002DEC8BF084CFCECDFCE5F0CB04
:1001CA00F97818EF2FFFEE33FEED33FDEC33FCEB3D
:1001DA0033FB10D703994004EB99FB0FD8E5E4F9F8
:1001EA00FA227818EF2FFFEE33FEED33FDEC33FCE5
:1001FA00C933C910D7059BE99A4007EC9BFCE99AD9
:10020A00F90FD8E0E4C9FAE4CCFB2275F010EF2F1D
:10021A00FFEE33FEED33FDCC33CCC833C810D7071D
:10022A009BEC9AE899400AED9BFDEC9AFCE899F858
:0E023A000FD5F0DAE4CDFBE4CCFAE4C8F922EB
:1004190002035DE493A3F8E493A34003F68001F299
:1004290008DFF48029E493A3F85407240CC8C333E4
:10043900C4540F4420C8834004F456800146F6DFB3
:10044900E4800B0102040810204080900757E47EE5
:10045900019360BCA3FF543F30E509541FFEE493A8
:10046900A360010ECF54C025E060A840B8E493A36F
:10047900FAE493A3F8E493A3C8C582C8CAC583CA9A
:10048900F0A3C8C582C8CAC583CADFE9DEE780BE52
:010761000097
:00000001FF
