:03000000021311D7
:0C131100787FE4F6D8FD7581C9020B4D11
:0507F5000000000000FF
:080C46008F228B238A248925EB
:100C4E00756900756A00756B267D037F2212104F41
:100C5E007D087F091212C77D077F0F12104F7D038B
:100C6E007F111212EE7F0412080075261E752700E2
:100C7E00752801852229AB69AA6AA96B120026EF95
:100C8E00700AE5286410452760027F24AB23AA244E
:100C9E00A925E529120431AB23AA24A92590000128
:050CAE00E52A120443D9
:010CB300221E
:0604F0008B228A238924FF
:1004F600E4F529F52A78BE7C00FD7BFF7A0779F5BD
:10050600FE7F051203C5756E00756F0075702B7D35
:10051600287F1A12104F7D087F091212C77D037FAC
:100526002212104F7F04120800E52A5407F52760AF
:1005360019E52A131313541F04F528E527C454F0AC
:100546002527FD7F0F12104F8009E52A1313135438
:100556001FF528752B1E752E93E52A131313541FAA
:10056600FFC454F02420FFE527540F2FF52FE4F5A0
:1005760026E526C39528501274BE2526F8E6FF7494
:10058600302526F8A607052680E7E5282402F52D5E
:10059600E433F52CAB6EAA6FA9701200268F25E501
:1005A6002A131313541F24BEF8E6FDE52564E870EC
:1005B60034F526E52A131313541FFFC374059FFE53
:1005C600E526C39E5013742F2526F8E6FEE5262F52
:1005D60024BEF8A606052680DA74BE2FF8E64DF688
:1005E600852E2A804CE5257048F526E52DAE2C781B
:1005F60003CEC313CE13D8F9FFE526C39FE49E505E
:1006060023E52DAE2C7803CEC313CE13D8F9C395AC
:1006160026242DF8E6FFC37404952624BEF8A60703
:10062600052680C7E52A131313541F24BEF8E64D8A
:10063600F6E52564E87002A12FE5257033F52674EA
:10064600BE2526F8E6AB22AA23A924852682758331
:100656000012044374BE2526F8E662290526E5261F
:10066600B404DC74BE2526F8E529666003752526E4
:090676007D207F1A1212C7AF2586
:01067F002258
:060BCF008B228A23892419
:100BD500E4F528F56C756D00756E297D0F7F221281
:100BE500104F7D087F091212C77F0412080075296E
:100BF5001E752A00752B07752C93752D70E4FFABB8
:100C050022AA23A9248F82758300120404FE622878
:100C1500742E2FF8A6060FBF04E5852832AB6CAA03
:100C25006DA96E120026EF7017E52B6408452A6042
:100C3500047F24800BAB25AA26A927E52C120431B5
:010C4500228C
:0207AD008F219A
:1007AF00E4F522ED75F018A4AEF02480F524E43EB4
:1007BF00F523E521B4610B740C2524F524E43523CE
:1007CF00F523752B00752C00752DBE120D198F2278
:1007DF00EF7010FB7A0079BE7D0CAF24AE231210A0
:0507EF008A8F22AF22F9
:0107F40022E2
:060D19008B288A29892ABB
:100D1F00E4FFFEFDAB28AA29A92A8F827583001252
:100D2F000404FC540FFEECC4540FFDEEF4FCC45449
:100D3F00F04EFCAB2BAA2CA92D75F002EFA42401C9
:100D4F00F582E435F0F583EC120443EDF4FCC45462
:100D5F00F04DFCAB2BAA2CA92D75F002EFA4F58258
:0D0D6F0085F083EC1204430FBF06A97F003E
:010D7C002254
:020D7D008F25C0
:100D7F00ED75F018A4AEF02480F570E43EF56F75B4
:100D8F006C00756D00756E6F756900756A00756B17
:100D9F0026E525B4610B740C2570F570E4356FF5FD
:100DAF006F78297C007D00AB6CAA6DA96E7E007FE9
:100DBF00021203C585292B852A29852B2A75260B17
:0F0DCF00752700752802AB69AA6AA96B12002666
:010DDE0022F2
:0610C7008B288A29892A0A
:1010CD00756E00756F0075702B7F04120800752BFF
:1010DD0019752C00752D0C782E7C007D00AB28AA7F
:1010ED0029A92A7E007F0C1203C5AB6EAA6FA970C9
:0310FD00120026B8
:0111000022CC
:0A0AC3008F288D298B2A8A2B892C9D
:100ACD0075710075720075732E7D0F7F2212104F98
:100ADD007F04120800752E0C752F007530068528C1
:100AED003185293278337C007D00AB2AAA2BA92CC5
:100AFD007E007F041203C5AB71AA72A97312002682
:100B0D008F2DE52D70377F05121009EF5407600505
:100B1D00752D248028752E14E4F52FF530AB71AAB0
:100B2D0072A9731200268F2DE52D70117F091210F9
:0F0B3D0009EF30E305E4F52D8003752DFCAF2D96
:010B4C002286
:080DDF008F228B238A24892551
:100DE700756A00756B00756C277F041208007D0F0C
:100DF7007F2212104F75271E752800752902752A44
:100E07003085222BAB6AAA6BA96C1200268F26E5C8
:100E1700267020E5296480452860057526248013FF
:100E2700A825AC24AD237B007A00792A7E007F10A9
:050E37001203C5AF2607
:010E3C002293
:080A07008F218B228A23892430
:100A0F00756900756A00756B267F051208007D07F2
:100A1F007F2212104F75261E752700752802752923
:100A2F00A085212AAB69AA6AA96B1200268F25E53A
:100A3F002564216027E52864044527600575252472
:100A4F00801A53290FE52924F66009240A700A75C4
:100A5F0025238008E4F5258003752522E5257051AF
:100A6F007F0512080075261E752700752810782936
:100A7F007C007D00AB22AA23A9247E007F101203E5
:100A8F00C5AB69AA6AA96B1200268F25E5256421DB
:100A9F00601A53290FE52924F66009240A700A7594
:100AAF0025F18008E4F52580037525227F041208BF
:030ABF0000AF2560
:010AC2002211
:0A0680008F228D238B248A25892602
:10068A00756B00756C00756D287F051208007D6317
:10069A007F2312104F7D3F7F1212104F7D077F225A
:1006AA0012104F75281E752900752A0285222B857E
:1006BA00232CAB6BAA6CA96D1200268F27E5276441
:1006CA0021602FE52A6404452960057527248022C4
:1006DA00532B0FE52B14601224F76009240A700FBC
:1006EA00752723800DE4F527800875272580037573
:1006FA002722E52770587F0512080075281E7529DC
:10070A0000752A04756B00756C00756D28782B7C52
:10071A00007D00AB24AA25A9267E007F041203C50A
:10072A00AB6BAA6CA96D1200268F27E5277012E51C
:10073A002A6404452960057527248012E4F5278078
:10074A000DE527B42105E4F5278003752726E5275B
:10075A00704E75281EF529752A02752BB085232C33
:10076A00AB6BAA6CA96D1200268F27E5276421605E
:10077A002FE52A6404452960057527248022532B16
:10078A000FE52B14601224F76009240A700F7527ED
:10079A0023800DE4F5278008752725800375272215
:0207AA00AF2777
:0107AC00222A
:10117300E4F521FB7A00792275221EF523752402FA
:10118300752550F5261200268F21E521600C642178
:101193006005E521B4E503E4F521E4FD7F011210C8
:0311A3004FAF212A
:0111A6002226
:100B4D00121282120E997F41120CB43001FDC201B6
:100B5D00787EE6751A00F51BE51A70EFE51B14B4E7
:100B6D000C0050E7900B7725E073618F61946199CC
:100B7D00619E61A361A861AD61B261B761BC61C1E4
:100B8D0061C612001A80C4120E3D80BF1211A780DB
:100B9D00BA1211D880B512110180B01212DB80ABE0
:100BAD00120EF280A6120FA180A1121301809C12C9
:100BBD0012058097120FE78092787E7601E408F691
:020BCD0080891D
:100FE700787E7601E408F6121142C292C28212128A
:060FF70030D282D29222EA
:1012820053890F438921438780759850758BF47574
:101292008DF4D28E75B0FF75A0FF7590FF7580FF3B
:0412A20043A89022AB
:100E99001212301212301212301212301212301293
:100EA900123012123012090F8F21E521600C7F0ACE
:100EB9007E0012123412090F8F21E521600C7F0A7E
:100EC9007E0012123412090F8F21E521701AD20007
:100ED900C2927F64FE121234D2927FC87E0012122F
:080EE90034C292121230D292C1
:010EF10022DE
:100E3D00787FE6FF7B007A007980120C468F21E5E2
:100E4D0021600F787FE6FF7B007A007980120C46D7
:100E5D008F21E521600A787E760108A621021142D4
:100E6D007880E6FFB402057515028015EFB4040510
:100E7D00751501800CEFB4100575150380037515FC
:0B0E8D0004787E760308A621121142B3
:010E98002237
:1011A7007B007A0079111204F08F21E521600A781B
:1011B7007E760108A6210211427880A61108A612A0
:1011C70008A61308A614787E760508A621121142F0
:0111D70022F5
:1011D8007525007526007527807B007A0079111225
:1011E8000BCF8F21E521600A787E760108A62102BF
:0C11F8001142787E760308A621121142F5
:0112040022C7
:10110100752200752300752411787FE6FF08E6FD3E
:10111100120D7D8F21E521701D787FE6FF7881E634
:10112100FDAB22AA23A924120AC38F21787E76015E
:0911310008A6210211421211422C
:01113A002292
:1012DB00787FE6FF08E6FD7B007A0079811207AD87
:0312EB0002113BB2
:06001A0012117302113BFC
:100EF20075212675220075230075249275250075CB
:100F0200260075271185222B85232C85242D7B0015
:100F12007A007981120D19EF701FAB22AA23A9243E
:100F22001210C7EF7013787FE6FF7881E6FDAB25DC
:100F3200AA26A927120AC38F21E521700A787E7694
:070F42000108A62112114273
:010F49002285
:100FA100787FE6FF7B007A007980120DDF8F21E5E3
:100FB100217027E51564016005E515B40206787E08
:100FC1007611800FE515B40106787E7609800478E4
:100FD1007E7610787FA621021142787E7601787F95
:050FE100A621121142DF
:010FE60022E8
:10130100787FE6FF7B007A007980120A0702113BA1
:10120500787FE6FF08E6FD7B007A0079811206808B
:101215008F21E521700A787E760108A62102114208
:0A122500787E760108A6211211421E
:01122F00229C
:07113B00787E760108A6078B
:10114200C2ACC299787EE6FFE4FEEF2401FDE433EF
:10115200FCEEC39DEC6480F8748098500F747E2E70
:10116200F8E6F5993099FDC2990E80DEC299D2ACAB
:01117200225A
:03002300020F4A7F
:070F4A00C0E0C0D075D00823
:100F5100E4FFFE309845C2ACAD99C298FCECC39D4C
:100F610050312098100FBF00010ED3EF94E8EE949A
:100F71000340EFD2ACC3EF94E8EE9403500E747EBD
:100F81002CF8A699C2987E007F008004D2AC800321
:0B0F91000C80CAECB50D04D2ACD201FC
:050F9C00D0D0D0E032CE
:041230007F647E0059
:1012340075CBF875CAD175CDF875CCD1C2AD75C86A
:1012440004D2CAEF1FAC0670011E4C600730CFFDFC
:07125400C2CF80EFC2CA22E5
:1012A60075CBFF75CAA475CDFF75CCA4C2AD75C844
:1012B60004AE071FEE600730CFFDC2CF80F3C2CA6F
:0112C6002205
:10090F00E4F5227523FF75240B7525B87F64FE125D
:10091F0012347F647E001212347F647E0012123410
:10092F007F647E001212347F647E001212347F6463
:10093F007E001212347F647E00121234C2877F321F
:10094F007E001212347F327E00121234D2877F055E
:10095F007E001212347F327E001212347F327E00FC
:10096F001212347F327E001212347F327E00121246
:10097F00347F327E001212347F327E00121234C264
:10098F00877F057E00121234E52545246015E52387
:10099F0060117F011210098F23E525152570E915C8
:1009AF002480E5E525452460407D80E4FF12104F4B
:1009BF00752380E5254524601CE5235480FF33957E
:1009CF00E04F60117F011210098F23E52515257067
:1009DF00E2152480DEE52545246009E523FF3395E4
:1009EF00E04F60087522E780037522E7E522700566
:0709FF00FDFF12104FAF22B3
:010A060022CD
:100CB400EF6441705A7D087F091212C7E4FD7F1F5B
:100CC40012104F7D407F1F12104F7F021212A67D1B
:100CD400407F1F1212C77DAD7F1B12104F7DFF7F17
:100CE4001C12104F7D017F1E12104F7D027F2B12AC
:100CF400104F7D037F2D12104F7F0112125B7F6A0C
:100D04001208007F017E0012123412000380037F58
:050D1400FF227F002218
:10125B00E4F521EF60177D037F111212C77F027E29
:10126B00001212347D037F111212EE80077D037F73
:06127B00111212C7AF21A1
:01128100224A
:091000007F041210098F7B7F05AB
:10100900E4FEC284C286EF25E0547E4480FF7D0859
:10101900EF30E703D38001C39285D284EF25E0FF47
:10102900C284DDEC7D08D284EE25E0FEA283E433A0
:0C1039004206C284DDF0D286D284AF06ED
:011045002288
:091046007F2A12104F7D417F2C1E
:10104F00C284C286EF25E0547EFF7E08EF30E703AF
:10105F00D38001C39285D284EF25E0FFC284DEECFA
:10106F007E08ED30E703D38001C39285D284ED254E
:0A107F00E0FDC284DEECD286D284CC
:011089002244
:0412EE00AC07AB0599
:0F12F200E4FA121009AA07AF04EB4AFD02104FED
:0412C700AC07AB05C0
:1012CB00E4FA121009AA07AF04EBF45AFD02104F0F
:10080000AC07ECB41000400201FA90081025E07328
:100810000130014001470157015E016E01750185FC
:10082000018C019C01A301B301C301D301DA01EAE8
:100830007D077F2A12104F7D217F2C12104F210837
:100840007D0712104621087D077F2A12104F7D81F7
:100850007F2C12104F21087D0912104621087D09B6
:100860007F2A12104F7D817F2C12104F21087D0BA3
:1008700012104621087D0B7F2A12104F7D817F2C9C
:1008800012104F21087D0D12104621087D0D7F2A80
:1008900012104F7D817F2C12104F806C7D0F121033
:1008A0004680657D0F7F2A12104F7D817F2C1210AC
:1008B0004F80557D137F2A12104F7D117F2C12100F
:1008C0004F80457D137F2A12104F7D217F2C1210FF
:1008D0004F80357D13121046802E7D137F2A121013
:1008E0004F7D817F2C12104F801E7D097F2A1210B0
:1008F0004F7DFF7F2C12104F800E7D197F2A121022
:0F0900004FAD047F2C12104F7D067F2B02104F3E
:060026008B748A758976D7
:10002C00C202E4F578F5791203EB1204CA00610000
:10003C00006801007003007A07007A0B007A0C004C
:10004C008212008A14009216009C1900A41A00ACAB
:10005C001E000000B6E4F578F579805975781175B5
:10006C0079108051757807757904D20280477578BC
:10007C0005757904803F757811757910803775781E
:10008C0004757904802F757806757904D202802561
:10009C00757805757904801D75780575790480155A
:1000AC0075783D757904D202800BAB74AA75A9766C
:1000BC0074E9120431AB74AA75A9761203EB64E9E6
:1000CC00700241F2E4FDFF12104F7D7F7F0612108B
:1000DC004F7D7F7F0712104FE4FD7F0112104F7D83
:1000EC00017F091212EEE5784480FD7F0612104F55
:1000FC00E4F57CF57DAB74AA75A976900001120429
:10010C0065FFC3E57D9FE57C95F05022E92403F95A
:10011C00E43AFAE9257DF9EA357CFA1203EBFD7F26
:10012C000212104F057DE57D70CB057C80C7AB744A
:10013C00AA75A9761203EBFD7F0112104F757C3561
:10014C00757D007F071210098F7BE57D157D700290
:10015C00157CE57D457C600DE57B557820E506E555
:10016C007B557960DE757726E57D457C700241B85C
:10017C00E57B557830E50241B87F0A121009EF543F
:10018C001760024117F57720020241D6121000EFDA
:10019C005407F57A601FE57B1475F008A47C0025E4
:1001AC007AFFEC35F0AB74AA75A9769000018FF04C
:1001BC0012049D8017E57B75F008A4FFAB74AA753B
:1001CC00A976900001E5F08FF012049DE57B700399
:1001DC00757B01E4F57CF57DC3E57D957BE57C9431
:1001EC0000400241D67F02121009AB74E57624035D
:1001FC00F9E43575FAE9257DF9EA357CFAEF120454
:10020C0031057DE57D70D1057C80CD7F0A1210090A
:10021C00EF20E00241D67577E830027C121000EF37
:10022C005407F57A601FE57B1475F008A47C002553
:10023C007AFFEC35F0AB74AA75A9769000018FF0BB
:10024C0012049D8017E57B75F008A4FFAB74AA75AA
:10025C00A976900001E5F08FF012049DE57B700308
:10026C00757B01E4F57CF57DC3E57D957BE57C94A0
:10027C000050257F02121009AB74AA75A976E57D92
:10028C002404FDE4357C8D82F583EF120443057D57
:10029C00E57D70D4057C80D07F0B121009AB74AA5D
:1002AC0075A976900003EF120443801EE57B557808
:1002BC0030E50575772180127F0A121009EF54176B
:1002CC0070057577E580037577267D7F7F061210A4
:1002DC004F7D7F7F0712104F7D047F091212EEE4D1
:0802EC00FD7F0112104FAF77F6
:0102F40022E7
:0A108A008E258F268B278A288929DE
:10109400756D00756E00756F2A752A01ED2402F5D1
:1010A4002CE433F52BEFF52DE525F52EAF057E0069
:1010B400782F7C007D001203C5AB6DAA6EA96F1258
:0210C400002604
:0110C6002207
:100003007F11121009EF540360037F00227D037FE9
:06001300111212EE7F0045
:0100190022C4
:1002F500E709F608DFFA8046E709F208DFFA803EEB
:1003050088828C83E709F0A3DFFA8032E309F608D7
:10031500DFFA8078E309F208DFFA807088828C833F
:10032500E309F0A3DFFA806489828A83E0A3F608F3
:10033500DFFA805889828A83E0A3F208DFFA804CCD
:1003450080D280FA80C680D4806980F280338010A4
:1003550080A680EA809A80A880DA80E280CA80330D
:1003650089828A83ECFAE493A3C8C582C8CCC58385
:10037500CCF0A3C8C582C8CCC583CCDFE9DEE78055
:100385000D89828A83E493A3F608DFF9ECFAA9F0D4
:10039500EDFB2289828A83ECFAE0A3C8C582C8CC2A
:1003A500C583CCF0A3C8C582C8CCC583CCDFEADE43
:1003B500E880DB89828A83E493A3F208DFF980CCA5
:1003C50088F0EF60010E4E60C388F0ED2402B4049E
:1003D5000050B9F582EB2402B4040050AF23234545
:0603E50082239003457322
:1003EB00BB010689828A83E0225002E722BBFE0210
:0903FB00E32289828A83E4932243
:10040400BB010CE58229F582E5833AF583E02250AD
:1004140006E92582F8E622BBFE06E92582F8E222F7
:0D042400E58229F582E5833AF583E4932211
:10043100BB010689828A83F0225002F722BBFE01AA
:02044100F322A4
:10044300F8BB010DE58229F582E5833AF583E8F0EF
:10045300225006E92582C8F622BBFE05E92582C89B
:02046300F22283
:10046500BB0110E58229F582E5833AF583E0F5F0D5
:10047500A3E0225009E92582F886F008E622BBFEB2
:100485000AE92582F8E2F5F008E222E5832AF583F8
:08049500E993F5F0A3E99322BD
:10049D00F8BB0111E58229F582E5833AF583E8F091
:1004AD00E5F0A3F0225009E92582C8F608A6F0224E
:0D04BD00BBFE09E92582C8F2E5F008F22235
:1004CA00D083D082F8E4937012740193700DA3A3C1
:1004DA0093F8740193F5828883E4737402936860D5
:0604EA00EFA3A3A380DFD5
:00000001FF
