:020000040800F2
:100000003004002045010008FD0B0008FF0B00082C
:10001000030C0008070C00080B0C0008000000008F
:100020000000000000000000000000000F0C0008AD
:10003000110C000800000000130C0008150C00084B
:100040005F0100085F0100085F0100085F01000810
:100050005F0100085F0100085F0100085F01000800
:100060005F0100085F0100085F0100085F010008F0
:100070005F0100085F0100085F0100085F010008E0
:100080005F0100085F0100085F0100085F010008D0
:100090005F0100085F0100085F0100085F010008C0
:1000A0005F0100085F0100085F0100085F010008B0
:1000B0005F0100085F0100085F0100085F010008A0
:1000C0005F0100085F0100085F0100085F01000890
:1000D0005F0100085F0100085F0100085F01000880
:1000E0005F0100085F0100085F0100085F01000870
:1000F0005F0100085F0100085F0100085F01000860
:100100005F0100085F0100085F0100085F0100084F
:100110005F0100085F0100085F0100085F0100083F
:100120005F0100085F0100085F0100085F0100082F
:10013000DFF80CD000F0BAFF004800471D0B0008A4
:10014000300400200648804706480047FEE7FEE7E7
:10015000FEE7FEE7FEE7FEE7FEE7FEE7FEE7FEE777
:1001600045020008310100080CB500200190009004
:100170006B48006840F480306949086000BF6848F7
:10018000006800F4003000900198401C0190009835
:1001900018B90198B0F5A06FF1D16148006810F46A
:1001A000003F02D00120009001E000200090009864
:1001B000012842D15B48006840F0100059490860AE
:1001C0000846006820F0030008600846006840F018
:1001D000020008605248406851494860084640683B
:1001E00048600846406840F48060486008464068BF
:1001F00020F47C1048600846406840F4E8104860ED
:100200000846006840F08070086000BF44480068FD
:1002100010F0007FFAD04248406820F003004049C7
:1002200048600846406840F00200486000BF3C4813
:10023000406800F00C000828F9D10CBD10B5FFF79C
:1002400093FF10BD10B53648006840F001003449F6
:10025000086008464068344908403149486008460B
:100260000068324908402E4908600846006820F4BA
:10027000802008600846406820F4FE0048604FF483
:100280001F008860FFF7DAFF4FF000602849086020
:1002900010BD10B5002100200022214B5B6803F047
:1002A0000C0121B1042906D0082928D107E0214BEF
:1002B000214C236027E01F4B1F4C236023E0184B89
:1002C0005B6803F47010164B5B6803F48032022302
:1002D00003EB904022B9194B4343174C23600DE0C8
:1002E0000F4B5B6813F4003F04D0144B4343124C94
:1002F000236003E00F4B43430F4C236003E00D4B9F
:100300000D4C236000BF00BF054B5B68C3F30313B4
:100310000B4CE15C084B1B68CB40074C236010BDC5
:1003200000100240002002400000FFF8FFFFF6FE30
:1003300008ED00E000127A000000002000093D00F6
:100340000400002031490143314A1160704770B503
:10035000002100230F22C4780CB32D4C246804F430
:10036000E064C4F5E064210AC1F10403CA404478A2
:1003700004FA03F18478144021430901254C0678DE
:10038000A155047804F01F050124AC4005786D11D7
:100390004FF0E02606EB8505C5F8004109E004783A
:1003A00004F01F050124AC401B4D0678761145F87A
:1003B000264070BD194A0A400243154B1B1F1A60A4
:1003C000704739B1124A121D12680243104B1B1DAF
:1003D0001A6006E00E4A121D126882430C4B1B1D68
:1003E0001A607047042808D14FF0E021096941F0F4
:1003F00004014FF0E022116107E04FF0E0210969AC
:1004000021F004014FF0E022116170470000FA056D
:100410000CED00E000E400E080E100E080FFFF1F61
:1004200010B50446CA48844208D10121042000F0D6
:1004300027FB0021042000F023FB46E0C54884424E
:1004400008D10121082000F01BFB0021082000F04A
:1004500017FB3AE0C048844208D10121102000F087
:100460000FFB0021102000F00BFB2EE0BB48844264
:1004700008D10121202000F003FB0021202000F002
:10048000FFFA22E0B648844208D10121402000F062
:10049000F7FA0021402000F0F3FA16E0B148844258
:1004A00008D10121802000F0EBFA0021802000F02B
:1004B000E7FA0AE0AC48844207D10121801500F038
:1004C000DFFA0021A01500F0DBFA10BD10B5012104
:1004D000084600F0D5FA0021012000F0D1FA10BD45
:1004E0002DE9F041024600250026002000230024CB
:1004F000002791F803C00CF00F0591F803C01CF021
:10050000100F03D091F802C04CEA050591F800C025
:10051000BCF1000F31D0146800202BE04FF0010C2B
:100520000CFA00F3B1F800C00CEA03069E4220D199
:1005300083004FF00F0C0CFA03F7BC4305FA03FCE1
:100540004CEA040491F803C0BCF1280F06D14FF027
:10055000010C0CFA00FCC2F814C00AE091F803C0C8
:10056000BCF1480F05D14FF0010C0CFA00FCC2F8A9
:1005700010C0401C0828D1D31460B1F800C0BCF1F1
:10058000FF0F34DD546800202EE000F1080C4FF01E
:10059000010808FA0CF3B1F800C00CEA03069E4209
:1005A00021D183004FF00F0C0CFA03F7BC4305FA7E
:1005B00003FC4CEA040491F803C0BCF1280F05D1F8
:1005C00000F1080C08FA0CF8C2F8148091F803C086
:1005D000BCF1480F07D100F1080C4FF0010808FAF0
:1005E0000CF8C2F81080401C0828CED35460BDE837
:1005F000F0814FF6FF710180022181700421C170EA
:1006000070470246002093680B4201D0012000E0B1
:10061000002070470146886880B27047024600207B
:10062000D3680B4201D0012000E000207047014652
:10063000C86880B2704701617047416170470AB174
:10064000016100E041617047C16070474FF4803242
:100650000A438261816182618269826970470246D0
:100660000020424B18684FF68073184040EA021091
:1006700008433E4B186070473D49C8617047F0B56C
:100680000A46002300240021002500F00046B6F1B0
:10069000004F02D1354EF16901E0344E7168C0F36C
:1006A000034583B200F44016B6F5401F08D121F08F
:1006B00070612E4E766826F070662C4F7E6012E0D8
:1006C00000F48016B6F5801F06D1032606FA05F45D
:1006D000A14341F0706106E0460D360103FA06F6CB
:1006E000B14341F0706122B1460D360103FA06F6BE
:1006F000314300F00046B6F1004F02D11B4EF161CC
:1007000001E01A4E7160F0BD30B500228B071C0F5E
:100710000F2303FA04F2154B08338C1053F82430DE
:100720009343124C08348D1044F8253023468C1026
:1007300053F824308C07240F00FA04F423430B4CA5
:1007400008348D1044F8253030BD0A4908607047E0
:1007500000080140000C014000100140001401405D
:1007600000180140001C0140002001400000014031
:1007700000002042DC002042DD48006840F001001B
:10078000DB49086008464068DA490840D8494860B3
:1007900008460068D8490840D549086008460068FE
:1007A00020F4802008600846406820F4FE0048607D
:1007B0004FF41F0088607047CD49096821F48031EB
:1007C000CB4A11601146096821F480211160B0F50F
:1007D000803F03D0B0F5802F0ED106E0C4490968F0
:1007E00041F48031C24A116007E0C149096841F40F
:1007F000A021BF4A116000E000BF00BF704710B5E4
:1008000001460022002300204A11012A02D1B84CDF
:10081000236806E0022A02D1B54C236A01E0B44CF9
:10082000636A01F01F02012494401C4201D00120A0
:1008300000E0002010BD38B5002000900024002505
:1008400000BF3120FFF7DBFF05460098401C0090F9
:100850000098B0F5A06F01D0002DF2D03120FFF745
:10086000CEFF08B1012400E00024204638BD014637
:1008700000209F4A106820F0F80040EAC100106094
:1008800070479E490860704702460020984B5868A0
:1008900020F47C1042EA01031843954B58607047DE
:1008A00096490866704701460020914A506820F03A
:1008B00003000843506070478D48406800F00C000A
:1008C0007047014600208A4A506820F0F000084333
:1008D0005060704701460020854A506820F4E0606F
:1008E00008435060704701460020814A506820F458
:1008F000605040EAC1005060704729B17C4A527A8A
:1009000002437B4B5A7204E0794A527A8243784B15
:100910005A7270477A490860704701460020744A4D
:10092000506820F440400843506070470021754AE9
:1009300011706F4A82F82010012802D0042808D1D3
:1009400003E001216F4A117004E005216D4A117026
:1009500000E000BF00BF70476B4908607047644902
:10096000096A0143624A1162704767494439086065
:10097000704730B500210022002400235C4D6D68D3
:1009800005F00C0121B1042905D0082923D105E087
:100990005E4D056022E05D4D05601FE0544D6D68C1
:1009A00005F47012524D6D6805F48034022505EB94
:1009B00092421CB9564D554305600BE04C4D6D6895
:1009C00015F4003F03D0524D5543056002E04F4DF2
:1009D0005543056002E04D4D056000BF00BF444D2A
:1009E0006D6805F0F00109094A4D6B5C0568DD4052
:1009F00045603F4D6D6805F4E061090A454D6B5C4B
:100A00004568DD4085603A4D6D6805F46051C90A5E
:100A1000404D6B5C4568DD40C560354D6D6805F443
:100A20004041890B3C4D6B5CC568B5FBF3F5056136
:100A300030BD29B12E4A526902432D4B5A6104E060
:100A40002B4A526982432A4B5A61704729B1284A7E
:100A500092690243264B9A6104E0254A92698243D7
:100A6000234B9A61704729B1214AD2690243204B36
:100A7000DA6104E01E4AD26982431D4BDA61704795
:100A800029B11B4AD2680243194BDA6004E0184AC4
:100A9000D2688243164BDA60704729B1144A126952
:100AA0000243134B1A6104E0114A12698243104B4E
:100AB0001A61704714494039086070470F49C8648B
:100AC00070470B49C87170470948406A40F0807010
:100AD00007494862704701460020054A92680A4269
:100AE00001D0012000E00020704701498872704762
:100AF000001002400000FFF8FFFFF6FE0000424237
:100B0000D8004242201002408004424200127A0083
:100B100000093D00140000202400002008B500F06A
:100B20006BF94CE000241FE02107080E224600214B
:100B300000F052FA04F10801CAB22107080E02219E
:100B400000F04AFA04F11001CAB22107080E04218C
:100B500000F042FA04F11801CAB22107080E06217A
:100B600000F03AFA601CC4B2082CDDDB022000F071
:100B7000B2F800F03CF912A20021084600F0BBF9DF
:100B800014A20121002000F0B6F916A202210020D3
:100B900000F0E1F916A204210A2000F0DCF904209B
:100BA00000F099F800F023F913480823802200216F
:100BB0000090084600F038FA042000F08CF8B1E705
:100BC00048656C546563204175746F6D6174696F1D
:100BD0006E0000007777772E68656C7465632E630E
:100BE0006E000000323031332D322D3231000000E2
:100BF0004F4C454400000000061D0008704700BF30
:100C0000FEE700BFFEE700BFFEE700BFFEE770475C
:100C1000704770477047000010B56FF00400FFF791
:100C2000E1FB334800683349B0FBF1F0324908700A
:100C30000846007800EB4001C1EBC0104FF6FF7191
:100C400001EAC0002D49088010BD01462A4A1278E9
:100C50004A434FF0E0235A6100229A611A46126912
:100C600042F001021A6100BF4FF0E022106910F05B
:100C7000010F02D010F4803FF6D04FF0E02212694D
:100C800022F001024FF0E0231A6100229A617047BE
:100C900001461A4A12884A434FF0E0235A61002263
:100CA0009A611A46126942F001021A6100BF4FF0C0
:100CB000E022106910F0010F02D010F4803FF6D04E
:100CC0004FF0E022126922F001024FF0E0231A6196
:100CD00000229A61704730B50446002505E04FF4C4
:100CE0007A70FFF7D5FF681CC5B2A542F7D330BDB7
:100CF0000000002000127A00280000202A000020B6
:100D000070B505461021E548FFF795FC002417E073
:100D100005FA04F010F0800F04D04021DF48FFF7FF
:100D20008AFC03E04021DD48FFF787FC8021DB4897
:100D3000FFF783FC8021D948FFF77DFC601CC4B21B
:100D4000082CE5DB70BD70B505461021D348FFF7D0
:100D500074FC002417E005FA04F010F0800F04D0B2
:100D60004021CE48FFF767FC03E04021CB48FFF766
:100D700064FC8021C948FFF760FC8021C748FFF769
:100D80005AFC601CC4B2082CE5DB70BD70B504468B
:100D90000D4605F1B001C8B2FFF7D5FF102141EAB9
:100DA0001410FFF7D0FF04F00F0141F00100FFF72E
:100DB000CAFF70BD70B50646002415E004F1B0010D
:100DC000C8B2FFF7C0FF0120FFF7BDFF1020FFF7FB
:100DD000BAFF002504E03046FFF792FF681CC5B259
:100DE000802DF8DB601CC4B2082CE7DB70BD10B5A9
:100DF0000020FFF7DFFF10BD08B501210420FFF739
:100E000025FEF020ADF8000010208DF8030003202F
:100E10008DF802006946A148FFF762FBF0219F4868
:100E2000FFF709FCFFF7F8FE4FF4FA70FFF730FF09
:100E300020219A48FFF701FCAE20FFF784FFAE2087
:100E4000FFF781FF0020FFF77EFF1020FFF77BFFF9
:100E50004020FFF778FF8120FFF775FFCF20FFF7D5
:100E600072FFA120FFF76FFFC820FFF76CFFA620DD
:100E7000FFF769FFA820FFF766FF3F20FFF763FF3A
:100E8000D320FFF760FF0020FFF75DFFD520FFF7BD
:100E90005AFF8020FFF757FFD920FFF754FFF120BA
:100EA000FFF751FFDA20FFF74EFF1220FFF74BFF4D
:100EB000DB20FFF748FF4020FFF745FF2020FFF72A
:100EC00042FF0220FFF73FFF8D20FFF73CFF142079
:100ED000FFF739FFA420FFF736FFA620FFF733FF07
:100EE000AF20FFF730FF0020FFF764FF0021084626
:100EF000FFF74CFF08BD2DE9F0470446884615462C
:100F00004FF000090026002720E0E85D203800F0BF
:100F1000FF097E2C04DD002408F1010000F0FF0829
:100F200041462046FFF732FF002609E009EB490160
:100F30005B4A02EB4101885DFFF7E2FE701CC6B21E
:100F4000062EF3DBA01DC4B2781CC7B2E85D0028F2
:100F5000DBD1BDE8F0872DE9F04706460F46904605
:100F600000250024A14631E018F809002038C5B258
:100F7000782E02DD0026781CC7B239463046FFF7CE
:100F800005FF002407E004EB0511464A505CFFF71B
:100F9000B7FE601CC4B2082CF5DB781CC1B2304629
:100FA000FFF7F4FE002408E004EB051108313D4A88
:100FB000505CFFF7A5FE601CC4B2082CF4DB06F100
:100FC0000800C6B209F1010000F0FF0918F8090095
:100FD0000028C9D1BDE8F0872DE9F04180460E46D2
:100FE000174600247D0131464046FFF7CFFE00BF83
:100FF00006E02D49485DFFF783FE6D1C601CC4B2FE
:10100000102CF6DB701CC1B24046FFF7BFFE002477
:1010100006E02549485DFFF773FE6D1C601CC4B2F5
:10102000102CF6DBBDE8F0812DE9F05F06460F4697
:1010300090461C46DDF828A04FF0000BE11704EBAA
:101040005171C910B4EBC10106D12046E11704EB80
:101050005171C1F3C70506E02046E11704EB517159
:10106000C910491CCDB23D4614E029463046FFF771
:101070008DFEB1460AE059460BF1010B1AF801004A
:10108000FFF73EFE09F1010000F0FF09C145F2DB68
:10109000681CC5B2A542E8DBBDE8F09F000801402E
:1010A000EE14000816170008EE100008064C074D55
:1010B00006E0E06840F0010394E807009847103428
:1010C000AC42F6D3FFF738F80821000828210008C1
:1010D00002E008C8121F08C1002AFAD17047704701
:1010E000002001E001C1121F002AFBD1704700005F
:1010F00000000000000000000000000000000000F0
:1011000000000000000000000000000000000002DD
:1011100002FAFAAAAAFFFFAAAAFAFA0202000042F9
:1011200072723A7A424B5B52626213776600203CDD
:101130001CFFFFB0B424243F3FE4E4242420020237
:1011400003FFFF0001051D59C1FF7F0101010000E0
:1011500000F8F8484C4F4B4A4848F8F800000000A7
:1011600000FFFF44444444444444FFFF0000202463
:1011700024E4E42424243010FFFF10F0F000081CC5
:101180001F0B0C0D4F6E341C0F23607F3F0080C07F
:1011900060F8FF070200FFFFE0703C1C0800000041
:1011A000007F7F0406033F7F4040407878000000C6
:1011B000000000000000000000000000000000002F
:1011C000000000000000000000000000000000001F
:1011D000000000000000000000000000000000000F
:1011E00000000000000000000000000000001021CE
:1011F0008670007E4A4A4A4A4A7E0000000002FE8B
:1012000001407F41417F41417F41417F40000000DB
:10121000FC042424FCA5A6A4FC242424040080604F
:101220001F808042462A12122A2642C04000080827
:1012300008FF8848009848280A2C48D8080002422D
:10124000817F0000404242427E42424240000050C4
:101250004F4A48FF48484800FC0000FF00000000DB
:101260003F0101FF21613F000F40807F000000909F
:101270008CA4A4A4A5A6A4A4A4A4948C0400008077
:10128000402018070000003F40404070000000046C
:1012900074D4FFD47404100CB744B40C040000429E
:1012A000437A4342437E4B4B4A4A4243010008087B
:1012B00008080808F94A4C4848C80808080040408F
:1012C00020100C0300002040403F000000000020E0
:1012D0002C246474ADA6E43424242C2400000024BF
:1012E000242515150DFE040D171424642400000098
:1012F00000F848484C4B4A484848F80000000000B5
:1013000000FF4444444444444444FF00000020247B
:1013100024E4242424201010FF1010F00000081CE6
:101320000B080C054E24100C0320403F0000080859
:1013300008FF8848009848280A2C48D8080002422C
:10134000817F0000404242427E42424240000050C3
:101350004F4A48FF48484800FC0000FF00000000DA
:101360003F0101FF21613F000F40807F000008071F
:10137000FAAAAEAAAAA8ACABAAFE0A020200080802
:101380008B6A1E0A0A0A0AFE0A0B08080800106087
:1013900001C63000101010FF1010101000000404DF
:1013A000FE01004161514D43414151E10100404185
:1013B000CE04008040BE828282BEC0404000000059
:1013C0007F20908040432C10102C43C040002021EF
:1013D0002EE4000020202020FF20202020000000FC
:1013E000007F201008000000FF0000000000000047
:1013F000F848484848FF48484848F80000000000BE
:101400000F040404043F444444444F40700000006F
:101410000202020202E2120A06020080000001013A
:1014200001010141817F0101010101010100002051
:10143000202222E2222222E2222222202000004038
:1014400020100C030000003F40404040700040204E
:10145000F80F82601E1410FF101010100000000022
:10146000FF000101010101FF010101010100000074
:1014700000007E4848484848484848CC08000004D6
:1014800004040404040404244644201F000084943B
:1014900094FF949480242424FC121312000020183A
:1014A00006FF021C0A0202023F4141417100101076
:1014B000D0FE509000101010D0FE10101000080642
:1014C00001FF000110080443807F000000009088A5
:1014D000A7A2A6BAA2F8A7A2A6BAA2828000000478
:1014E0000404040C340444847F0404040000000059
:1014F000000000000000002F0000000007000700AF
:1015000000147F147F1400242A7F2A1200626408CA
:101510001323003649552250000005030000000047
:101520001C224100000041221C000014083E081447
:101530000008083E0808000000A060000008080835
:101540000808000060600000002010080402003E4F
:101550005149453E0000427F4000004261514946EA
:10156000002141454B31001814127F1000274545DA
:101570004539003C4A4949300001710905030036EC
:101580004949493600064949291E000036360000FF
:101590000000563600000008142241000014141404
:1015A00014140000412214080002015109060032FF
:1015B0004959513E007C1211127C007F494949363D
:1015C000003E41414122007F4141221C007F4949A8
:1015D0004941007F09090901003E4149497A007FDC
:1015E0000808087F0000417F4100002040413F0182
:1015F000007F08142241007F40404040007F020CE1
:10160000027F007F0408107F003E4141413E007F81
:1016100009090906003E4151215E007F091929464A
:101620000046494949310001017F0101003F404026
:10163000403F001F2040201F003F4038403F0063D4
:1016400014081463000708700807006151494543F6
:1016500000007F41410000552A552A5500004141B4
:101660007F000004020102040040404040400000AE
:1016700001020400002054545478007F4844443848
:1016800000384444442000384444487F00385454CF
:10169000541800087E0901020018A4A4A47C007F4D
:1016A000080404780000447D4000004080847D00F0
:1016B000007F102844000000417F4000007C041897
:1016C0000478007C0804047800384444443800FC62
:1016D000242424180018242418FC007C080404087E
:1016E00000485454542000043F444020003C4040F3
:1016F000207C001C2040201C003C4030403C00442A
:1017000028102844001CA0A0A07C004464544C4431
:101710001414141414140000000000000000000051
:10172000000000000000000000F8000000000000C1
:1017300000333000000000100C06100C0600000002
:1017400000000000000040C07840C0784000043F26
:1017500004043F040400007088FC083000000018F6
:1017600020FF211E0000F008F000E018000000211A
:101770001C031E211E0000F00888700000001E21BE
:1017800023241927211010160E000000000000006D
:10179000000000000000000000E01804020000004B
:1017A00000071820400000020418E000000000407C
:1017B000201807000000404080F0804040000202F6
:1017C000010F01020200000000F000000000010112
:1017D000011F01010100000000000000000080B0B6
:1017E0007000000000000000000000000000000188
:1017F00001010101010100000000000000000030B3
:10180000300000000000000000008060180400604C
:1018100018060100000000E010080810E000000FAA
:10182000102020100F00001010F800000000002011
:10183000203F202000000070080808887000003059
:101840002824222130000030088888483000001801
:10185000202020110E000000C02010F8000000071A
:101860000424243F240000F8088888080800001990
:10187000212020110E0000E0108888180000000FC1
:10188000112020110E0000380808C8380800000098
:10189000003F000000000070880808887000001CED
:1018A000222121221C0000E010080810E0000000A6
:1018B000312222110F00000000C0C0000000000013
:1018C0000030300000000000008000000000000038
:1018D000806000000000000080402010080000012F
:1018E00002040810200040404040404040000404F2
:1018F00004040404040000081020408000000020BC
:10190000100804020100007048080808F0000000F8
:10191000003036010000C030C828E810E000071889
:10192000272423140B000000C038E0000000203CF6
:1019300023020227382008F8888888700000203F9A
:10194000202020110E00C0300808080838000718B1
:1019500020202010080008F808080810E000203FA8
:10196000202020100F0008F88888E8081000203F89
:1019700020202320180008F88888E8081000203F5D
:10198000200003000000C0300808083800000718D5
:101990002020221E020008F808000008F808203F56
:1019A000210101213F20000808F80808000000205C
:1019B000203F2020000000000808F8080800C08030
:1019C00080807F00000008F888C028180800203FA9
:1019D00020012638200008F8080000000000203F01
:1019E00020202020300008F8F800F8F80800203FF8
:1019F000003F003F200008F830C00008F808203FF2
:101A0000200007183F00E01008080810E0000F1041
:101A1000202020100F0008F808080808F000203FD8
:101A2000210101010000E01008080810E0000F1873
:101A3000242438504F0008F8888888887000203F98
:101A40002000030C30200070880808083800003897
:101A5000202121221C00180808F80808180000009E
:101A6000203F2000000008F808000008F808001FC8
:101A7000202020201F000878880000C838080000B7
:101A800007380E010000F80800F80008F800033CD1
:101A90000700073C03000818688080681808203099
:101AA0002C03032C30200838C800C8380800000078
:101AB000203F2000000010080808C838080020381F
:101AC000262120201800000000FE02020200000073
:101AD000007F40404000000C30C0000000000000CB
:101AE00000010638C00000020202FE0000000040B3
:101AF00040407F00000000000402020204000000D9
:101B000000000000000000000000000000008080D5
:101B100080808080808000020204000000000000BD
:101B2000000000000000000080808080000000199C
:101B3000242222223F2008F8008080000000003F7D
:101B4000112020110E000000008080800000000E97
:101B5000112020201100000000808088F800000E75
:101B6000112020103F200000808080800000001F96
:101B7000222222221300008080F08888881800200A
:101B8000203F202000000000808080808000006BCB
:101B900094949493600008F8008080800000203FB7
:101BA000210000203F2000809898000000000020C5
:101BB000203F20200000000000809898000000C016
:101BC0008080807F000008F8000080808000203F37
:101BD00024022D302000000808F80000000000203A
:101BE000203F202000008080808080808000203F77
:101BF00020003F20003F8080008080800000203F48
:101C0000210000203F200000808080800000001F15
:101C1000202020201F00808000808000000080FFA6
:101C2000A12020110E000000008080808000000EA6
:101C3000112020A0FF8080808000808080002020F4
:101C40003F21200001000000808080808000003360
:101C5000242424241900008080E0808000000000FB
:101C6000001F202000008080000000808000001FF6
:101C7000202020103F208080800000808080000194
:101C80000E300806010080800080008080800F30C8
:101C90000C030C300F00008080008080800000204A
:101CA000312E0E3120008080800000808080808175
:101CB0008E701806010000808080808080000021E6
:101CC000302C2221300000000000807C0202000045
:101CD0000000003F404000000000FF000000000046
:101CE0000000FF0000000002027C800000000040B5
:101CF000403F000000000006010102020404000051
:101D00000000000000000003050911FF118905C350
:101D100000E000F000F8000000000000004428FF90
:101D200011AA4400000000000000000000000000B4
:101D300000000000000000000000000000000000A3
:101D40000000000000000000000000000000000093
:101D50000000000000000000000000000000000083
:101D600083013844829292740183000000000000D5
:101D7000007C44FF017D7D7D017D7D7D7D017D7D3C
:101D80007D7D7D01FF0000000000000100010001D9
:101D9000000100010001000000000000000000013F
:101DA0000100000000000000000000000000000032
:101DB0000000000000000000000000000000000023
:101DC0000000000000000000000000000000000013
:101DD0000000000000000000000000000000000003
:101DE00001010000000000000101000000000000EF
:101DF00000000001010101010101010101010101D6
:101E000001010101010000000000000000000000CD
:101E100000000000000000000000000000000000C2
:101E200000003F3F0303F31311111111111101F1D0
:101E3000116181010101816111F101010101414142
:101E4000F10101010101C1211111111121C1010192
:101E500001014141F10101010101010101010111F2
:101E600011111111D33303033F3F000000000000A4
:101E70000000000000000000000000000000000062
:101E80000000000000000000000000000000000052
:101E90000000000000000000000000000000000042
:101EA0000000E0E000007F01010101010100007F6E
:101EB0000000010618060100007F000000004040FD
:101EC0007F40400000001F2040404040201F000095
:101ED000000040407F404000000000600000000023
:101EE00040300C0300000000E0E0000000000000B3
:101EF00000000000000000000000000000000000E2
:101F000000000000000000000000000000000000D1
:101F100000000000000000000000000000000000C1
:101F200000000707060606060404048444444484AB
:101F30000404844444448404040484C40404040461
:101F400084444444840404040404844444448404D1
:101F500004040404844444448404048444444484C1
:101F6000040404040606060607070000000000003B
:101F70000000000000000000000000000000000061
:101F80000000000000000000000000000000000051
:101F90000000000000000000000000000000000041
:101FA00000000000000000000000001018141211D2
:101FB00000000F1010100F000000101F1000000094
:101FC000081012120D00001800000D1212120D0060
:101FD000001800001018141211000010181412112B
:101FE00000000000000000000000000000000000F1
:101FF00000000000000000000000000000000000E1
:1020000000000000000000000000000000000000D0
:1020100000000000000000000000000000000000C0
:1020200000000000000000000000000000000000B0
:1020300000000000000000000000000000000000A0
:102040000000808080808080808000000000000090
:102050000000000000000000000000000000000080
:102060000000000000000000000000000000000070
:102070000000000000000000000000000000000060
:10208000000000000000007F030C300C037F000004
:102090003854545800007C04047800003C40407CD4
:1020A0000000000000000000000000000000000030
:1020B0000000000000000000000000000000000020
:1020C0000000FFAAAAAA280800FF000000000000E4
:1020D0000000000000000000000000000000000000
:1020E0000000000000000000000000000000007F71
:1020F000030C300C037F0000264949493200007F61
:10210000020408107F0000002821000800000020C1
:102110002C000000D0100008542100082C000020E2
:1021200004040000E010000800A24A0400000000BF
:102130000000000001020304060708090000000077
:102140000102030401020304060708090204060849
:04215000000000008B
:0400000508000131BD
:00000001FF
