:03000000020420D7
:0C042000787FE4F6D8FD7581210203ED21
:0B042C00C2A2C2A1C2A0D2A0C2A022A6
:10040900C2A2C2A1C2A0D2A0C2A0C2A2D2A2C2A2AA
:07041900C2A1D2A1C2A12281
:020343008F1514
:1003450075216E752012751F03751E4CAF19AE18F9
:10035500AD17AC167B007A247974784912010C8F9D
:10036500198E188D178C16AB21AA20A91FA81E124D
:1003750000038F198E188D178C161201A98F1D8EEB
:100385001C8D1B8C1AAF158F90D2A2C2A2AF1DAEC9
:100395001CAD1BAC1A78181202388F90D2A2C2A2DB
:1003A500AF1DAE1CAD1BAC1A78101202388F90D25F
:1003B500A2C2A2AF1DAE1CAD1BAC1A780812023842
:1003C5008F90D2A2C2A2AF1DAE1CAD1BAC1A790094
:1003D50078001202388F1D8E1C8D1B8C1A8F90D2BF
:0703E500A2C2A2D2A1C2A135
:0103EC0022EE
:02024C008F0819
:10024E0075146E75131275120375114CAF0CAE0B3F
:10025E00AD0AAC097B007A247974784912010C8FAF
:10026E000C8E0B8D0A8C09AB14AA13A912A81112AD
:10027E0000038F0C8E0B8D0A8C091201A98F108E24
:10028E000F8D0E8C0D790078001202388F108E0FA4
:10029E008D0E8C0DE4FEEFA806088002C313D8FC69
:1002AE00139297D2A2C2A20EBE08EBAF10AE0FAD44
:1002BE000EAC0D7808120238E4FEEFA80608800294
:1002CE00C313D8FC139297D2A2C2A20EBE08EBAFF4
:1002DE0010AE0FAD0EAC0D7810120238E4FEEFA882
:1002EE0006088002C313D8FC139297D2A2C2A20EA4
:1002FE00BE08EBAF10AE0FAD0EAC0D781812023873
:10030E00E4FEEFA806088002C313D8FC139297D21E
:10031E00A2C2A20EBE08EBAF08E4FEEFA80608804C
:10032E0002C313D8FC139297D2A2C2A20EBE08EB40
:04033E00D2A1C2A1E5
:010342002298
:1003ED00E4F580F590F5A0F5B012042CF519F5188B
:0C03FD0075177A751644FF12034380FE4A
:10000300EC4D6011E8497017ED33EC3304600DE4F7
:10001300FCFFFEFD22E933E8330470F802021512F7
:1000230001E058046009E4CC2481500628500902F9
:10003300021F28400302021CC0E0EB4A7044B9804F
:1000430006D0E0FB02020BEF4E701CBD8008EBFFF5
:10005300EAFEE9FD80EBE98DF0A4FEE5F00200EC99
:10006300E9CDF9EAFEEBFFEF89F0A4FCE5F0CE89D8
:10007300F0A42EFFE435F0CD89F0A42DFEE435F095
:100083008067EF4E7005BD80D780C3EF8BF0A4ACC3
:10009300F0EE8BF0A42CFCE435F0F8EF8AF0A42CFE
:1000A300E5F038FCE433CB8DF0A42CFCE5F03BF811
:1000B300EE8AF0A42CFCE5F038F8E433CF89F0A401
:1000C3002CFCE5F038CF3400CE89F0A42FFFE5F007
:1000D3003EFEE433C98DF0A42EFEE5F039CD8AF05F
:1000E300A42FFFE5F03EFEE43DFD33D0E0FB5007D7
:1000F3000BBB000F02021FEC2CFCEF33FFEE33FEB1
:06010300ED33FD0201F7DF
:1001090002021FEC5D046005E85904700302021540
:100119001201E0580460F6EC4860F2EC7004FDFE50
:10012900FF22C860DB2481C85009C39860025006C9
:1001390002021C9850CAF582E9294B4A7005AB8224
:1001490002020B75F0007C1A7880C3EF9BEE9AEDE2
:1001590099400DC3EF9BFFEE9AFEED99FDE842F041
:10016900DC23ACF0D0E0FFD0E0FED0E0FDAB822094
:10017900E7101BEB60BAEC2CFCEF33FFEE33FEED1E
:1001890033FD0201F7E803F830E705C0F075F00028
:10019900EF2FFFEE33FEED33FD40B830E7C280AA02
:1001A900EDD2E7CD33EC3392D524814006E4FFFE4E
:1001B900FDFC22FCE4CFCECDCC24E0501174FF80AD
:1001C900EDC3CC13CCCD13CDCE13CECF13CF04704A
:0701D900F030D5DE02022A1E
:1001E000E9D2E7C933E833F892D5EDD2E7CD33EC65
:0701F00033FC5002B2D522DE
:1001F700EC30E7100FBF000C0EBE00080DBD000469
:100207000BEB6014A2D5EB13FCED92E7FD2274FF14
:10021700FCFDFEFF22E480F8A2D574FF13FC7D806D
:03022700E480EF81
:0E022A00C3E49FFFE49EFEE49DFDE49CFC22E5
:10023800E86010ECA2E713FCED13FDEE13FEEF13DC
:04024800FFD8F022C9
:00000001FF
